:020000040800F2
:100000007008002089010008372A000875200008C0
:10001000352A0008F5030008E32F0008000000005F
:10002000000000000000000000000000DB2C0008C1
:100030002F04000800000000D92C0008212D000822
:10004000A3010008A3010008A3010008A301000800
:10005000A3010008A3010008310400083F040008C0
:10006000A3010008A3010008A3010008F903000888
:10007000A3010008A3010008A3010008A3010008D0
:10008000A3010008A3010008A3010008A3010008C0
:10009000A3010008A3010008A3010008450400080B
:1000A000A3010008A3010008A3010008A3010008A0
:1000B000A3010008A3010008A3010008A301000890
:1000C000A3010008A3010008A3010008A301000880
:1000D000A3010008A3010008A3010008A301000870
:1000E00037040008A3010008A301000800F002F88B
:1000F00000F03AF80AA090E8000C82448344AAF188
:100100000107DA4501D100F02FF8AFF2090EBAE885
:100110000F0013F0010F18BFFB1A43F0010318473B
:100120007440000094400000103A24BF78C878C1A1
:10013000FAD8520724BF30C830C144BF04680C60ED
:10014000704700000023002400250026103A28BF35
:1001500078C1FBD8520728BF30C148BF0B60704739
:100160001FB51FBD10B510BD00F06CF81146FFF7AC
:10017000F7FF03F0B3F800F08AF803B4FFF7F2FFDB
:1001800003BC00F08DF8000009488047094800478B
:10019000FEE7FEE7FEE7FEE7FEE7FEE7FEE7FEE737
:1001A000FEE7FEE704480549054A064B7047000094
:1001B0009D2D0008ED00000870020020700800204E
:1001C00070040020700400204FF0000200B51346B8
:1001D00094469646203922BFA0E80C50A0E80C5067
:1001E000B1F12001BFF4F7AF090728BFA0E80C5018
:1001F00048BF0CC05DF804EB890028BF40F8042B11
:1002000008BF704748BF20F8022B11F0804F18BF7D
:1002100000F8012B704770477047704710B500F029
:1002200009F8006810BD10B5044600F003F804603A
:1002300010BD0000004870471002002000487047C1
:10024000100200207546FFF7F9FFAE46050069462B
:10025000534620F00700854618B020B5FFF7A2FFEF
:10026000BDE820404FF000064FF000074FF00008B7
:100270004FF0000B21F00701AC46ACE8C009ACE838
:10028000C009ACE8C009ACE8C0098D46704710B59C
:100290000446AFF300802046BDE81040FFF76DBF75
:1002A00001491820ABBEFEE726000200704700009F
:1002B00070B5044600688168C943C90717D18168D1
:1002C00021F00101816000F009FD05460AE000BF50
:1002D00000F004FD401B022804D920688068C04358
:1002E000C00706D020688068C043C007F0D0002057
:1002F00070BDA06A40F01000A062E06A40F001000A
:10030000E062012070BD10B50146406A826A12F0B9
:10031000500F05D0006A026BBDE810400846104738
:10032000816A41F40071816201688968C1F34241C8
:1003300007290CD1017B51B9816A21F48071816256
:10034000816AC90403D4816A41F00101816200F02D
:100350000BF910BD10B5406A816A41F0400181621D
:10036000C16A41F00401C16200F00FF910BD10B57F
:10037000406A00F009F910BDF8B500260446009661
:1003800000688168C943C9072DD0816841F0010127
:100390008160164816490068B0FBF1F000E0401E8D
:1003A00000900028FBD100F099FC054616E000BF44
:1003B00000F094FC401B022810D920688068C043DC
:1003C000C0070BD0A06A40F01000A062E06A40F0C5
:1003D0000100E06284F824600120F8BD2068806894
:1003E000C043C007E4D10020F8BD00003000002069
:1003F00040420F00FEE70000014800F023BA000071
:100400009400002030B590F840500124AC40C56BFA
:100410006C60046863604368102B036803D09960C4
:100420000068C26030BD9A600068C16030BD70472E
:10043000012000F051BB4FF4805000F04DBB022072
:1004400000F04ABB202000F047BB00000448002118
:100450000180418001713C21024801F0BBBC0000D9
:1004600000000020C801002072B6FEE7F8B50024A5
:10047000009490F824202546012A12D0012280F809
:1004800024204A681F23072A0DD20668776B521E64
:1004900002EB820293409F430B6893401F437763B4
:1004A00019E00220F8BD06680D2A0AD2376BD21F68
:1004B00002EB820293409F430B6893401F433763D4
:1004C00009E0F76A0D3A02EB820293409F430B6802
:1004D00093401F43F7620A68072306680A2A0AD373
:1004E000F7680A3A02EB420293409F438B689340BD
:1004F0001F43F76008E0376902EB420293409F43D5
:100500008B6893401F4337610A68102A01D0112A73
:1005100020D1124B02689A4217D193681B0219D45A
:10052000936843F4000393600968102912D10C49C1
:100530000C4A0968B1FBF2F101EB8101490000E0CE
:10054000491E00910029FBD104E0816A41F020019D
:100550008162012480F824502046F8BD0024014027
:100560003000002040420F0000680549884205D154
:100570000448011F02880A80808848807047000074
:100580000024014018000020704770472DE9F04119
:100590004FF0000704003D467ED0A06A002628B92F
:1005A000E66284F82460204600F07EF82046FFF7DB
:1005B0007FFEA16AC90600D420B1A06A40F01000F5
:1005C000A06269E0A16A21F4885141F00201A162B0
:1005D0006268E169237B0A4347EA43010A43A16851
:1005E0004FF48077B94209D0012907D05FF00001AC
:1005F00094F814C0BCF1010F02D00AE03946F7E7C5
:10060000F3B1A36A43F02003A362E36A43F001035A
:10061000E3622368D3F804C02CF4694C4CEA010C63
:10062000C3F804C021688B68DFF870C003EA0C03CC
:1006300013438B60A168B9420BD0012909D00CE0AB
:10064000DFF85CC0A3690CEB43330B4343F4006158
:10065000DFE7218A0D05A5F580152168CB6A23F413
:1006600070032B43CB62216889680E4B194091427D
:1006700008D1E662A16A21F0020141F00101A16204
:10068000BDE8F081A06A20F0020040F01000A062F6
:10069000E06A40F00100E0620120F1E7FDF7E1FFD0
:1006A00000E0FFFFFE0E1FFF70B586B00026054676
:1006B000009601960296039600681A4988422ED148
:1006C0001949886940F400708861886900F40070F5
:1006D0000490886940F0040088618869694600F0E8
:1006E00004000490032000900190104800F000FAEC
:1006F000104C0F48C4E900068020C4E90260800065
:100700002061800060612020A0610002E06120463D
:1007100000F042F908B1FFF7A7FE2C62656206B04F
:1007200070BD00000024014000100240000801409C
:1007300008000240940000202DE9F0478946044655
:100740003B4900683B4F0E1D9046884201D0B8429D
:1007500007D1306810F4702F03D001252846BDE87A
:10076000F08794F8240001280CD0012084F824009C
:100770002046FFF701FE05004FF0000004D084F88A
:100780002400EBE70220EAE7A16A40F60162914308
:1007900041F48071A1622168B94218D1326812F423
:1007A000702F14D0A16A41F48011A162316849050B
:1007B00005D5A16A21F4005141F48051A162A16ADA
:1007C000C9040AD5E16A21F00601E16206E0A26AE5
:1007D00022F48012A2624968E9E7E06284F824000A
:1007E000216A15488862216A1448C862216A14483F
:1007F000086321686FF0020008602068816841F496
:1008000080718160216843464A464C31206A00F07D
:10081000F1F820688168C1F342410729816803D05B
:1008200041F48011816099E741F4A001FAE70000EA
:100830000024014000280140070300086F0300085E
:10084000550300082DE9F05FC16B0C6801680B6867
:10085000D0F840C0042202FA0CF2494DDFF824A17E
:10086000494E4A4FDFF828B1DFF828E122422CD068
:100870005A072AD50A68920603D40A6822F00402AD
:100880000A600168A94201D1042219E0514501D151
:10089000402215E0B14202D14FF4806210E0B9422B
:1008A00002D14FF480420BE0594502D14FF480222F
:1008B00006E0714502D14FF4800201E04FF0806202
:1008C0002F4908394A60C16A3BE04FF0020808FA34
:1008D0000CF818EA040F4FF000094FF0010235D070
:1008E0005FEA837832D50B689B0605D40B6823F04A
:1008F0000A030B6080F821200168A94201D102227D
:1009000019E0514501D1202215E0B14202D14FF446
:10091000007210E0B94202D14FF400520BE0594589
:1009200002D14FF4003206E0714502D14FF40012BB
:1009300001E04FF00072124908394A6080F82090B7
:10094000816A00291AD0BDE8F05F0847082505FA3A
:100950000CF5254212D01B0710D50B6823F00E03AF
:100960000B6090F84010C36B02FA01F1596082638A
:1009700080F8212080F82090016BE2E7BDE8F09F2D
:10098000080002401C0002403000024044000240C7
:10099000580002406C00024030B528B308C8134923
:1009A00014221944B1FBF2F18900C163104981633B
:1009B000022141771A6843F6F0718A43D0E90014A6
:1009C0002143D0E902452C43214304692143446972
:1009D00021438469214311431960002141630122AD
:1009E00042770177084630BD012030BDF8FFFDBFDA
:1009F0000000024070B5044690F820000025012850
:100A00000CD0012084F8200094F821600020012EF1
:100A100006D084F820000225284670BD022070BD53
:100A2000022684F82160A0632068066826F001068B
:100A300006602046FFF7E6FCE06A002820680168AF
:100A400002D041F00E0106E021F0040101602068AF
:100A5000016841F00A0101602068016841F001016C
:100A60000160D9E770B5044600F038F90546601C0E
:100A700002D004480078044400F030F9401BA04242
:100A8000FAD370BD2400002070B5124C0125202837
:100A90000DD0012810D0022814D0B0F5805F05D108
:100AA00000F01CF9A06204F8245F257270BD00F00C
:100AB00015F960602570F8E700F010F920612573E2
:100AC000257570BD00F00AF9E061257684F82050A4
:100AD00070BD000034000020044910B50A680242CD
:100AE00002D00860FFF7D0FF10BD000014040140E1
:100AF0002DE9F84FDFF8B8910024A9F1040B234643
:100B00000F2709F1040AABF1040EC9E00125A54045
:100B10002A40AA427DD1674ED1F804C0ACEB06084A
:100B2000B44532D014DCBCF1030F3AD009DCBCF17F
:100B3000000F2AD0BCF1010F1CD0BCF1020F31D143
:100B40001DE0BCF1110F17D0BCF1120F2AD119E032
:100B5000B8F5881F19D006DCB8F5803F15D0B8F578
:100B6000801F1FD111E0B8F5001F0ED0B8F5041F8B
:100B700018D10AE0CB6815E0CB681B1D12E0CB68EA
:100B800008330FE0CB680C330CE08B682BB1012BE2
:100B90004FF0080303D0456104E0042302E005613F
:100BA00000E00023FF2A01D8064601E000F1040618
:100BB0004FEA840501D9A5F12005D6F8008007FA8F
:100BC00005FC28EA0C0803FA05F548EA0508C6F80A
:100BD00000804D68ED0062D5374DAE6946F00106E4
:100BE000AE61AD6924F0030605F001050095334DB3
:100BF00006EB050CDCF80850A607360F07FA06F8D6
:100C000025EA0805DFF8B880404503D14FF0000819
:100C100017E044E0DFF8AC80404502D14FF0010816
:100C20000FE0DFF8A480404502D14FF0020808E051
:100C3000DFF89880404502D14FF0030801E04FF003
:100C4000040808FA06F848EA0508CCF808804D6858
:100C5000D9F80060ED024D4601D5164300E09643F9
:100C60002E604D68DAF80060AD02554601D5164396
:100C700000E096432E604D68DBF80060AD035D46F2
:100C800001D5164300E096432E604D68DEF8006003
:100C9000ED03754601D5164300E096432E60641CB3
:100CA0000D682A46E5407FF431AFBDE8F88F0000BB
:100CB0000804014000001110001002400000014033
:100CC00000080140000C01400010014000140140E8
:100CD0000AB1016170470904FBE700000148806820
:100CE000704700002400002070B5040025D094F85F
:100CF0003D00002520B984F83C50204600F014FB4C
:100D0000242084F83D002068016821F00101016081
:100D10002068016841F4004101602068016821F405
:100D20000041016000F0F0FC4D4A6168914201D839
:100D30004C4900E04C49884201D2012070BD4B492A
:100D40002368B0FBF1F15E6826F03F060E435E605B
:100D50006368934206D94FF4967359434FF47A73FC
:100D6000B1FBF3F12368491C1E6A26F03F063143AC
:100D700019626168914210D84900401EB0FBF1F23F
:100D8000521CC2F30B02042A01D2042022E0B0FB61
:100D9000F1F0401CC0F30B001CE0A268F2B301EBC1
:100DA000C10303EB0116431EB3FBF6F35B1C43F4D4
:100DB00080431B0549D092B301EBC10202EB011144
:100DC000401EB0FBF1F0401CC0F30B0040F480402B
:100DD00040F400402168CA694CF6FF739A431043FF
:100DE000C861D4E9071001432068026822F0C002FC
:100DF00011430160D4E9030101432068826848F28D
:100E0000FF339A4311438160D4E905010843216807
:100E1000CA6822F0FF021043C86001E00EE016E04D
:100E20002068016841F0010101602564202084F8F8
:100E30003D00256384F83E50002070BD01EB410663
:100E4000431EB3FBF6F35B1CB3E70120C2E701EBE3
:100E50004101401EB0FBF1F0401CC0F30B00B7E7AE
:100E6000A086010080841E0000093D0040420F0062
:100E70002DE9F84F1F4690468A460446DDF8289033
:100E8000FFF72CFF054694F83D0020287FD1192359
:100E9000012240492046009501F050FA002876D101
:100EA00094F83C00012872D0012084F83C002068AE
:100EB0000168C90703D1016841F0010101602068A0
:100EC000016821F400610160212084F83D001020B8
:100ED00084F83E0000262664C4F824806785608D6F
:100EE00020852D48E0622B464A465146204601F0B7
:100EF000D9F890B9206841698069009036E02A46A7
:100F00004946204601F0F8FA50B1206C042804D17B
:100F10002068016841F4007101600120BDE8F88F8C
:100F2000606A216800780861606A401C6062618DB7
:100F3000491E6185218D491E89B221852268536928
:100F4000DB435B070BD451B100781061606A401C31
:100F50006062608D401E6085208D401E20852A467F
:100F60004946204601F0BEF90028CED1208D002848
:100F7000C5D154F83D0B016841F400710160202097
:100F800004F81E09E67766770020C7E7FFE702202E
:100F9000C4E70000020010000000FFFF2DE9FF4F32
:100FA00083B00025DDE910799A4693460446DDF8C2
:100FB00048800095FFF792FE064694F83D002028F1
:100FC0007CD11923012288492046009601F0B6F908
:100FD0000028F5D194F83C0001286FD0012084F856
:100FE0003C0020680168C90703D1016841F0010194
:100FF00001602068016821F400610160222084F80A
:101000003D00402084F83E0025646762A4F82A90E1
:10101000608D20857548E062CDE9008653465A46CA
:101020002046049901F08CF800287CD1208DDFF84F
:10103000C091202768B1012814D0022820680168D7
:101040001ED041F480610160206841698069009090
:10105000BCE02068416981690091016841F4007138
:101060000160B3E02068016821F48061016072B61C
:101070002068416981690091016841F400710AE0CA
:1010800041F40061016072B6206841698169009194
:10109000016821F48061016062B697E0032865D899
:1010A00001280CD0022843464FF000024946204652
:1010B00000960BD001F042F9A8BB0CE091E032465B
:1010C0004146204601F0E0F968BB72E001F036F9D4
:1010D00048BB72B633E02068016821F4806101608A
:1010E00072B620680069616A0870606A401C6062BC
:1010F000208D401E2085608D401E60853D4846F253
:10110000A8110068B0FBF1F0C0EBC00000EB80005C
:101110000090401E009007D020684069C0434007FF
:101120000DD50098F5E727E044F8305F6773A573A5
:10113000206940F02000206162B625731CE0206821
:10114000016841F40071016020680069616A0870FB
:10115000606A401C6062218D491E2185618D491E97
:10116000618562B621680969017026E03246414610
:10117000204601F089F918B1012007B0BDE8F08FD1
:1011800020680069616A0870606A401C6062208D96
:10119000401E81B22185608D401E608520684269B5
:1011A000D243520712D4032903D1016821F480618C
:1011B000016020680069616A0870606A401C6062B2
:1011C000208D401E2085608D401E6085208D00286A
:1011D0007FF464AF84F83D7084F83E5084F83C504E
:1011E000CBE70220C9E70000020010000000FFFF6B
:1011F00004000100300000202DE9FF4F83B09A4623
:10120000DDE9119793460446DDF84080FFF766FD5F
:10121000054694F83D0020287FD11923012240493A
:101220002046009501F08AF8002876D194F83C0019
:10123000012872D0012084F83C0020680168C907A9
:1012400003D1016841F0010101602068016821F4C7
:1012500000610160212084F83D00402084F83E00B8
:1012600000262664C4F82480A4F82A90608D208586
:101270002C48E062CDE9007553465A462046049951
:1012800000F0DCFF70B930E02A463946204601F014
:1012900033F958B1206C042804D12068016841F466
:1012A00000710160012007B0BDE8F08F606A21681D
:1012B00000780861606A401C6062218D491E89B215
:1012C0002185628D521E628522685369DB435B076C
:1012D0000BD469B100781061606A401C6062208D97
:1012E000401E2085608D401E6085208D0028CBD15A
:1012F0002A463946204600F0F5FF0028CAD154F8A6
:101300003D0B016841F400710160202004F81E09C2
:10131000E67766770020C6E7FFE70220C3E7000014
:10132000020010000000FFFF30B585B000210091E1
:101330000191029103911E4D03681E4C122103225C
:101340001D48AB4216D1A36943F00803A361A3690A
:10135000039203F008030493C023CDE900316946EA
:10136000FFF7C6FBE06940F40010E061E06900F4BB
:10137000001019E0114DAB4217D1A36943F00803E7
:10138000A361A369039203F0080304934FF440633D
:10139000CDE900316946FFF7ABFBE06940F480001E
:1013A000E061E06900F48000049005B030BD000009
:1013B0000054004000100240000C01400058004062
:1013C000024881680278114481607047240000203F
:1013D000074810B5016841F010010160032000F0DA
:1013E00075F8012000F006F800F024F8002010BD88
:1013F0000020024070B50D4D04464FF47A712878F4
:10140000B1FBF0F00A490968B1FBF0F000F042FBD3
:1014100048B9102C07D200222146501E00F036F8A1
:1014200000206C6070BD012070BD00002400002011
:10143000300000200C4808B5816941F0010181614C
:10144000816901F001010091C16941F08051C161E0
:10145000C06900F0805000900448416821F0E061CC
:1014600041F00071416008BD0010024000000140E1
:10147000002809DB00F01F02012191404009800093
:1014800000F1E020C0F8001170470000F0B40E4BEE
:101490001B680C46C3F30223C3F10705042D00D9D2
:1014A0000425191D072901D2002300E0DB1E0126B7
:1014B00006FA05F1491E214099409E40761E1640CD
:1014C0003143F0BC01F0A1BD0CED00E0064900F095
:1014D000070208684FF6FF03184040EA0220034A5B
:1014E00010430860704700000CED00E00000FA05B2
:1014F0002DE9F84305460078354CC00754D0E06923
:101500000026C00008D4E06940F08050E061E06946
:10151000012600F0805000902E480168C90512D4C1
:101520000168804641F480710160FFF7D7FB0746F0
:1015300005E000BFFFF7D2FBC01B642823D8D8F812
:101540000000C005F6D5206A10F4407021D0A988AB
:1015500001F4407181421CD0206A1F49012220F40D
:1015600040700A6000220A602062C00711D0FFF7B5
:10157000B5FB074641F2883808E000BFFFF7AEFB35
:10158000C11B414502D90320BDE8F883206A8007CA
:10159000F4D5206A696820F44070084320621EB1C7
:1015A000E06920F08050E0612878800705D5606808
:1015B000A96820F44040084360602878C00605D53B
:1015C0006068E96820F48000084360600020DBE781
:1015D0000010024000700040400442422DE9F047F4
:1015E0000F46050061D0434E306800F00700B84256
:1015F00009D2306820F0070038433060306800F0CE
:101600000700B84251D128683B4C810712D54007EA
:1016100003D5606840F4E06060602878000703D577
:10162000606840F4605060606068A96820F0F00075
:10163000084360602878C00728D06868012810D067
:101640002168022810D0890700292EDA616821F06C
:10165000030101436160FFF741FB804641F2883995
:101660000DE021688903EFE78901EDE7FFF736FB1D
:10167000A0EB0801494502D90320BDE8F087606866
:10168000696800F00C00B0EB810FEFD1306800F01A
:101690000700B8420BD9306820F0070038433060AB
:1016A000306800F00700B84201D00120E5E7287853
:1016B000400705D56068E96820F4E0600843606091
:1016C0002878000706D56068296920F4605040EA50
:1016D000C100606000F028F86168084AC1F3031196
:1016E000515CC8400649086006480068FFF782FE62
:1016F0000020C2E700200240001002407A410008AA
:10170000300000202800002004480549006849688E
:10171000044AC1F30221515CC840704730000020E8
:10172000001002408A4100080E4A51680E4801F03C
:101730000C03042B11D0082B0FD10C48C1F38343A9
:10174000C903C05C0AD55168084AC1F34041921EE2
:10175000515C054A5043B0FBF1F0704704494843DF
:10176000704700000010024000127A006A41000831
:1017700000093D002DE9F84F040070D02078C04DDD
:10178000C00749D06868C0F38100012807D06868A5
:10179000C0F38100022809D16868C00306D5286813
:1017A000800339D560680028E7D035E06068B0F57F
:1017B000803F0BD010B1B0F5A02F11D0286820F4D5
:1017C00080302860286820F4802002E0286840F4F7
:1017D00080302860606890B1FFF780FA06460AE022
:1017E000286840F480202860F0E700BFFFF776FA11
:1017F000801B642873D828688003F7D50CE0FFF7B6
:101800006DFA064605E000BFFFF768FA801B642802
:10181000F0D828688003F7D420789A4E80074FF0DC
:1018200001094FF0000839D5686810F00C0F07D097
:101830006868C0F38100022809D16868C00306D433
:101840002868800714D52069012808D110E0206994
:10185000B0B1C6F80090FFF741FA074605E00AE18B
:10186000FFF73CFAC01B0228C4D828688007F7D5C8
:101870002868616920F0F80040EAC10028600DE0A6
:10188000C6F80080FFF72AFA074604E0FFF726FAB9
:10189000C01B022823D828688007F7D420780007C7
:1018A0002CD57948A169D9B1C0F80090FFF716FA94
:1018B000074604E0FFF712FAC01B02280FD8686A37
:1018C0008007F7D571484FF4FA510068B0FBF1F08A
:1018D000009000BF0098411E0091FAD20EE080E017
:1018E000C0F80080FFF7FAF9074604E0FFF7F6F9C1
:1018F000C01B022875D8686A8007F7D42078400793
:1019000060D5E8690027C00008D4E86940F080503D
:10191000E861E869012700F0805000905C480168A8
:10192000C90513D40168834641F480710160FFF753
:10193000D5F9824606E000BFFFF7D0F9A0EB0A0018
:1019400064284ED8DBF80000C005F5D5E068012812
:101950000AD008B1052813D0286A20F001002862B7
:10196000286A20F0040002E0286A40F001002862A2
:10197000E06841F2883B98B1FFF7B0F982460BE08E
:10198000286A40F004002862EEE700BFFFF7A6F9DE
:10199000A0EB0A0159455AD8286A8007F6D50CE011
:1019A000FFF79CF9824605E0FFF798F9A0EB0A01E2
:1019B00059454CD8286A8007F6D41FB1E86920F051
:1019C0008050E861E06988B36968C1F38101022948
:1019D00044D00228C6F8608004D0FFF77FF904469F
:1019E00038E034E0FFF77AF9074604E0FFF776F9CC
:1019F000C01B02282BD828688001F7D4206AB0F5D4
:101A0000803F05D16868A16820F400300843686011
:101A1000D4E908010843696821F474110843686037
:101A2000C6F86090FFF75AF9044606E025E000BFCB
:101A3000FFF754F9001B022809D828688001F7D560
:101A40001BE000BFFFF74AF9001B022802D9032060
:101A5000BDE8F88F28688001F4D40EE00128F7D0A3
:101A60006868226A00F48031914204D1616A00F40E
:101A70007010884201D00120EAE70020E8E700006A
:101A80000010024000004242800442423000002028
:101A90000070004010B5401EB0F1807F01D30120DE
:101AA00010BD4FF0E02460610F21601701F0ADFA26
:101AB0000020A06107202061002010BD10B590F823
:101AC0003C20012A22D0012280F83C20CA688C6880
:101AD00022F4407222434C6822F4806222430C6854
:101AE00022F4006222430C6922F4805222434C69A2
:101AF00022F400522243C969002322F480420A439F
:101B000001684A6480F83C30002010BD022010BDFE
:101B100070B590F83C20012A26D0012480F83C4082
:101B2000022280F83D2003685A689D6822F0700602
:101B30000A6832435A600D4B02689A4208D0B2F1EB
:101B4000804F05D00A4B9A4202D00A4B9A4204D1E8
:101B5000496825F080031943916080F83D400021D9
:101B600080F83C10084670BD022070BD002C01407A
:101B7000000400400008004010B5040003D094F8B1
:101B80003D0010B107E0012010BD002084F83C00AA
:101B9000204600F01FF8022084F83D00211D206837
:101BA00001F0FEF8012084F8460084F83E0084F835
:101BB0003F0084F8400084F8410084F8420084F833
:101BC000430084F8440084F8450084F83D00002078
:101BD00010BD000008B500680649884208D10648D3
:101BE000816941F400618161806900F400600090C6
:101BF00008BD0000002C01400010024070B50446F2
:101C000090F83C000025012817D0012684F83C609C
:101C1000022084F83D002068826822F0770222F4D6
:101C20007F4282600868502838D00DDC20284FD0D1
:101C300005DC90B3102811D14AE0022070BD302895
:101C400046D040280AD13BE060282FD070280DD024
:101C5000B0F5805F03D0B0F5005F12D0012584F8A5
:101C60003D60002084F83C00284670BDCB68D1E977
:101C70000121206801F0DDF82068816841F07701DA
:101C800009E0CB68D1E90121206801F0D2F8206891
:101C9000816841F480418160E1E719E0CA684968E0
:101CA000206801F07BF95021206806E0CA68496885
:101CB000206801F084F96021206801F0C4F8CEE7C3
:101CC000CA684968206801F069F940212068F4E792
:101CD000226801461046F0E72DE9F0410D46040068
:101CE00003D094F83D0018B108E00120BDE8F08170
:101CF000002084F83C00204600F040F8022084F8E0
:101D00003D002068816844F2070291438160211DF3
:101D1000206801F045F8226890689169166A2B687E
:101D2000AF69034340F20330814341EA0721A868C9
:101D3000EF6908434FF6FC418843E96840EA072011
:101D4000014328692F6A000140EA073008436968A7
:101D50006D6926F0220646EA05152943936022683C
:101D6000906154F8460B0162012004F81F09E075E8
:101D70002076E0762077A0750020B7E700B585B023
:101D80000021009101910291039100680E4988425F
:101D900018D10E48C16941F00201C161C16901F069
:101DA00002010491816941F0040181618069694601
:101DB00000F004000490C02000900120029004482C
:101DC000FEF796FE05B000BD000400400010024082
:101DD0000008014070B590F83E60044690F83F500E
:101DE00090F8423090F84320022021B104290ED00F
:101DF000012E1BD114E0012E18D1012B16D184F82D
:101E00003E0084F8420001220021206820E0012DDC
:101E10000CD1012A0AD184F83F0084F8430014E071
:101E2000012D03D1012B01D1012A01D0012070BD68
:101E300084F83E0084F83F0084F8420084F84300B0
:101E400001220021206800F0E7FF01220421206820
:101E500000F0E2FF2068016841F00101016000200C
:101E600070BD000000B585B0002100910191029184
:101E7000039100680B49884212D10B48816941F0F7
:101E8000040181618069694600F0040004904FF408
:101E9000807000900220019003900448FEF728FE15
:101EA00005B000BD002C01400010024000080140B8
:101EB00070B5044690F83C0000260D4601280FD06E
:101EC000012084F83C006AB1042A1DD0082A2FD0D2
:101ED0000C2A3FD00126002084F83C00304670BD1B
:101EE000022070BD206800F0B7FF2068816941F0D2
:101EF000080181612068816921F004018161206805
:101F000081692A69114311E0206800F0CDFF206843
:101F1000816941F4006181612068816921F48061F7
:101F20008161206881692A6941EA02218161D2E7E1
:101F3000206800F0E5FF2068C16941F00801C16137
:101F40002068C16921F00401C1612068C1692A6962
:101F5000114311E0206800F0FFFF2068C16941F4DF
:101F60000061C1612068C16921F48061C16120689C
:101F7000C1692A6941EA0221C161ACE710B50400D8
:101F800003D094F83D0010B107E0012010BD0020FF
:101F900084F83C00204600F01EF8022084F83D0042
:101FA000211D206800F0FCFE012084F8460084F822
:101FB0003E0084F83F0084F8400084F8410084F833
:101FC000420084F8430084F8440084F8450084F813
:101FD0003D00002010BD704710B50446022249B1F3
:101FE00004290ED0082913D094F84100012816D0F6
:101FF000012010BD94F83E000128F9D184F83E205C
:102000000FE094F83F000128F2D184F83F2008E067
:1020100094F840000128EBD184F8402001E084F8D6
:1020200041200122206800F0F7FE0F492068884215
:1020300003D1426C42F4004242642068884208D0D6
:10204000B0F1804F05D00949884202D00849884242
:1020500004D1816801F00701062903D0016841F02D
:1020600001010160002010BD002C0140000400406F
:1020700000080040FEE701684A69D24352050FD4C8
:102080006FF480624A61002140F8301F20224273C1
:102090008173026942F004020261017301207047FA
:1020A00000207047F8B50446C06A1E460D46174624
:1020B000082807D0012805D010F5803F02D0206BFA
:1020C000122804D12068016841F480710160134630
:1020D00000224FF001112046009600F02FF940B188
:1020E00020680068C00502D54FF40070206403200A
:1020F000F8BD2069B0F5804F0ED00620216800EAB7
:10210000D51040F0F000086133463A460B492046AE
:1021100000F05CF978B902E005F0FE0000E0E8B2FA
:1021200021680861054933463A46891F204600F078
:102130004DF90028DCD00120F8BD000008000100A6
:102140002DE9F84F0446006889460B9D01689846C2
:10215000174641F4806101602068016841F4807194
:10216000016000954FF0011B0022594620460A9B52
:1021700000F0E4F84FF4007A40B120680068C00530
:1021800001D5C4F840A00320BDE8F88F216809F00C
:10219000FE0008612B46284920460A9A00F016F9ED
:1021A000F0BB20684169806900902A4620460A9960
:1021B00000F0A2F940B1206C04283AD120680168EF
:1021C00041F40071016034E0FEB2B8F1010F09D0B2
:1021D0002168380A08612A4620460A9900F08CF9DD
:1021E0000028E8D1206806612A4620460A9900F0B6
:1021F00083F90028DFD12068016841F48071016013
:1022000000950022594620460A9B00F097F80028C6
:10221000B3D1216809F0FF0040F00100086100E03F
:1022200007E02B46044920460A9A00F0CFF8002820
:10223000AAD00120A8E70000020001002DE9F84320
:10224000044600680D46DDE9089701689846164681
:1022500041F4807101604B4600224FF0011120468D
:10226000009700F06BF848B120680068C00502D5FF
:102270004FF4007020640320BDE8F883216805F066
:10228000FE0008613B464A461549204600F09EF88C
:1022900088B920684169806900903A4649462046DD
:1022A00000F02AF948B1206C042804D120680168A4
:1022B00041F4007101600120DEE7F5B2B8F1010FD1
:1022C00009D02168300A08613A464946204600F0A4
:1022D00013F90028E7D1206805610020CCE7000051
:1022E0000200010070B516460D4604461EE0204669
:1022F000FFF7C1FE08B1012070BD681C16D0FEF7C3
:10230000EDFC801BA84200D885B920684069C04315
:1023100040070BD5002044F8300F20216173A073D3
:10232000216941F0200121612073E4E720684069C0
:10233000C0434007DBD4002070BD00002DE9F0470A
:10234000984617460D460446C1F30746DDF820902F
:102350002AE000BFB8F1FF3F26D0FEF7BFFCA0EB9C
:102360000901414502D8B8F1000F1DD12068012EA6
:1023700016D0806925EA00000004000C12D000206D
:10238000B84211D1002044F8300F20216173A073AE
:10239000216941F02001216120730120BDE8F0870F
:1023A0004069E7E70120EBE72068012E0AD0806949
:1023B00025EA00000004000C06D00020B842C9D075
:1023C0000020EBE74069F3E70120F7E72DE9F0474C
:1023D000984616460D4604464FF000094FF0200A75
:1023E000C1F3074723E020684069C043400515D486
:1023F0002068016841F40071016021686FF4806019
:102400004861C4F8309084F83DA084F83E90216C77
:1024100041F00401216484F83C9021E0701C06D056
:10242000FEF75CFCA0EB0800B04203D816B1012F08
:102430001FD021E02068012F15D0806925EA000017
:102440000004000C18D000BF44F8309F84F80DA0A1
:1024500084F80E90216941F02001216184F80C90EC
:102460000120BDE8F087406925EA00000004000C67
:10247000EAD12068406901E02068806925EA00000F
:102480000004000CAFD1ECE72DE9F04100259046A7
:102490000E460446202728E04069C043C0060CD4FD
:1024A00054F8301B6FF01000486144F810596777FA
:1024B000A577206A2062257714E0FEF70FFCA0EBD9
:1024C0000800B04200D886B920684069C043400681
:1024D0000BD544F8305F6773A573206940F0200086
:1024E000206125730120BDE8F08120684169C9435E
:1024F0004906D1D40020F6E770B516460D460446CD
:102500001EE02046FFF7B7FD08B1012070BD681C32
:1025100016D0FEF7E3FB801BA84200D885B92068DF
:102520004069C04300060BD5002044F8300F20213D
:102530006173A073216941F0200121612073E4E7F8
:1025400020684069C0430006DBD4002070BD000055
:10255000054864210088484340F6FF71B0FBF1F064
:10256000C0F16400C0B27047140000202DE9FC41A6
:1025700005462348811ECDE90010841C031F221D3F
:10258000A11C801C00F040F8B4F9000001F094F8A0
:102590006FF00D08414601F0ACFA0746B4F90200AD
:1025A00001F08AF8414601F0A4FA0646B4F90400A5
:1025B00001F082F8414601F09CFA0446014601F020
:1025C00093F880463146084601F08EF8414600F007
:1025D0002DFF00F015FF0146384600F02DFD094F94
:1025E000394601F081F828602146304600F024FD8C
:1025F000394601F079F868600020A860BDE8FC81E8
:102600000A000020333365422DE9F04387B01546B8
:10261000DDE90E890E4607464FF0FF320E2103A872
:102620008DE807001C4601233B22D0210F48FEF70E
:10263000B5FCBDF80C0040BA3880BDF80E0040BAB9
:102640003080BDF8100040BA2880BDF8140040BAB0
:102650002080BDF8160040BAA8F80000BDF81800A8
:1026600040BAA9F8000007B0BDE8F0832C010020B3
:10267000FEB500F023F8682801D00120FEBD00243B
:1026800001260C4D671E00BF05EB4400401C8DE881
:10269000C10015F814200123D0210748FEF7ACFD36
:1026A0000520FEF7DFF9641CE4B2052CECD3002012
:1026B000FEBD00005E4100082C0100201FB5012175
:1026C0004FF0FF3203A88DE807000B467522D0219A
:1026D0000348FEF763FC9DF80C0004B010BD000039
:1026E0002C010020FEB500241848009401941649DE
:1026F0000294016089158160012505730475022625
:1027000006614FF460214460C161FDF73FFF08B1ED
:10271000FDF7AAFE07200094CDE9015069460B4859
:10272000FDF7A4FE08B1FDF79FFECDE9005669460E
:102730000648FDF79BFE08B1FDF796FE022204490C
:102740000248FDF7F9FFFEBD0024014064000020AF
:1027500018000020094808B5416941F001014161B4
:102760004069002200F00100009011460B20FEF7A6
:102770008DFEBDE808400B20FEF77ABE0010024037
:10278000F0B585B00025394800950195029503956F
:10279000816941F010018161816901F010010491AA
:1027A000816941F020018161816901F0200104917A
:1027B000816941F004018161816901F004010491A2
:1027C000816941F0080181618069294F00F00800AA
:1027D0000490012241F604613846FEF779FA04209C
:1027E00001248DE83100694638460394FEF780F9EC
:1027F000204E2020CDE90006694602943846FEF7B7
:1028000077F941F20300CDE90006694602941A48BF
:10281000FEF76EF94FF4F0508DE83100032003907D
:1028200069463846FEF764F9002202210620FEF7C9
:102830002DFE0620FEF71CFE002202210720FEF7D7
:1028400025FE0720FEF714FE002202211720FEF7C6
:102850001DFE1720FEF70CFE002202212820FEF7A5
:1028600015FE2820FEF704FE05B0F0BD0010024062
:102870000008014000002110000C01400D4810B577
:102880000B4901600C49416000214FF48042816096
:10289000C0E9031241618161C1610162FEF724FA5E
:1028A000002803D0BDE81040FDF7DEBD10BD0000DC
:1028B00000540040D8000020A08601000D4810B54B
:1028C0000B4901600C49416000214FF48042816056
:1028D000C0E9031241618161C1610162FEF704FA3E
:1028E000002803D0BDE81040FDF7BEBD10BD0000BC
:1028F000005800402C010020A086010010B596B0C1
:1029000000240F9410941194129413941C2108A87D
:102910001494FDF759FC20216846FDF755FC294821
:10292000274901604721C0E9011444F61F61C0E94D
:10293000031444618461FFF71FF908B1FDF794FDAA
:102940004FF480500F900FA91E48FFF757F908B1B8
:10295000FDF78AFD1B48FFF711FB08B1FDF784FD69
:10296000139413A917481494FFF7D2F808B1FDF790
:102970007BFD6020089040F2DC50CDE909040B9407
:102980000C940D94002208A90E480E94FFF790FABB
:1029900008B1FDF769FD00944FF40050CDE9044003
:1029A000029401940394694606480794FFF786F859
:1029B00008B1FDF759FD0348FFF754FA16B010BDF2
:1029C000002C01408001002010B58CB02421684605
:1029D000FDF7FAFB00241648099414490A94C0E94B
:1029E00000144FF6FF71C0E90241046184610120C7
:1029F000CDE90004CDE902040F210491CDE90540A1
:102A0000CDE9074169460A48FFF766F908B1FDF7C5
:102A10002BFD099409A906480A94FFF779F80028C4
:102A200001D0FDF721FD0CB010BD000000040040F6
:102A3000C8010020FEE7FEE770B500240021204613
:102A400000F05EF80025002000F032F96D1CEDB2B8
:102A5000802DF8D3641CE4B2082CEFD370BD10B500
:102A6000AE2000F015F9D52000F012F9802000F01A
:102A70000FF9A82000F00CF93F2000F009F9D3204D
:102A800000F006F9002000F003F9402000F000F902
:102A9000A12000F0FDF8C82000F0FAF8DA2000F0DC
:102AA000F7F8122000F0F4F8812000F0F1F8CF20C0
:102AB00000F0EEF8D92000F0EBF8F12000F0E8F893
:102AC000DB2000F0E5F8302000F0E2F8A42000F070
:102AD000DFF8A62000F0DCF88D2000F0D9F81420F3
:102AE00000F0D6F8AF2000F0D3F8BDE81040FFF7B3
:102AF000A3BF0246012000E05043491EFCD27047AC
:102B000010B50C4640F0B00000F0C2F8102040EACA
:102B1000141000F0BDF804F00F00BDE8104000F004
:102B2000B7B800002DE9F0410746CE004000083E4E
:102B3000801E15464FF0FF38F1B2C0B2FFF7E0FF3C
:102B40001148002400EB05152819A0F5805090F8D5
:102B5000000E00F0ADF8641CE4B2082CF4D308EBCE
:102B60004700F1B2C0B2FFF7CBFF00242819A0F54F
:102B7000805090F8080E00F09BF8641CE4B2082C1A
:102B8000F4D3BDE8F08100006E3B00082DE9F04170
:102B90001D4617460E468046002415E0291B1020CE
:102BA000491EFFF7A6FFB7FBF0F000F00F0206EB9F
:102BB0000400C1B20A2A404601D2303200E0373266
:102BC000FFF7B0FF641CE4B2AC42E7D3BDE8F0818C
:102BD0002DE9F04700241D461646884681460A27FF
:102BE00013E0291B0A20491EFFF783FFB6FBF0F014
:102BF000B0FBF7F107FB110208EB0400C1B2484635
:102C00003032FFF78FFF641CE4B2AC42E9D3BDE879
:102C1000F0872DE9F0471E4614008846814604D40B
:102C20002B22FFF77FFF254603E02D22FFF77AFFD7
:102C3000654200240A2714E0311B0A20491EFFF7D1
:102C400058FFB5FBF0F0B0FBF7F107FB110208EB02
:102C50000400401CC1B248463032FFF763FF641CD9
:102C6000E4B2B442E8D3BDE8F0872DE9F04115465F
:102C70000E460746002406E03019C1B23846FFF779
:102C800051FF641CE4B22A5D002AF5D1BDE8F08151
:102C90001CB5002101918DF80500481E009002230B
:102CA00001AA78210148FEF7E3F81CBDD8000020F6
:102CB0001CB507A10223096801918DF805004FF0AA
:102CC000FF30009001AA78210248FEF7D1F81CBD20
:102CD00040000000D80000207047704710B5002168
:102CE0000348FFF779F9BDE810405A2000F002B818
:102CF00080010020B42800D9B4204FF4FA61414388
:102D0000B422B1FBF2F1044A01F5FA7189B21268FA
:102D100051630249087070478001002020000020A4
:102D2000FEF74EBB30B593B028216846FDF74CFA4C
:102D300014210AA8FDF748FA002501200F951095E7
:102D40001195010412958DE8230004904FF4E010D2
:102D5000CDE90810022407946846FEF70BFD08B180
:102D600072B6FEE70AA90F2081E831004FF48060B7
:102D7000CDE90D0502210AA8FEF730FC08B172B6B4
:102D8000FEE74FF4004011900F940FA8FEF7B0FB40
:102D9000002801D072B6FEE713B030BD70470000C6
:102DA000F0B50268194B1A4C1A4D4FF08047984203
:102DB00005D0B84203D0A04201D0A84203D122F0EE
:102DC00070064A683243984205D0B84203D0A04208
:102DD00001D0A84203D122F44074CA6822434C694E
:102DE00022F08002224302608A68C2620A6882621C
:102DF000984201D109690163012141610169C90753
:102E000003D0016921F001010161F0BD002C0140F6
:102E1000000400400008004010B501F01F0301212C
:102E2000046A99408C430462016A9A40114301622A
:102E300010BD10B5846842EA032224F47F440A439B
:102E40002243826010BD826822F070020A4342F081
:102E5000070181607047000030B5036A026A22F002
:102E6000010202624268846924F073050C682C43F5
:102E700023F002058B682B430A4DA8420BD123F0A7
:102E80000805CB6822F440722B434D6923F00403FC
:102E900015438A692A434260846149684163036239
:102EA00030BD0000002C014030B5026A036A23F0F7
:102EB00010030362436884690D6824F4E64444EA1D
:102EC00005248D6822F0200242EA05120B4DA8422B
:102ED0000ED1CD6822F0800242EA05124D6923F43A
:102EE000406343EA85038D6922F0400243EA85038B
:102EF0004360846149688163026230BD002C0140F7
:102F000030B5036A026A22F4807202624268C469C0
:102F100023F4007324F073050C682C438D6843EA96
:102F200005230C4DA8420ED1CD6823F4006343EA7B
:102F300005234D6922F4405242EA05128D6923F4BB
:102F4000806342EA05124260C4614968C16303625A
:102F500030BD0000002C014030B5046A026A22F442
:102F6000805202624268C3690D6823F4E64343EA73
:102F700005238D6824F4005444EA0534064DA84224
:102F800004D14D6922F4804242EA85124260C36155
:102F900049680164046230BD002C014010B5036A29
:102FA000046A24F001040462846924F0F00444EA11
:102FB000021423F00A020A438461026210BD10B5B4
:102FC000036A046A24F010040462846923F0A003F5
:102FD00024F4704444EA023243EA0111826101623E
:102FE00010BDFEE74100080218BF04200A0E18BFFA
:102FF00040F001004FF07F4232EA010108BF40F08B
:103000000200012808BF052070470907090E0028A3
:1030100004DB00F1E02080F80014704700F00F009E
:1030200000F1E02080F8141D704700F0FFB96FF048
:103030005E01080700F05DBD2DE9F0474FF06842E2
:1030400002EB40030C460546B3F1654F3CBF02EB73
:103050004102B2F1654F80F0CD8000BFC0F3C7528E
:10306000C1F3C753D21A1B2A06DD10F0004F14BF5C
:1030700087488848BDE8F08712F11A0F2FDA11F05F
:10308000004F06D010F0004F0CBF83488348BDE8C6
:10309000F0872146284600F031FA0646FFF7A2FFE6
:1030A000042808BFFFF7C3FF2846FFF79BFF05462C
:1030B0002046FFF797FF04463046FFF793FF042DA5
:1030C00018BF052D08D1042C18BF052C04D10028E9
:1030D00004BF0220FDF7A7F83046BDE8F0874200A4
:1030E000B2EB410F25D910F0004F19BF6C4F6D4E58
:1030F0006D4F6E4E224685F0004415460A4680F01C
:10310000004110460A1A5200B2F1807F3ED2484078
:103110006749DFF8A0A110F0004F18D04FF03F48EA
:10312000384600F03FFC07465146304600F03AFC76
:1031300017E011F0004F04BF00263746E2D010F030
:10314000004F19BF5C4F5D4E5D4F5E4EDAE74FF0AA
:103150007C58384600F06AF907465146304600F080
:1031600065F906464146284600F0BEFA214600F0C1
:103170005DF982462146404600F0B6FA294600F045
:103180007FFB514600F0BAF9044604E02146284688
:1031900000F0B4F90446014600F0A6FA80464A4918
:1031A00000F0A2FA494900F041F9414600F09CFACA
:1031B000474900F03BF9414600F096FA454900F0D6
:1031C00035F9414600F090FA434900F02FF90546E1
:1031D0004146204600F088FA294600F085FA31463B
:1031E00000F024F9214600F021F93946BDE8F04706
:1031F00000F01CB94FF07F42B2EB400F28BFB2EB9A
:10320000410F03D2BDE8F047FFF70FBF40EA0103CB
:103210005B0008BF44F0FF410AD0B2EB400F08BF8B
:10322000B2EB410F06D125F0804024F080410546E5
:103230000C4613E7B2EB400F12BF5FEA410345F0C3
:10324000FF4004F000413FF409AFB2EB410F12BF61
:103250005FEA400205F0004044F0FF413FF4FEAE5B
:103260004A0092EA40033FF5F9AE002AACBF4FF0A6
:103270009F464FF03E56314600F036FA054631463D
:10328000204600F031FA044628462146E6E60000D2
:10329000DB0FC9BFDB0FC93FDB0F4940DB0F49C064
:1032A0000000C9BF22AAFDB90000C93F22AAFD390A
:1032B0000060ED3EC30ACE37000049C022AA7DBAA5
:1032C0000000494022AA7D3A2DAD65BD8FB8D53D9D
:1032D0000FB511BE61C84C3EA8AAAABE0EB55A24AD
:1032E000FEF776F8FFF71EFDFFF74AFAFFF732FA0E
:1032F000FFF7C4FAFFF768FBFFF7F4F9FFF7DEFA10
:10330000FFF7FCFAFFF7ABFBFFF7E8FCFDF79EF8D1
:10331000FFF7AEF90546FFF78FFB7DB101212BA228
:103320000846FFF7A2FCFFF7C9F902230246012174
:103330001846FFF72BFCFEE7002401E0641CE4B212
:103340002046FFF7D7FC6846FFF710F923A20121BA
:103350000220FFF78AFCFFF7FBF802460323072150
:103360000220FFF735FC1FA20A210220FFF77DFC97
:103370001DA201210320FFF778FC009800F080F9DE
:1033800002B2032307211846FFF743FC18A20121CC
:103390000420FFF76AFC019800F072F902B20323DF
:1033A00006210420FFF735FC012113A20846FFF790
:1033B0005CFC0323224607210520FFF709FC32208D
:1033C000FDF750FBB42CB9D9B6E700004D50553687
:1033D000303530204572726F722100004C69676889
:1033E000743A00002500000050697463683A0000D8
:1033F000526F6C6C3A000000616E676C653A0000B9
:1034000070B5054600F046FA044620F00040C0F1D1
:10341000FF40C00F08D025F00040C0F1FF40C00FB2
:1034200004BF0120FCF7FFFE204670BD90EA010FAB
:1034300048BF81F0004100F1BC82421A3CBF801AB3
:1034400089184FEAD0524FF07F4C1CEA410FA2EB93
:10345000D15318BF9CEA026F00F03B804FF0004C44
:103460004CEA00204CEA012121FA03FC10EB0C0C81
:103470001ED202F1FF325FEA1C2040EBC25038BF7F
:1034800070471CF07F0F4FEA400C18BFBCF17F4F14
:1034900038BF7047C3F12003994008BF20F00100F6
:1034A000BCF17F4F38BF7047A0F1C04000F0E3B9D6
:1034B0004FEA3C00000A40EBC25028BF1CF0FF0F4F
:1034C0004FEA400CE6D018BFBCF17F4F38BF7047C1
:1034D000EAE79CEA026F05D010EA5C0F08BF00F033
:1034E0000040704710B500F080F900BF64FBBE3E9D
:1034F000014800F0CCBA00BF0000C07F4FF47F0C41
:103500001CEAD0121EBF1CEAD11392EA0C0F93EAF8
:103510000C0F00F0858090EA010F48BF42F48072E2
:1035200040F4000C41F400002CF07F4120F07F407B
:1035300000B58142A2EB03020FF2081CACEB504E27
:10354000C0F100009EF800E04FEA4E0E00FB0EFCBA
:1035500038BF49004FEA2C1C02F5FA020CFB0EF3AF
:103560004FEACE1E4FEA112C4FEAC1210EEB635EEB
:1035700042EB22420EFB0CFC4FEA1C5300FB0311F2
:103580004FEA112C4FEA01310EFB0CFC4FEADC4CE8
:1035900000FB0C11C14228BF09184CEB03335DF846
:1035A00004EB10EB410143EBC250B2F57C0F38BF86
:1035B000704729D512F0F00F1CBF00F1C04000F099
:1035C00000407047008182838485868788898B8C40
:1035D0008D8E8F919293959697999A9C9D9FA0A27C
:1035E000A3A5A7A8AAACAEB0B2B3B5B7B9BCBEC0CC
:1035F000C2C5C7C9CCCED1D4D7D9DCDFE2E6E9EC6D
:10360000F0F3F7FAFE0000004FEA400C0CF1807C6A
:10361000BCF17E4F28BF7047B0F1C04000F02BB91D
:1036200090EA010F0CEAD11348BF42F48072624560
:1036300038BF634507D213F47F0F16D080EA01002C
:1036400000F00040704710B500F0CFF8097EFC3E56
:1036500000F005B880EA010000F00040704780EA01
:10366000010000F0004000F006B912F47F0F04BF23
:103670000248704780EA010000F0FDB80000C07FFA
:1036800041000B0ED3F19E0208D950F400034FEA1B
:10369000032323FA02F048BF4042704710B500F000
:1036A000A4F800BF49922480002070476FF00042C8
:1036B00082EA20007047000010F0004148BF4042FD
:1036C000B0FA80F310FA03F2C3F19D030BD051EA74
:1036D000C35101EB1220530638BF704700F10100BF
:1036E00008BF20F0010070474FF47F0C1CEAD01295
:1036F0001EBF1CEAD11392EA0C0F93EA0C0F00F0E4
:10370000478090EA010F48BF42F480724FF0004CAE
:103710004CEA00204CEA012102EB0302A0FB01135A
:10372000A2F50002002918BF43F001035B0028BF87
:103730004FEA330342EB22425FEA132C4CEBC250B8
:103740002EBFBCEB436FB2F57C0F70474FEA036CA2
:10375000BCF1004F08BF20F00100B2F57C0F38BF6C
:1037600070470BD582F0FF0212F5803FC8BF70474B
:1037700000F1C040D8BF00F00040704700F5000CD9
:103780005FEA4C0C48BF7047B0F1C04000F073B81E
:1037900090EA010F0CEAD11348BF42F480726245EF
:1037A00038BF634504D280EA010000F00040704752
:1037B00010B500F01AF800BF8900013E00F007B80C
:1037C00000F009B85FEA410C5FEA1C6C08D080EA9F
:1037D000010000F050B85FEA400C5FEA1C6CF6D1C3
:1037E0004FF00040A0F5800070470EF1020E2EF061
:1037F000030E5EF8044B244204D44FEA4102B2F1B6
:103800007F4F11D84FEA4003B3F17F4F0CD80ED150
:103810004FEAD07CB2F17F4F0CEB4C0C0CF1020C58
:1038200008BF4CEBD17C04E04FF0080C01E04FEAFC
:10383000D17C0CEB4C0324FA03F404F00704B4F13C
:10384000040C06D20EEB840CBDE810404CF0010CC9
:103850006047DFE80CF0070802024FF00040A0F5D7
:10386000800010BD0846420018BFD2F1807288BFA8
:1038700000F0004010BDFF2141EAD050C005704764
:1038800080F0004090EA010F7FF5D7AD81F0004154
:1038900000F08FB84FEAD051002988BFD1F1FF0264
:1038A00040F2758001F17D014FEA002070B54908B2
:1038B00040F0004038BF40080EA2430E040CD25C1A
:1038C00002FB02F304FB03F3C3F14043A3FB0254E6
:1038D000ED0D45EA442202FB02F3A0FB03546D42C6
:1038E000C4F1404438BF641EA2FB05350023E2FB4F
:1038F0000453EA0B42EA4342A0FB023212F14004B5
:10390000A2F12103E40903F07F031F2B32D904EB5A
:10391000C15070BDFEFAF7F3F0ECE9E6E4E1DEDC5D
:10392000D9D7D4D2D0CECCCAC8C6C4C2C1BFBDBC00
:10393000BAB9B7B6B4B3B2B0AFAEACABAAA9A8A788
:10394000A6A4A3A2A1A09F9E9E9D9C9B9A99989796
:10395000979695949393929190908F8E8E8D8C8C58
:103960008B8A8A89898887878686858484838382EF
:103970008281818004FB04F6B6EB004603D5E64263
:1039800048BF641CC3E7A64258BF641CBFE711F0E0
:10399000FF0F02D100F00040704710B5FFF725FF80
:1039A0007FDBFFBE90EA010F48BF81F000413FF589
:1039B00044AD421A04D882F00042A0EB0200114448
:1039C0004FEAD0524FF07F4C1CEA410FA2EBD1538B
:1039D00018BF9CEA026F4AD04FF0004C4CEA00201E
:1039E0004CEA012121FA03FCB0EB0C0C0FD412F0CD
:1039F000FE0F36D05FEA4C001DD5001240EBC250DE
:103A000038BF70471CF03F0F18BF70470BE0A2F1A2
:103A100001025FEA1C2040EBC25038BF70471CF027
:103A20007F0F18BF7047C3F12003994014BF401E99
:103A300020F00100704780084FEA122308BF70474A
:103A4000B0FA80FCA2EB0C02CCF1280C60FA0CF06E
:103A500093EA122F04BF00EBC25070474FEAC370C5
:103A60007047130A5FEADC1008BF7047F6E79CEA6C
:103A7000026F04D010EA5C0F08BF0020704710B539
:103A8000FFF7B3FE40DFF63E81F0004070470CF0D8
:103A90000F03092B08BF082000F051800A2B0BD020
:103AA000082B18BF704708BF1CF0400F0AD04FF01A
:103AB00000004FF0000170471CF0400F18BF4FF09E
:103AC000004070471CF0100F08D020F0704300F049
:103AD0007F4242EAD3014FEA4370704700F06040F2
:103AE00021F07F4242EA000201F07F4040EA72701A
:103AF00070474FF0FF0212EAD0521CBF92F0FF0352
:103B00008B42C2BFD14200EBC1507047002A0AD09D
:103B1000002B0BD0002900F00040A4BF40F0FE4075
:103B200040F40000704700F00040704743024FF03F
:103B30000B0C18BF4CF0806C7FF4DAAC70471CF4AF
:103B4000801F11D01CF4E02F03D06FEACC31490064
:103B500070474FF04050EFF3008222F0704242EA8B
:103B6000000282F3008870474FF0000070470000A9
:103B70000000000000000000000000000000000045
:103B800000F80000000000000033300000000010CA
:103B90000C06100C0600000000000000000040C0F1
:103BA0007840C0784000043F04043F0404000070E3
:103BB00088FC08300000001820FF211E0000F008DB
:103BC000F000E018000000211C031E211E0000F080
:103BD0000888700000001E212324192721101016C8
:103BE0000E000000000000000000000000000000C7
:103BF00000E0180402000000000718204000000246
:103C00000418E000000000402018070000004040B9
:103C100080F0804040000202010F0102020000001B
:103C200000F0000000000101011F0101010000007F
:103C300000000000000080B07000000000000000E4
:103C4000000000000000000101010101010100006D
:103C50000000000000000030300000000000000004
:103C6000000080601804006018060100000000E0F9
:103C700010080810E000000F102020100F000010A6
:103C800010F8000000000020203F202000000070FD
:103C900008080888700000302824222130000030F5
:103CA0000888884830000018202020110E000000ED
:103CB000C02010F8000000070424243F240000F86E
:103CC0000888880808000019212020110E0000E053
:103CD000108888180000000F112020110E000038F5
:103CE0000808C83808000000003F0000000000700D
:103CF000880808887000001C222121221C0000E096
:103D000010080810E0000000312222110F0000000E
:103D100000C0C000000000000030300000000000C3
:103D20000080000000000000806000000000000033
:103D300080402010080000010204081020004040CC
:103D4000404040404000040404040404040000080F
:103D500010204080000000201008040201000070C4
:103D600048080808F0000000003036010000C030AC
:103D7000C828E810E0000718272423140B000000CF
:103D8000C038E0000000203C23020227382008F859
:103D9000888888700000203F202020110E00C0304D
:103DA000080808083800071820202010080008F824
:103DB00008080810E000203F202020100F0008F81D
:103DC0008888E8081000203F20202320180008F8E9
:103DD0008888E8081000203F200003000000C03061
:103DE00008080838000007182020221E020008F8E2
:103DF00008000008F808203F210101213F200008A9
:103E000008F8080800000020203F202000000000E3
:103E10000808F8080800C08080807F00000008F8CB
:103E200088C028180800203F20012638200008F804
:103E3000080000000000203F20202020300008F86B
:103E4000F800F8F80800203F003F003F200008F885
:103E500030C00008F808203F200007183F00E0109D
:103E600008080810E0000F10202020100F0008F8AC
:103E700008080808F000203F210101010000E010BF
:103E800008080810E0000F18242438504F0008F8E4
:103E9000888888887000203F2000030C3020007044
:103EA0008808080838000038202121221C00180842
:103EB00008F8080818000000203F2000000008F85B
:103EC00008000008F808001F202020201F000878A4
:103ED000880000C83808000007380E010000F80804
:103EE00000F80008F800033C0700073C030008182E
:103EF00068808068180820302C03032C3020083894
:103F0000C800C83808000000203F2000000010084A
:103F10000808C83808002038262120201800000092
:103F200000FE020202000000007F40404000000C42
:103F300030C000000000000000010638C000000290
:103F40000202FE000000004040407F000000000030
:103F50000402020204000000000000000000000053
:103F6000000000000000808080808080808000024F
:103F7000020400000000000000000000000000003B
:103F80008080808000000019242222223F2008F82F
:103F9000008080000000003F112020110E00000072
:103FA000008080800000000E112020201100000001
:103FB00000808088F800000E112020103F200000B3
:103FC000808080800000001F2222222213000080B7
:103FD00080F0888888180020203F20200000000002
:103FE000808080808000006B94949493600008F837
:103FF000008080800000203F210000203F200080C2
:104000009898000000000020203F202000000000C1
:1040100000809898000000C08080807F000008F831
:10402000000080808000203F24022D302000000806
:1040300008F8000000000020203F202000008080C1
:10404000808080808000203F20003F20003F8080D3
:10405000008080800000203F210000203F200000E1
:10406000808080800000001F202020201F00808092
:1040700000808000000080FFA12020110E000000C1
:10408000008080808000000E112020A0FF808080B2
:1040900080008080800020203F212000010000005F
:1040A0008080808080000033242424241900008034
:1040B00080E0808000000000001F20200000808041
:1040C000000000808000001F202020103F20808002
:1040D00080000080808000010E3008060100808092
:1040E0000080008080800F300C030C300F000080B7
:1040F0008000808080000020312E0E3120008080E2
:1041000080000080808080818E7018060100008011
:104110008080808080000021302C2221300000002F
:104120000000807C020200000000003F40400000D0
:104130000000FF00000000000000FF00000000027F
:10414000027C800000000040403F000000000006AC
:1041500001010202040400000000000000006B00E6
:1041600019071A061B181C000102020304050607A2
:1041700008090A0B0C0D0E0F1010000000000000C3
:104180000000010203040607080900000000010204
:1041900003040000B44100080000002034000000C7
:1041A00028010008E8410008340000203C08000015
:1041B00044010008000000000000000000000000B2
:1041C00000000000000000000000000000000000EF
:1041D000000000005A000000010000001000000074
:0841E0000000000000127A004B
:04000005080000ED02
:00000001FF
