:020000040800F2
:10000000A008002089010008E32B0008C521000892
:10001000E12B00082D0400088536000800000000D0
:10002000000000000000000000000000872E000813
:100030001705000800000000852E0008ED2E0008BE
:10004000A3010008A3010008A3010008A301000800
:10005000A3010008A30100081905000827050008EE
:10006000A3010008A3010008A3010008E10400089F
:10007000A3010008A3010008A3010008A3010008D0
:10008000A3010008A3010008A3010008A3010008C0
:10009000A3010008A3010008A30100082D05000822
:1000A000A3010008A3010008A3010008A3010008A0
:1000B000A3010008A3010008A3010008A301000890
:1000C000A3010008A3010008A3010008A301000880
:1000D000A3010008A3010008A3010008A301000870
:1000E0001F050008A3010008A301000800F002F8A2
:1000F00000F03AF80AA090E8000C82448344AAF188
:100100000107DA4501D100F02FF8AFF2090EBAE885
:100110000F0013F0010F18BFFB1A43F0010318473B
:10012000C8550000E8550000103A24BF78C878C1CF
:10013000FAD8520724BF30C830C144BF04680C60ED
:10014000704700000023002400250026103A28BF35
:1001500078C1FBD8520728BF30C148BF0B60704739
:100160001FB51FBD10B510BD00F06CF81146FFF7AC
:10017000F7FF03F019FE00F08AF803B4FFF7F2FF6F
:1001800003BC00F08DF8000009488047094800478B
:10019000FEE7FEE7FEE7FEE7FEE7FEE7FEE7FEE737
:1001A000FEE7FEE704480549054A064B7047000094
:1001B000692F0008ED000008A0020020A008002020
:1001C000A0040020A00400204FF0000200B5134658
:1001D00094469646203922BFA0E80C50A0E80C5067
:1001E000B1F12001BFF4F7AF090728BFA0E80C5018
:1001F00048BF0CC05DF804EB890028BF40F8042B11
:1002000008BF704748BF20F8022B11F0804F18BF7D
:1002100000F8012B704770477047704710B500F029
:1002200009F8006810BD10B5044600F003F804603A
:1002300010BD0000004870473C0200200048704795
:100240003C0200207546FFF7F9FFAE4605006946FF
:10025000534620F00700854618B020B5FFF7A2FFEF
:10026000BDE820404FF000064FF000074FF00008B7
:100270004FF0000B21F00701AC46ACE8C009ACE838
:10028000C009ACE8C009ACE8C0098D46704710B59C
:100290000446AFF300802046BDE81040FFF76DBF75
:1002A00001491820ABBEFEE726000200704700009F
:1002B00070B5044600688168C943C90717D18168D1
:1002C00021F00101816000F0B1FD05460AE000BFA8
:1002D00000F0ACFD401B022804D920688068C043B0
:1002E000C00706D020688068C043C007F0D0002057
:1002F00070BDA06A40F01000A062E06A40F001000A
:10030000E062012070BD10B50146406A826A12F0B9
:10031000500F05D0006A026BBDE810400846104738
:10032000816A41F40071816201688968C1F34241C8
:1003300007290CD1017B51B9816A21F48071816256
:10034000816AC90403D4816A41F00101816200F02D
:10035000A7F910BD10B5406A816A41F04001816281
:10036000C16A41F00401C16200F0ABF910BD10B5E3
:10037000406A00F0A5F910BDF8B5002604460096C5
:1003800000688168C943C9072DD0816841F0010127
:100390008160164816490068B0FBF1F000E0401E8D
:1003A00000900028FBD100F041FD054616E000BF9B
:1003B00000F03CFD401B022810D920688068C04333
:1003C000C0070BD0A06A40F01000A062E06A40F0C5
:1003D0000100E06284F824600120F8BD2068806894
:1003E000C043C007E4D10020F8BD00005C0000203D
:1003F00040420F0010B5044600F010F8204600F00F
:10040000CDFBBDE8104000F001B80000012204213E
:10041000014800F006BD0000000801400022042150
:10042000014800F0FEBC000000080140FEE70000AB
:10043000042801D300207047024900EB400011F866
:1004400020007047600000202DE9F04100F0EEFC34
:10045000064620480168711A142924D31E4F1F4DE7
:10046000002407F10808066037F8141058F8240033
:1004700000F0CAFC002804EB440105EB8100027A7D
:1004800013D062B14268B21A142A06D315F821209B
:10049000032A02D0022205F8212000210172641CE7
:1004A000E4B2042CE0D3BDE8F08162B115F821205C
:1004B000012AF4D14068301AB0F5FA6FEFD3032067
:1004C00005F82100EBE701220272466005F82120C1
:1004D000E5E70000000000205856000860000020FA
:1004E000014800F04BBA0000C000002030B590F881
:1004F00040500124AC40C56B6C6004686360436885
:10050000102B036803D099600068C26030BD9A6008
:100510000068C16030BD7047012000F079BB4FF426
:10052000805000F075BB022000F072BB202000F06C
:100530006FBB000004490888488004480068406A8E
:1005400000B208807047000004000020F401002081
:1005500000B5FFF7EFFF0A494A880979801A00B20F
:1005600009B1032000BD002802DD4FF0010000BDED
:1005700002DA4FF0020000BD4FF0000000BD0000A5
:1005800004000020044800210180418001713C21C9
:10059000024801F0C7BC000004000020F401002064
:1005A00072B6FEE7F8B50024009490F824202546A2
:1005B000012A12D0012280F824204A681F23072A2A
:1005C0000DD20668776B521E02EB820293409F4366
:1005D0000B6893401F43776319E00220F8BD06685B
:1005E0000D2A0AD2376BD21F02EB820293409F433F
:1005F0000B6893401F43376309E0F76A0D3A02EB3B
:10060000820293409F430B6893401F43F7620A683E
:10061000072306680A2A0AD3F7680A3A02EB42025D
:1006200093409F438B6893401F43F76008E037690E
:1006300002EB420293409F438B6893401F43376114
:100640000A68102A01D0112A20D1124B02689A425E
:1006500017D193681B0219D4936843F40003936085
:100660000968102912D10C490C4A0968B1FBF2F152
:1006700001EB8101490000E0491E00910029FBD1F6
:1006800004E0816A41F020018162012480F8245055
:100690002046F8BD002401405C00002040420F00CD
:1006A00000680549884205D10448011F02880A8074
:1006B0008088488070470000002401401C00002012
:1006C000704770472DE9F0414FF0000704003D46A8
:1006D0007ED0A06A002628B9E66284F8246020460D
:1006E00000F07EF82046FFF7E3FDA16AC90600D4BA
:1006F00020B1A06A40F01000A06269E0A16A21F474
:10070000885141F00201A1626268E169237B0A43DA
:1007100047EA43010A43A1684FF48077B94209D000
:10072000012907D05FF0000194F814C0BCF1010F5B
:1007300002D00AE03946F7E7F3B1A36A43F0200399
:10074000A362E36A43F00103E3622368D3F804C0C1
:100750002CF4694C4CEA010CC3F804C021688B6886
:10076000DFF870C003EA0C0313438B60A168B94241
:100770000BD0012909D00CE0DFF85CC0A3690CEBB9
:1007800043330B4343F40061DFE7218A0D05A5F5F0
:1007900080152168CB6A23F470032B43CB62216858
:1007A00089680E4B1940914208D1E662A16A21F096
:1007B000020141F00101A162BDE8F081A06A20F0D0
:1007C000020040F01000A062E06A40F00100E06228
:1007D0000120F1E7FDF7E1FF00E0FFFFFE0E1FFF44
:1007E00070B586B0002605460096019602960396DF
:1007F00000681A4988422ED11949886940F400706E
:100800008861886900F400700490886940F00400F1
:1008100088618869694600F0040004900320009014
:100820000190104800F000FA104C0F48C4E900068F
:100830008020C4E902608000206180006061202087
:10084000A0610002E061204600F042F908B1FFF724
:10085000A7FE2C62656206B070BD00000024014056
:10086000001002400008014008000240C0000020C3
:100870002DE9F047894604463B4900683B4F0E1D71
:100880009046884201D0B84207D1306810F4702FEA
:1008900003D001252846BDE8F08794F824000128FC
:1008A0000CD0012084F824002046FFF765FD0500E8
:1008B0004FF0000004D084F82400EBE70220EAE7C0
:1008C000A16A40F60162914341F48071A1622168FE
:1008D000B94218D1326812F4702F14D0A16A41F4D1
:1008E0008011A1623168490505D5A16A21F4005142
:1008F00041F48051A162A16AC9040AD5E16A21F0DC
:100900000601E16206E0A26A22F48012A26249684E
:10091000E9E7E06284F82400216A15488862216AC8
:100920001448C862216A1448086321686FF0020005
:1009300008602068816841F48071816021684346C5
:100940004A464C31206A00F0F1F820688168C1F312
:1009500042410729816803D041F48011816099E701
:1009600041F4A001FAE70000002401400028014002
:10097000070300086F030008550300082DE9F05F26
:10098000C16B0C6801680B68D0F840C0042202FA01
:100990000CF2494DDFF824A1494E4A4FDFF828B147
:1009A000DFF828E122422CD05A072AD50A6892069D
:1009B00003D40A6822F004020A600168A94201D146
:1009C000042219E0514501D1402215E0B14202D183
:1009D0004FF4806210E0B94202D14FF480420BE044
:1009E000594502D14FF4802206E0714502D14FF4FF
:1009F000800201E04FF080622F4908394A60C16AE5
:100A00003BE04FF0020808FA0CF818EA040F4FF028
:100A100000094FF0010235D05FEA837832D50B68C8
:100A20009B0605D40B6823F00A030B6080F8212095
:100A30000168A94201D1022219E0514501D12022C9
:100A400015E0B14202D14FF4007210E0B94202D178
:100A50004FF400520BE0594502D14FF4003206E04A
:100A6000714502D14FF4001201E04FF000721249BB
:100A700008394A6080F82090816A00291AD0BDE8C0
:100A8000F05F0847082505FA0CF5254212D01B0730
:100A900010D50B6823F00E030B6090F84010C36B69
:100AA00002FA01F15960826380F8212080F82090D9
:100AB000016BE2E7BDE8F09F080002401C00024025
:100AC0003000024044000240580002406C000240E6
:100AD00030B528B308C8134914221944B1FBF2F108
:100AE0008900C16310498163022141771A6843F686
:100AF000F0718A43D0E900142143D0E902452C4328
:100B000021430469214344692143846921431143FA
:100B1000196000214163012242770177084630BD08
:100B2000012030BDF8FFFDBF0000024070B5044653
:100B300090F82000002501280CD0012084F8200026
:100B400094F821600020012E06D084F820000225B0
:100B5000284670BD022070BD022684F82160A06383
:100B60002068066826F0010606602046FFF7BEFCF6
:100B7000E06A00282068016802D041F00E0106E01A
:100B800021F0040101602068016841F00A01016060
:100B90002068016841F001010160D9E770B50446A1
:100BA00000F044F90546601C02D004480078044473
:100BB00000F03CF9401BA042FAD370BD5000002069
:100BC00070B5124C012520280DD0012810D0022824
:100BD00014D0B0F5805F05D100F028F9A06204F8C8
:100BE000245F257270BD00F021F960602570F8E780
:100BF00000F01CF920612573257570BD00F016F911
:100C0000E061257684F8205070BD0000600000206F
:100C1000044910B50A68024202D00860FFF7D0FF0D
:100C200010BD0000140401402DE9F84FDFF8B89121
:100C30000024A9F1040B23460F2709F1040AABF1A4
:100C4000040EC9E00125A5402A40AA427DD1674E85
:100C5000D1F804C0ACEB0608B44532D014DCBCF1CA
:100C6000030F3AD009DCBCF1000F2AD0BCF1010F10
:100C70001CD0BCF1020F31D11DE0BCF1110F17D017
:100C8000BCF1120F2AD119E0B8F5881F19D006DC83
:100C9000B8F5803F15D0B8F5801F1FD111E0B8F529
:100CA000001F0ED0B8F5041F18D10AE0CB6815E07C
:100CB000CB681B1D12E0CB6808330FE0CB680C3308
:100CC0000CE08B682BB1012B4FF0080303D045617A
:100CD00004E0042302E0056100E00023FF2A01D8BC
:100CE000064601E000F104064FEA840501D9A5F1AA
:100CF0002005D6F8008007FA05FC28EA0C0803FA5C
:100D000005F548EA0508C6F800804D68ED0062D593
:100D1000374DAE6946F00106AE61AD6924F00306B9
:100D200005F001050095334D06EB050CDCF8085085
:100D3000A607360F07FA06F825EA0805DFF8B88097
:100D4000404503D14FF0000817E044E0DFF8AC80E5
:100D5000404502D14FF001080FE0DFF8A480404584
:100D600002D14FF0020808E0DFF89880404502D138
:100D70004FF0030801E04FF0040808FA06F848EACB
:100D80000508CCF808804D68D9F80060ED024D46A2
:100D900001D5164300E096432E604D68DAF80060F6
:100DA000AD02554601D5164300E096432E604D68CE
:100DB000DBF80060AD035D4601D5164300E09643C5
:100DC0002E604D68DEF80060ED03754601D51643D0
:100DD00000E096432E60641C0D682A46E5407FF4CF
:100DE00031AFBDE8F88F0000080401400000111089
:100DF000001002400000014000080140000C0140CA
:100E000000100140001401408068084000D001201B
:100E10007047C26821EA02030A4043EA02410161C5
:100E200070470AB1016170470904FBE70148806817
:100E3000704700005000002070B5040025D094F8E1
:100E40003D00002520B984F83C50204600F014FBFA
:100E5000242084F83D002068016821F00101016030
:100E60002068016841F4004101602068016821F4B4
:100E70000041016000F0F0FC4D4A6168914201D8E8
:100E80004C4900E04C49884201D2012070BD4B49D9
:100E90002368B0FBF1F15E6826F03F060E435E600A
:100EA0006368934206D94FF4967359434FF47A73AB
:100EB000B1FBF3F12368491C1E6A26F03F0631435B
:100EC00019626168914210D84900401EB0FBF1F2EE
:100ED000521CC2F30B02042A01D2042022E0B0FB10
:100EE000F1F0401CC0F30B001CE0A268F2B301EB70
:100EF000C10303EB0116431EB3FBF6F35B1C43F483
:100F000080431B0549D092B301EBC10202EB0111F2
:100F1000401EB0FBF1F0401CC0F30B0040F48040D9
:100F200040F400402168CA694CF6FF739A431043AD
:100F3000C861D4E9071001432068026822F0C002AA
:100F400011430160D4E9030101432068826848F23B
:100F5000FF339A4311438160D4E9050108432168B6
:100F6000CA6822F0FF021043C86001E00EE016E0FC
:100F70002068016841F0010101602564202084F8A7
:100F80003D00256384F83E50002070BD01EB410612
:100F9000431EB3FBF6F35B1CB3E70120C2E701EB92
:100FA0004101401EB0FBF1F0401CC0F30B00B7E75D
:100FB000A086010080841E0000093D0040420F0011
:100FC0002DE9F84F1F4690468A460446DDF82890E2
:100FD000FFF72CFF054694F83D0020287FD1192308
:100FE000012240492046009501F050FA002876D1B0
:100FF00094F83C00012872D0012084F83C0020685D
:101000000168C90703D1016841F00101016020684E
:10101000016821F400610160212084F83D00102066
:1010200084F83E0000262664C4F824806785608D1D
:1010300020852D48E0622B464A465146204601F065
:10104000D9F890B9206841698069009036E02A4655
:101050004946204601F0F8FA50B1206C042804D12A
:101060002068016841F4007101600120BDE8F88F3B
:10107000606A216800780861606A401C6062618D66
:10108000491E6185218D491E89B2218522685369D7
:10109000DB435B070BD451B100781061606A401CE0
:1010A0006062608D401E6085208D401E20852A462E
:1010B0004946204601F0BEF90028CED1208D0028F7
:1010C000C5D154F83D0B016841F400710160202046
:1010D00004F81E09E67766770020C7E7FFE70220DD
:1010E000C4E70000020010000000FFFF2DE9FF4FE1
:1010F00083B00025DDE910799A4693460446DDF871
:1011000048800095FFF792FE064694F83D0020289F
:101110007CD11923012288492046009601F0B6F9B6
:101120000028F5D194F83C0001286FD0012084F804
:101130003C0020680168C90703D1016841F0010142
:1011400001602068016821F400610160222084F8B8
:101150003D00402084F83E0025646762A4F82A9090
:10116000608D20857548E062CDE9008653465A4679
:101170002046049901F08CF800287CD1208DDFF8FE
:10118000C091202768B1012814D002282068016886
:101190001ED041F48061016020684169806900903F
:1011A000BCE02068416981690091016841F40071E7
:1011B0000160B3E02068016821F48061016072B6CB
:1011C0002068416981690091016841F400710AE079
:1011D00041F40061016072B6206841698169009143
:1011E000016821F48061016062B697E0032865D848
:1011F00001280CD0022843464FF000024946204601
:1012000000960BD001F042F9A8BB0CE091E0324609
:101210004146204601F0E0F968BB72E001F036F982
:1012200048BB72B633E02068016821F48061016038
:1012300072B620680069616A0870606A401C60626A
:10124000208D401E2085608D401E60853D4846F201
:10125000A8110068B0FBF1F0C0EBC00000EB80000B
:101260000090401E009007D020684069C0434007AE
:101270000DD50098F5E727E044F8305F6773A57354
:10128000206940F02000206162B625731CE02068D0
:10129000016841F40071016020680069616A0870AA
:1012A000606A401C6062218D491E2185618D491E46
:1012B000618562B621680969017026E032464146BF
:1012C000204601F089F918B1012007B0BDE8F08F80
:1012D00020680069616A0870606A401C6062208D45
:1012E000401E81B22185608D401E60852068426964
:1012F000D243520712D4032903D1016821F480613B
:10130000016020680069616A0870606A401C606260
:10131000208D401E2085608D401E6085208D002818
:101320007FF464AF84F83D7084F83E5084F83C50FC
:10133000CBE70220C9E70000020010000000FFFF19
:10134000040001005C0000202DE9FF4F83B09A46A5
:10135000DDE9119793460446DDF84080FFF766FD0E
:10136000054694F83D0020287FD1192301224049E9
:101370002046009501F08AF8002876D194F83C00C8
:10138000012872D0012084F83C0020680168C90758
:1013900003D1016841F0010101602068016821F476
:1013A00000610160212084F83D00402084F83E0067
:1013B00000262664C4F82480A4F82A90608D208535
:1013C0002C48E062CDE9007553465A462046049900
:1013D00000F0DCFF70B930E02A463946204601F0C3
:1013E00033F958B1206C042804D12068016841F415
:1013F00000710160012007B0BDE8F08F606A2168CC
:1014000000780861606A401C6062218D491E89B2C3
:101410002185628D521E628522685369DB435B071A
:101420000BD469B100781061606A401C6062208D45
:10143000401E2085608D401E6085208D0028CBD108
:101440002A463946204600F0F5FF0028CAD154F854
:101450003D0B016841F400710160202004F81E0971
:10146000E67766770020C6E7FFE70220C3E70000C3
:10147000020010000000FFFF30B585B00021009190
:101480000191029103911E4D03681E4C122103220B
:101490001D48AB4216D1A36943F00803A361A369B9
:1014A000039203F008030493C023CDE90031694699
:1014B000FFF7BAFBE06940F40010E061E06900F476
:1014C000001019E0114DAB4217D1A36943F0080396
:1014D000A361A369039203F0080304934FF44063EC
:1014E000CDE900316946FFF79FFBE06940F48000D9
:1014F000E061E06900F48000049005B030BD0000B8
:101500000054004000100240000C01400058004010
:1015100002488168027811448160704750000020C1
:10152000074810B5016841F010010160032000F088
:1015300075F8012000F006F800F024F8002010BD36
:101540000020024070B50D4D04464FF47A712878A2
:10155000B1FBF0F00A490968B1FBF0F000F042FB82
:1015600048B9102C07D200222146501E00F036F850
:1015700000206C6070BD012070BD00005000002094
:101580005C0000200C4808B5816941F001018161CF
:10159000816901F001010091C16941F08051C1618F
:1015A000C06900F0805000900448416821F0E0617B
:1015B00041F00071416008BD001002400000014090
:1015C000002809DB00F01F02012191404009800042
:1015D00000F1E020C0F8001170470000F0B40E4B9D
:1015E0001B680C46C3F30223C3F10705042D00D981
:1015F0000425191D072901D2002300E0DB1E012666
:1016000006FA05F1491E214099409E40761E16407B
:101610003143F0BC02F04AB80CED00E0064900F09E
:10162000070208684FF6FF03184040EA0220034A09
:1016300010430860704700000CED00E00000FA0560
:101640002DE9F84305460078354CC00754D0E069D1
:101650000026C00008D4E06940F08050E061E069F5
:10166000012600F0805000902E480168C90512D470
:101670000168804641F480710160FFF7D7FB07469F
:1016800005E000BFFFF7D2FBC01B642823D8D8F8C1
:101690000000C005F6D5206A10F4407021D0A9885A
:1016A00001F4407181421CD0206A1F49012220F4BC
:1016B00040700A6000220A602062C00711D0FFF764
:1016C000B5FB074641F2883808E000BFFFF7AEFBE4
:1016D000C11B414502D90320BDE8F883206A800779
:1016E000F4D5206A696820F44070084320621EB176
:1016F000E06920F08050E0612878800705D56068B7
:10170000A96820F44040084360602878C00605D5E9
:101710006068E96820F48000084360600020DBE72F
:101720000010024000700040400442422DE9F047A2
:101730000F46050061D0434E306800F00700B84204
:1017400009D2306820F0070038433060306800F07C
:101750000700B84251D128683B4C810712D5400799
:1017600003D5606840F4E06060602878000703D526
:10177000606840F4605060606068A96820F0F00024
:10178000084360602878C00728D06868012810D016
:101790002168022810D0890700292EDA616821F01B
:1017A000030101436160FFF741FB804641F2883944
:1017B0000DE021688903EFE78901EDE7FFF736FBCC
:1017C000A0EB0801494502D90320BDE8F087606815
:1017D000696800F00C00B0EB810FEFD1306800F0C9
:1017E0000700B8420BD9306820F00700384330605A
:1017F000306800F00700B84201D00120E5E7287802
:10180000400705D56068E96820F4E060084360603F
:101810002878000706D56068296920F4605040EAFE
:10182000C100606000F028F86168084AC1F3031144
:10183000515CC8400649086006480068FFF782FE10
:101840000020C2E700200240001002408C56000831
:101850005C000020540000200448054900684968E5
:10186000044AC1F30221515CC84070475C0000206B
:10187000001002409C5600080E4A51680E4801F0C4
:101880000C03042B11D0082B0FD10C48C1F3834358
:10189000C903C05C0AD55168084AC1F34041921E91
:1018A000515C054A5043B0FBF1F07047044948438E
:1018B000704700000010024000127A007C560008B9
:1018C00000093D002DE9F84F040070D02078C04D8C
:1018D000C00749D06868C0F38100012807D0686854
:1018E000C0F38100022809D16868C00306D52868C2
:1018F000800339D560680028E7D035E06068B0F52E
:10190000803F0BD010B1B0F5A02F11D0286820F483
:1019100080302860286820F4802002E0286840F4A5
:1019200080302860606890B1FFF780FA06460AE0D0
:10193000286840F480202860F0E700BFFFF776FABF
:10194000801B642873D828688003F7D50CE0FFF764
:101950006DFA064605E000BFFFF768FA801B6428B1
:10196000F0D828688003F7D420789A4E80074FF08B
:1019700001094FF0000839D5686810F00C0F07D046
:101980006868C0F38100022809D16868C00306D4E2
:101990002868800714D52069012808D110E0206943
:1019A000B0B1C6F80090FFF741FA074605E00AE13A
:1019B000FFF73CFAC01B0228C4D828688007F7D577
:1019C0002868616920F0F80040EAC10028600DE055
:1019D000C6F80080FFF72AFA074604E0FFF726FA68
:1019E000C01B022823D828688007F7D42078000776
:1019F0002CD57948A169D9B1C0F80090FFF716FA43
:101A0000074604E0FFF712FAC01B02280FD8686AE5
:101A10008007F7D571484FF4FA510068B0FBF1F038
:101A2000009000BF0098411E0091FAD20EE080E0C5
:101A3000C0F80080FFF7FAF9074604E0FFF7F6F96F
:101A4000C01B022875D8686A8007F7D42078400741
:101A500060D5E8690027C00008D4E86940F08050EC
:101A6000E861E869012700F0805000905C48016857
:101A7000C90513D40168834641F480710160FFF702
:101A8000D5F9824606E000BFFFF7D0F9A0EB0A00C7
:101A900064284ED8DBF80000C005F5D5E0680128C1
:101AA0000AD008B1052813D0286A20F00100286266
:101AB000286A20F0040002E0286A40F00100286251
:101AC000E06841F2883B98B1FFF7B0F982460BE03D
:101AD000286A40F004002862EEE700BFFFF7A6F98D
:101AE000A0EB0A0159455AD8286A8007F6D50CE0C0
:101AF000FFF79CF9824605E0FFF798F9A0EB0A0191
:101B000059454CD8286A8007F6D41FB1E86920F0FF
:101B10008050E861E06988B36968C1F381010229F6
:101B200044D00228C6F8608004D0FFF77FF904464D
:101B300038E034E0FFF77AF9074604E0FFF776F97A
:101B4000C01B02282BD828688001F7D4206AB0F582
:101B5000803F05D16868A16820F4003008436860C0
:101B6000D4E908010843696821F4741108436860E6
:101B7000C6F86090FFF75AF9044606E025E000BF7A
:101B8000FFF754F9001B022809D828688001F7D50F
:101B90001BE000BFFFF74AF9001B022802D903200F
:101BA000BDE8F88F28688001F4D40EE00128F7D052
:101BB0006868226A00F48031914204D1616A00F4BD
:101BC0007010884201D00120EAE70020E8E7000019
:101BD0000010024000004242800442425C000020AB
:101BE0000070004010B5401EB0F1807F01D301208D
:101BF00010BD4FF0E02460610F21601701F056FD29
:101C00000020A06107202061002010BD10B590F8D1
:101C10003C20012A22D0012280F83C20CA688C682E
:101C200022F4407222434C6822F4806222430C6802
:101C300022F4006222430C6922F4805222434C6950
:101C400022F400522243C969002322F480420A434D
:101C500001684A6480F83C30002010BD022010BDAD
:101C600070B590F83C20012A26D0012480F83C4031
:101C7000022280F83D2003685A689D6822F07006B1
:101C80000A6832435A600D4B02689A4208D0B2F19A
:101C9000804F05D00A4B9A4202D00A4B9A4204D197
:101CA000496825F080031943916080F83D40002188
:101CB00080F83C10084670BD022070BD002C014029
:101CC000000400400008004010B5040003D094F860
:101CD0003D0010B107E0012010BD002084F83C0059
:101CE000204600F01FF8022084F83D00211D2068E6
:101CF00001F06EFB012084F8460084F83E0084F871
:101D00003F0084F8400084F8410084F8420084F8E1
:101D1000430084F8440084F8450084F83D00002026
:101D200010BD000008B500680649884208D1064881
:101D3000816941F400618161806900F40060009074
:101D400008BD0000002C01400010024070B50446A0
:101D500090F83C000025012817D0012684F83C604B
:101D6000022084F83D002068826822F0770222F485
:101D70007F4282600868502838D00DDC20284FD080
:101D800005DC90B3102811D14AE0022070BD302844
:101D900046D040280AD13BE060282FD070280DD0D3
:101DA000B0F5805F03D0B0F5005F12D0012584F854
:101DB0003D60002084F83C00284670BDCB68D1E926
:101DC0000121206801F04DFB2068816841F0770116
:101DD00009E0CB68D1E90121206801F042FB2068CD
:101DE000816841F480418160E1E719E0CA6849688F
:101DF000206801F0EBFB5021206806E0CA684968C2
:101E0000206801F0F4FB6021206801F034FBCEE78C
:101E1000CA684968206801F0D9FB40212068F4E7CE
:101E2000226801461046F0E72DE9F0410D46040016
:101E300003D094F83D0018B108E00120BDE8F0811E
:101E4000002084F83C00204600F040F8022084F88E
:101E50003D002068816844F2070291438160211DA2
:101E6000206801F0B5FA226890689169166A2B68BB
:101E7000AF69034340F20330814341EA0721A86878
:101E8000EF6908434FF6FC418843E96840EA0720C0
:101E9000014328692F6A000140EA07300843696856
:101EA0006D6926F0220646EA0515294393602268EB
:101EB000906154F8460B0162012004F81F09E07597
:101EC0002076E0762077A0750020B7E700B585B0D2
:101ED0000021009101910291039100680E4988420E
:101EE00018D10E48C16941F00201C161C16901F018
:101EF00002010491816941F00401816180696946B0
:101F000000F004000490C0200090012002900448DA
:101F1000FEF78AFE05B000BD00040040001002403C
:101F20000008014070B590F83E60044690F83F50BC
:101F300090F8423090F84320022021B104290ED0BD
:101F4000012E1BD114E0012E18D1012B16D184F8DB
:101F50003E0084F8420001220021206820E0012D8B
:101F60000CD1012A0AD184F83F0084F8430014E020
:101F7000012D03D1012B01D1012A01D0012070BD17
:101F800084F83E0084F83F0084F8420084F843005F
:101F900001220021206801F057FA01220421206863
:101FA00001F052FA2068016841F00101016000204F
:101FB00070BD000000B585B0002100910191029133
:101FC000039100680B49884212D10B48816941F0A6
:101FD000040181618069694600F0040004904FF4B7
:101FE000807000900220019003900448FEF71CFED0
:101FF00005B000BD002C0140001002400008014067
:1020000070B5044690F83C0000260D4601280FD01C
:10201000012084F83C006AB1042A1DD0082A2FD080
:102020000C2A3FD00126002084F83C00304670BDC9
:10203000022070BD206801F027FA2068816941F014
:10204000080181612068816921F0040181612068B3
:1020500081692A69114311E0206801F03DFA206886
:10206000816941F4006181612068816921F48061A6
:102070008161206881692A6941EA02218161D2E790
:10208000206801F055FA2068C16941F00801C1617A
:102090002068C16921F00401C1612068C1692A6911
:1020A000114311E0206801F06FFA2068C16941F422
:1020B0000061C1612068C16921F48061C16120684B
:1020C000C1692A6941EA0221C161ACE710B5040087
:1020D00003D094F83D0010B107E0012010BD0020AE
:1020E00084F83C00204600F01EF8022084F83D00F1
:1020F000211D206801F06CF9012084F8460084F865
:102100003E0084F83F0084F8400084F8410084F8E1
:10211000420084F8430084F8440084F8450084F8C1
:102120003D00002010BD704710B50446022249B1A1
:1021300004290ED0082913D094F84100012816D0A4
:10214000012010BD94F83E000128F9D184F83E200A
:102150000FE094F83F000128F2D184F83F2008E016
:1021600094F840000128EBD184F8402001E084F885
:1021700041200122206801F067F90F492068884258
:1021800003D1426C42F4004242642068884208D085
:10219000B0F1804F05D00949884202D008498842F1
:1021A00004D1816801F00701062903D0016841F0DC
:1021B00001010160002010BD002C0140000400401E
:1021C00000080040FEE701684A69D24352050FD477
:1021D0006FF480624A61002140F8301F2022427370
:1021E0008173026942F004020261017301207047A9
:1021F00000207047F8B50446C06A1E460D461746D3
:10220000082807D0012805D010F5803F02D0206BA8
:10221000122804D12068016841F4807101601346DE
:1022200000224FF001112046009600F02FF940B136
:1022300020680068C00502D54FF4007020640320B8
:10224000F8BD2069B0F5804F0ED00620216800EA65
:10225000D51040F0F000086133463A460B4920465D
:1022600000F05CF978B902E005F0FE0000E0E8B2A9
:1022700021680861054933463A46891F204600F027
:102280004DF90028DCD00120F8BD00000800010055
:102290002DE9F84F0446006889460B9D0168984671
:1022A000174641F4806101602068016841F4807143
:1022B000016000954FF0011B0022594620460A9B01
:1022C00000F0E4F84FF4007A40B120680068C005DF
:1022D00001D5C4F840A00320BDE8F88F216809F0BB
:1022E000FE0008612B46284920460A9A00F016F99C
:1022F000F0BB20684169806900902A4620460A990F
:1023000000F0A2F940B1206C04283AD1206801689D
:1023100041F40071016034E0FEB2B8F1010F09D060
:102320002168380A08612A4620460A9900F08CF98B
:102330000028E8D1206806612A4620460A9900F064
:1023400083F90028DFD12068016841F480710160C1
:1023500000950022594620460A9B00F097F8002875
:10236000B3D1216809F0FF0040F00100086100E0EE
:1023700007E02B46044920460A9A00F0CFF80028CF
:10238000AAD00120A8E70000020001002DE9F843CF
:10239000044600680D46DDE9089701689846164630
:1023A00041F4807101604B4600224FF0011120463C
:1023B000009700F06BF848B120680068C00502D5AE
:1023C0004FF4007020640320BDE8F883216805F015
:1023D000FE0008613B464A461549204600F09EF83B
:1023E00088B920684169806900903A46494620468C
:1023F00000F02AF948B1206C042804D12068016853
:1024000041F4007101600120DEE7F5B2B8F1010F7F
:1024100009D02168300A08613A464946204600F052
:1024200013F90028E7D1206805610020CCE70000FF
:102430000200010070B516460D4604461EE0204617
:10244000FFF7C1FE08B1012070BD681C16D0FEF771
:10245000EDFC801BA84200D885B920684069C043C4
:1024600040070BD5002044F8300F20216173A07382
:10247000216941F0200121612073E4E7206840696F
:10248000C0434007DBD4002070BD00002DE9F047B9
:10249000984617460D460446C1F30746DDF82090DE
:1024A0002AE000BFB8F1FF3F26D0FEF7BFFCA0EB4B
:1024B0000901414502D8B8F1000F1DD12068012E55
:1024C00016D0806925EA00000004000C12D000201C
:1024D000B84211D1002044F8300F20216173A0735D
:1024E000216941F02001216120730120BDE8F087BE
:1024F0004069E7E70120EBE72068012E0AD08069F8
:1025000025EA00000004000C06D00020B842C9D023
:102510000020EBE74069F3E70120F7E72DE9F047FA
:10252000984616460D4604464FF000094FF0200A23
:10253000C1F3074723E020684069C043400515D434
:102540002068016841F40071016021686FF48060C7
:102550004861C4F8309084F83DA084F83E90216C26
:1025600041F00401216484F83C9021E0701C06D005
:10257000FEF75CFCA0EB0800B04203D816B1012FB7
:102580001FD021E02068012F15D0806925EA0000C6
:102590000004000C18D000BF44F8309F84F80DA050
:1025A00084F80E90216941F02001216184F80C909B
:1025B0000120BDE8F087406925EA00000004000C16
:1025C000EAD12068406901E02068806925EA0000BE
:1025D0000004000CAFD1ECE72DE9F0410025904656
:1025E0000E460446202728E04069C043C0060CD4AC
:1025F00054F8301B6FF01000486144F810596777A9
:10260000A577206A2062257714E0FEF70FFCA0EB87
:102610000800B04200D886B920684069C04340062F
:102620000BD544F8305F6773A573206940F0200034
:10263000206125730120BDE8F08120684169C9430C
:102640004906D1D40020F6E770B516460D4604467B
:102650001EE02046FFF7B7FD08B1012070BD681CE1
:1026600016D0FEF7E3FB801BA84200D885B920688E
:102670004069C04300060BD5002044F8300F2021EC
:102680006173A073216941F0200121612073E4E7A7
:1026900020684069C0430006DBD4002070BD4FF4C1
:1026A000805000F025B8000001224FF4F05101489D
:1026B000FEF7B7BB0008014000224FF4F05101487B
:1026C000FEF7AFBB00080140014601220148FEF7BA
:1026D000A8BB000000080140014600220148FEF7A7
:1026E000A0BB0000000801404FF40070AFF3008071
:1026F00001460148FEF78DBB0008014005486421F2
:102700000088484340F6FF71B0FBF1F0C0F164006F
:10271000C0B27047180000202DE9FC41054623484F
:10272000811ECDE90010841C031F221DA11C801CEA
:1027300000F040F8B4F9000002F092F96FF00D08D3
:10274000414602F052FC0746B4F9020002F088F953
:10275000414602F04AFC0646B4F9040002F080F952
:10276000414602F042FC0446014602F0D9F9804697
:102770003146084602F0D4F9414601F0FFFF01F06E
:102780002DFB0146384601F00FF8094F394602F09B
:10279000C7F928602146304601F006F8394602F0B4
:1027A000BFF968600020A860BDE8FC810E00002031
:1027B000333365422DE9F04387B01546DDE90E89D4
:1027C0000E4607464FF0FF320E2103A88DE80700A2
:1027D0001C4601233B22D0210F48FEF787FCBDF8A1
:1027E0000C0040BA3880BDF80E0040BA3080BDF809
:1027F000100040BA2880BDF8140040BA2080BDF80F
:10280000160040BAA8F80000BDF8180040BAA9F8B0
:10281000000007B0BDE8F08358010020FEB500F0CD
:1028200023F8682801D00120FEBD002401260C4DAC
:10283000671E00BF05EB4400401C8DE8C10015F881
:1028400014200123D0210748FEF77EFD0520FEF766
:10285000A5F9641CE4B2052CECD30020FEBD0000F9
:1028600070560008580100201FB501214FF0FF32BB
:1028700003A88DE807000B467522D0210348FEF718
:1028800035FC9DF80C0004B010BD0000580100207C
:10289000FEB5002418480094019416490294016082
:1028A00089158160012505730475022606614FF4C0
:1028B00060214460C161FDF705FF08B1FDF770FEBE
:1028C00007200094CDE9015069460B48FDF76AFEE8
:1028D00008B1FDF765FECDE9005669460648FDF7EB
:1028E00061FE08B1FDF75CFE022204490248FDF7D3
:1028F000BFFFFEBD00240140900000201C0000200E
:10290000094808B5416941F001014161406900226F
:1029100000F00100009011460B20FEF75FFEBDE8BD
:1029200008400B20FEF74CBE00100240F0B585B009
:10293000002539480095019502950395816941F07C
:1029400010018161816901F010010491816941F0F8
:1029500020018161816901F020010491816941F0C8
:1029600004018161816901F004010491816941F0F0
:10297000080181618069294F00F00800049001225C
:1029800041F604613846FEF74CFA042001248DE834
:102990003100694638460394FEF746F9204E202060
:1029A000CDE90006694602943846FEF73DF941F24A
:1029B0000300CDE90006694602941A48FEF734F98F
:1029C0004FF4F0508DE831000320039069463846FB
:1029D000FEF72AF9002202210620FEF7FFFD06205D
:1029E000FEF7EEFD002202210720FEF7F7FD07208B
:1029F000FEF7E6FD002202211720FEF7EFFD17206B
:102A0000FEF7DEFD002202212820FEF7E7FD282048
:102A1000FEF7D6FD05B0F0BD0010024000080140F1
:102A200000002110000C01400D4810B50B49016059
:102A30000C49416000214FF480428160C0E90312DB
:102A400041618161C1610162FEF7F6F9002803D09E
:102A5000BDE81040FDF7A4BD10BD000000540040CB
:102A600004010020A08601000D4810B50B4901604B
:102A70000C49416000214FF480428160C0E903129B
:102A800041618161C1610162FEF7D6F9002803D07E
:102A9000BDE81040FDF784BD10BD000000580040A7
:102AA00058010020A086010010B596B000240F94B4
:102AB00010941194129413941C2108A81494FDF7F7
:102AC00083FB20216846FDF77FFB294827490160E9
:102AD0004721C0E9011444F61F61C0E903144461B1
:102AE0008461FFF7F1F808B1FDF75AFD4FF480500B
:102AF0000F900FA91E48FFF729F908B1FDF750FD07
:102B00001B48FFF7E3FA08B1FDF74AFD139413A938
:102B100017481494FFF7A4F808B1FDF741FD6020B1
:102B2000089040F2DC50CDE909040B940C940D940C
:102B3000002208A90E480E94FFF762FA08B1FDF7CB
:102B40002FFD00944FF40050CDE90440029401940D
:102B50000394694606480794FFF758F808B1FDF753
:102B60001FFD0348FFF726FA16B010BD002C0140E8
:102B7000AC01002010B58CB024216846FDF724FB81
:102B800000241648099414490A94C0E900144FF629
:102B9000FF71C0E90241046184610120CDE90004B4
:102BA000CDE902040F210491CDE90540CDE90741AB
:102BB00069460A48FFF738F908B1FDF7F1FC0994B6
:102BC00009A906480A94FFF74BF8002801D0FDF741
:102BD000E7FC0CB010BD000000040040F401002030
:102BE000FEE7FEE770B500240021204600F05EF805
:102BF0000025002000F032F96D1CEDB2802DF8D3D5
:102C0000641CE4B2082CEFD370BD10B5AE2000F008
:102C100015F9D52000F012F9802000F00FF9A82056
:102C200000F00CF93F2000F009F9D32000F006F97C
:102C3000002000F003F9402000F000F9A12000F08E
:102C4000FDF8C82000F0FAF8DA2000F0F7F81220BA
:102C500000F0F4F8812000F0F1F8CF2000F0EEF859
:102C6000D92000F0EBF8F12000F0E8F8DB2000F0CC
:102C7000E5F8302000F0E2F8A42000F0DFF8A6200C
:102C800000F0DCF88D2000F0D9F8142000F0D6F820
:102C9000AF2000F0D3F8BDE81040FFF7A3BF024615
:102CA000012000E05043491EFCD2704710B50C468D
:102CB00040F0B00000F0C2F8102040EA141000F01C
:102CC000BDF804F00F00BDE8104000F0B7B80000F8
:102CD0002DE9F0410746CE004000083E801E154613
:102CE0004FF0FF38F1B2C0B2FFF7E0FF1148002407
:102CF00000EB05152819A0F5805090F8000E00F0A3
:102D0000ADF8641CE4B2082CF4D308EB4700F1B230
:102D1000C0B2FFF7CBFF00242819A0F5805090F82F
:102D2000080E00F09BF8641CE4B2082CF4D3BDE854
:102D3000F0810000665000082DE9F0411D4617465D
:102D40000E468046002415E0291B1020491EFFF77F
:102D5000A6FFB7FBF0F000F00F0206EB0400C1B2D3
:102D60000A2A404601D2303200E03732FFF7B0FF86
:102D7000641CE4B2AC42E7D3BDE8F0812DE9F04732
:102D800000241D461646884681460A2713E0291B63
:102D90000A20491EFFF783FFB6FBF0F0B0FBF7F106
:102DA00007FB110208EB0400C1B248463032FFF7BE
:102DB0008FFF641CE4B2AC42E9D3BDE8F0872DE993
:102DC000F0471E4614008846814604D42B22FFF7A4
:102DD0007FFF254603E02D22FFF77AFF654200249E
:102DE0000A2714E0311B0A20491EFFF758FFB5FBE4
:102DF000F0F0B0FBF7F107FB110208EB0400401CF8
:102E0000C1B248463032FFF763FF641CE4B2B442FB
:102E1000E8D3BDE8F0872DE9F04115460E46074698
:102E2000002406E03019C1B23846FFF751FF641C98
:102E3000E4B22A5D002AF5D1BDE8F0811CB500217D
:102E400001918DF80500481E0090022301AA782107
:102E50000148FEF7B5F81CBD040100201CB507A110
:102E60000223096801918DF805004FF0FF300090B2
:102E700001AA78210248FEF7A3F81CBD400000001B
:102E8000040100207047704710B500210348FFF788
:102E90004BF9BDE810405A2000F012B8AC010020F8
:102EA00010B5064CA169606801F006FF01D2207FD1
:102EB00000E05A20BDE8104000F002B830000020C9
:102EC000B42800D9B4204FF4FA614143B422B1FBD5
:102ED000F2F1044A01F5FA7189B2126851630249AC
:102EE00008707047AC01002024000020FEF710BBE2
:102EF00030B593B028216846FDF766F914210AA879
:102F0000FDF762F9002501200F9510951195010438
:102F100012958DE8230004904FF4E010CDE90810DD
:102F2000022407946846FEF7CDFC08B172B6FEE7AE
:102F30000AA90F2081E831004FF48060CDE90D052A
:102F400002210AA8FEF7F2FB08B172B6FEE74FF4C1
:102F5000004011900F940FA8FEF772FB002801D0DB
:102F600072B6FEE713B030BD7047000010B50E4CCE
:102F7000A169606801F0A0FE0DD2607838B9012027
:102F80006070FFF78DFF4FF4FA70FDF733FABDE87C
:102F90001040FFF784BB00206070BDE810404FF484
:102FA0008050FFF791BB0000300000202DE9F04772
:102FB000FDF74AFA0020FDF73BFA82460120FDF7B3
:102FC00037FA81460220FDF733FA80460320FDF7E9
:102FD0002FFA424D074605F10804BAF1020F10D14D
:102FE000287802280DD0207820B1012804D00228AA
:102FF00007D103E0012002E0022000E0002000F001
:10300000E1F8B9F1020F08D16878022805D02078DC
:10301000012802D1002000F0D5F801200026B8F1E7
:10302000020F07D1A978022904D0297909B12E719C
:1030300000E02871022F12D1E97802290FD06E61C9
:10304000AE61EE616670A07026725A202077244827
:103050006660A061002000F0B5F8FFF7C3FD20789E
:10306000012831D1FDF774FA2979A9B1012802D0DC
:10307000022809D028E0207F401CC0B22077B42865
:1030800022D9B42020771FE0207F401E10F0FF00DF
:10309000207719D1267717E04FF07C51012802D014
:1030A000022809D010E0A06901F068FB0D49A06179
:1030B000884209DDA16107E0A06901F0C1FEA061BD
:1030C00010F1FF4F00D3A66185F800A085F80190AC
:1030D00085F80280EF70BDE8F0870000280000202E
:1030E0000000F0410000484210B5FFF78EFDFFF7E9
:1030F000CBFEFDF747FAFFF791FB1A4C6071FFF723
:1031000071FD607968B1012117A20846FFF783FEBF
:10311000FFF7AAFB0246022301211846FFF70CFE27
:10312000FEE7FFF7C9FA4FF4FA70FDF737FDFFF736
:10313000BBFAFFF757FD01210FA20846FFF76BFE10
:1031400011A201210220FFF766FE4FF47A70FDF70D
:1031500025FD0449012008318870BDE81040002099
:1031600000F030B8280000204D5055363035302062
:103170004572726F7221000053797374656D204936
:103180006E69742E2E2E000057656C636F6D65217D
:103190000000000010B500F03DFA094C6060FFF738
:1031A000ADFA207204F10C00FFF7B6FAFFF7FEFE4D
:1031B000FFF7DCFE00F052F8BDE81040FFF794BACC
:1031C0003000002070B5044618480470FFF70AFD6F
:1031D0003CB14FF480656E00012C0AD0022C15D151
:1031E0001AE0012112A20846FFF715FE4FF42060F5
:1031F00008E0012112A20846FFF70DFE2846FFF75E
:103200006BFA3046FFF760FAFFF7ECFCBDE8704060
:103210004FF4FA70FDF7C2BC01210DA20846FFF77A
:10322000FAFD3046FFF758FA2846EBE73000002059
:103230004D6F6E69746F72204D6F64650000000001
:1032400053657474696E67204D6F646500000000FB
:103250004465627567204D6F6465000010B5454C8C
:103260002078D8B101286BD0022878D1012142A260
:103270000846FFF7D0FDA06901F0D2FB82B202231D
:1032800001211846FFF77AFDFDF754F9032382B2B6
:103290000121BDE810400320FFF770BD012139A2D4
:1032A0000846FFF7B8FD606801F0BAFB82B202235E
:1032B00006210120FFF762FD34A208210120FFF75B
:1032C000AAFD3349606801F02BFC01F0A9FB80B234
:1032D0000A21B0FBF1F201FB120201230921184679
:1032E000FFF74CFD2BA201210220FFF794FD227A6B
:1032F000032307210220FFF741FD28A20A21022013
:10330000FFF789FD26A201210320FFF784FDE06875
:1033100001F06AFB02B2032307211846FFF74FFDB5
:1033200021A201210420FFF776FD206901F05CFB5A
:1033300002B203230621BDE810400420FFF73FBD81
:103340001BA201210220FFF766FDA06901F068FBC6
:1033500082B202230F211846FFF710FD00E008E0BB
:1033600017A201210320FFF756FD0323227F0D2121
:103370008FE710BD300000204465627567204D6FF7
:103380006465000054656D703A0000002E00000076
:10339000000020414C696768743A00002500000075
:1033A00050697463683A0000526F6C6C3A00000018
:1033B00054656D70205468726573686F6C643A0070
:1033C000536572766F20416E676C653A00000000AD
:1033D000F0B50268194B1A4C1A4D4FF080479842CD
:1033E00005D0B84203D0A04201D0A84203D122F0B8
:1033F00070064A683243984205D0B84203D0A042D2
:1034000001D0A84203D122F44074CA6822434C6917
:1034100022F08002224302608A68C2620A688262E5
:10342000984201D109690163012141610169C9071C
:1034300003D0016921F001010161F0BD002C0140C0
:10344000000400400008004010B501F01F030121F6
:10345000046A99408C430462016A9A4011430162F4
:1034600010BD10B5846842EA032224F47F440A4365
:103470002243826010BD826822F070020A4342F04B
:10348000070181607047000030B5036A026A22F0CC
:10349000010202624268846924F073050C682C43BF
:1034A00023F002058B682B430A4DA8420BD123F071
:1034B0000805CB6822F440722B434D6923F00403C6
:1034C00015438A692A434260846149684163036203
:1034D00030BD0000002C014030B5026A036A23F0C1
:1034E00010030362436884690D6824F4E64444EAE7
:1034F00005248D6822F0200242EA05120B4DA842F5
:103500000ED1CD6822F0800242EA05124D6923F403
:10351000406343EA85038D6922F0400243EA850354
:103520004360846149688163026230BD002C0140C0
:1035300030B5036A026A22F4807202624268C4698A
:1035400023F4007324F073050C682C438D6843EA60
:1035500005230C4DA8420ED1CD6823F4006343EA45
:1035600005234D6922F4405242EA05128D6923F485
:10357000806342EA05124260C4614968C163036224
:1035800030BD0000002C014030B5046A026A22F40C
:10359000805202624268C3690D6823F4E64343EA3D
:1035A00005238D6824F4005444EA0534064DA842EE
:1035B00004D14D6922F4804242EA85124260C3611F
:1035C00049680164046230BD002C014010B5036AF3
:1035D000046A24F001040462846924F0F00444EADB
:1035E000021423F00A020A438461026210BD10B57E
:1035F000036A046A24F010040462846923F0A003BF
:1036000024F4704444EA023243EA01118261016207
:1036100010BD000070B51548008801F039FA014668
:10362000134801F01FF94FF07E54214601F008FCC9
:10363000104D0146284601F015F9294601F012F90E
:1036400001F070F800F002FA00F0DEFB0A4901F028
:1036500009F90A4901F092F80146204601F002F901
:10366000BDE87040064901F0EBBB00001A000020E5
:1036700000F07F4500401C4600E076450FCF5B3BE5
:1036800033938843FEE74100080218BF04200A0E66
:1036900018BF40F001004FF07F4232EA010108BF3D
:1036A00040F00200012808BF052070470907090EF5
:1036B000002804DB00F1E02080F80014704700F0DF
:1036C0000F0000F1E02080F8141D70472DE9F04153
:1036D0004F1E00EBC7010446D1E9000115461E4606
:1036E00037F006020DD02A46334600F027FE7F1E33
:1036F00004EBC703D3E9002300F0B8FB37F0060260
:10370000F1D1022F25D0042F13D0062F18BFBDE80A
:10371000F0812A46334600F011FED4E90A2300F076
:10372000A5FB2A46334600F009FED4E9082300F041
:103730009DFB2A46334600F001FED4E9062300F043
:1037400095FB2A46334600F0F9FDD4E9042300F046
:103750008DFB2A46334600F0F1FDD4E9022300F048
:1037600085FB2A46334600F0E9FDD4E90023BDE895
:10377000F04100F07BBB00000022134610460149D7
:1037800000F030BC0000F03F012201F000BC00223C
:1037900013461046114600F025BC00F0EFBF6FF055
:1037A0005E01080701F021BC2DE9F0474FF06842A7
:1037B00002EB40030C460546B3F1654F3CBF02EBFC
:1037C0004102B2F1654F80F0CD8000BFC0F3C75217
:1037D000C1F3C753D21A1B2A06DD10F0004F14BFE5
:1037E00087488848BDE8F08712F11A0F2FDA11F0E8
:1037F000004F06D010F0004F0CBF83488348BDE84F
:10380000F0872146284601F02DF80646FFF73BFFDA
:10381000042808BFFFF7C3FF2846FFF734FF05461B
:103820002046FFF730FF04463046FFF72CFF042DFB
:1038300018BF052D08D1042C18BF052C04D1002871
:1038400004BF0220FCF7EFFC3046BDE8F0874200E1
:10385000B2EB410F25D910F0004F19BF6C4F6D4EE0
:103860006D4F6E4E224685F0004415460A4680F0A4
:10387000004110460A1A5200B2F1807F3ED2484001
:103880006749DFF8A0A110F0004F18D04FF03F4873
:10389000384601F0D5FA07465146304601F0D0FAD5
:1038A00017E011F0004F04BF00263746E2D010F0B9
:1038B000004F19BF5C4F5D4E5D4F5E4EDAE74FF033
:1038C0007C58384600F05AFF07465146304600F013
:1038D00055FF06464146284601F022F9214600F0F0
:1038E0004DFF82462146404601F01AF9294601F073
:1038F00014FA514600F0B6FF044604E0214628467B
:1039000000F0B0FF0446014601F00AF980464A493A
:1039100001F006F9494900F031FF414601F000F994
:10392000474900F02BFF414601F0FAF8454900F005
:1039300025FF414601F0F4F8434900F01FFF05461A
:103940004146204601F0ECF8294601F0E9F83146FD
:1039500000F014FF214600F011FF3946BDE8F047A2
:1039600000F00CBF4FF07F42B2EB400F28BFB2EB2C
:10397000410F03D2BDE8F047FFF70FBF40EA010354
:103980005B0008BF44F0FF410AD0B2EB400F08BF14
:10399000B2EB410F06D125F0804024F0804105466E
:1039A0000C4613E7B2EB400F12BF5FEA410345F04C
:1039B000FF4004F000413FF409AFB2EB410F12BFEA
:1039C0005FEA400205F0004044F0FF413FF4FEAEE4
:1039D0004A0092EA40033FF5F9AE002AACBF4FF02F
:1039E0009F464FF03E56314601F09AF80546314663
:1039F000204601F095F8044628462146E6E60000F8
:103A0000DB0FC9BFDB0FC93FDB0F4940DB0F49C0EC
:103A10000000C9BF22AAFDB90000C93F22AAFD3992
:103A20000060ED3EC30ACE37000049C022AA7DBA2D
:103A30000000494022AA7D3A2DAD65BD8FB8D53D25
:103A40000FB511BE61C84C3EA8AAAABE2DE9F04D23
:103A5000C84A002490B0914205DA21F00043934215
:103A600001D805D120B110B0BDE8F04DFFF78CBEF4
:103A7000B1F5801F1BDA53EA000209D0002911DAE0
:103A80000120FCF7D0FB10B0BDE8F04DFFF77FBE82
:103A90000220FCF7C8FBFFF76FFE10B081F0004179
:103AA000BDE8F08D6FF03504362201F070FA04EBBA
:103AB0002152C1F31308B049A2F2FF33414401F48B
:103AC000801282F07F6103EB225281F0405100921C
:103AD00041EA08010022A94B00F03AFD044608F132
:103AE0000200A74EC0F313000D467E44032867D2A0
:103AF000D6E90023204600F0CDFB1ED10098002817
:103B000002BFD6E9000110B0BDE8F08D00F0FEFB69
:103B100007460C469B4A9C4B00F010FC06460D469F
:103B20009A4A9B4B3846214600F008FC10B03246BA
:103B30002B46BDE8F04D00F099B94FF05532954B4A
:103B40002046294600F0FAFB0022934B00F0F4FCDB
:103B500006460F4622462B461046194600F0EEFB5D
:103B600032463B4600F0EAFB064600980F46F0B1AD
:103B700000F0CCFB80468A46824A834B00F0DEFB95
:103B800032463B4600F0D8FC22462B4600F0E0FCD3
:103B900005460C467D4A7E4B4046514600F0CEFB22
:103BA00010B02A462346BDE8F04D00F0D1BC0B46CC
:103BB00010B0324620462946BDE8F04D00F0C8BCA2
:103BC00000224FF08043204600F050F902460B4699
:103BD0002046294600F006FA06460F46009800F0F7
:103BE00095FBCDE9040132463B461046394600F0CC
:103BF000A5FB0C9069480C9A4044019009910B4632
:103C0000104600F09BFB8246024665488B46C8F191
:103C100051080B4608F5D72803217844FFF756FDD5
:103C200052465B4600F08AFB0A905E480D91524670
:103C30005B4604217844FFF749FD099B0C9A00F08C
:103C40007DFB844601980D9B40EA080860460A9A6D
:103C500000F00CF983460891B8F1000F4EDD4FF0EB
:103C6000FF322046294601F092F922462B4600F009
:103C700065FB804600988A4660B3DDE90401414A4D
:103C8000414B00F05BFB099100905A46404651467B
:103C9000089B00F0EBF832463B4600F04FFB099BD7
:103CA000009A00F0E3F84246534600F045FC2246F5
:103CB0002B4600F04DFC04460D46DDE90401334A75
:103CC000334B00F03BFB10B022462B46BDE8F04DD5
:103CD00000F03EBC5A464046089B00F0C7F832460A
:103CE0003B4600F02BFB4246534600F025FC10B04B
:103CF00022462B46BDE8F04D00F01EBC009840B3B4
:103D0000DDE904011F4A204B00F018FB80468A467B
:103D10005A4620462946089B00F01AFC32463B468C
:103D200000F00CFB4246534600F012FC22462B46A4
:103D300000F00EFC04460D46DDE90401134A144B65
:103D400000F0FCFA10B022462B46BDE8F04D00F022
:103D5000FFBB0B465A462046294600F0F9FB324687
:103D60003B4600F0EBFA10B022462B46BDE8F04D82
:103D700000F0E2BB0000F07F645F09000000F03F4C
:103D8000F21B0000763C7935EF39EA3D0000E0FE99
:103D9000422EE63F5555D53F0000E03F86EBF9FF48
:103DA0008A1A0000881A0000FDF7BAFBFFF7A0F896
:103DB000FEF7BCFDFEF7A4FDFEF736FEFEF7DAFEC9
:103DC000FEF766FDFEF750FEFEF76EFEFFF78CF97C
:103DD000FFF7E0F90A20FCF7E1FEF9E770B50546C8
:103DE00000F0A6FF044620F00040C0F1FF40C00FE5
:103DF00008D025F00040C0F1FF40C00F04BF0120F3
:103E0000FCF711FA204670BD21F00042A2F1605289
:103E1000B2F5801F01F0004328BFD2F17F6C0BD9AF
:103E20005FEA001C43EAC20242EB507018BF7047C1
:103E300028BF20F001007047B2F5801FBCBF1846B4
:103E400070474FEA410C1CF5001F02D2084600F0F3
:103E50002EBF70B500F01CFB00000089FFF7F6BF15
:103E60004FF00040A0F580007047000010B591EAC7
:103E7000030F48BF83F0004300F17283841A71EB93
:103E8000030C05D2121943EB0C03001B61EB0C0170
:103E9000DFF824E14FEA1154A4EB135C1EEA430F50
:103EA00018BF9EEA445F73D023EA0E03DCF1200EB4
:103EB00021EA045143F4801332D322FA0CFE10EBB2
:103EC0000E0023FA0CFE41EB0E01CCF1200E03FA9A
:103ED0000EFE10EB0E0051F10001B1F5801FCCF188
:103EE000200E32D201EB045112FA0EF2BDE810405E
:103EF00058BF7047401C38BF5FEA420218BF704786
:103F0000002814BF20F0010041F100014FEA4103F5
:103F100013F5001F38BF7047A1F1C04100F006BB88
:103F2000012A43EB0302ACF1200CDCF11F0E32BF7F
:103F30004FF0000E23FA0CF310EB030041EB045199
:103F4000B4EB115FD0D0A1EB045101F58011490809
:103F50005FEA300001EB04510ED350F1000038BF8E
:103F600012FA0EFE08D1BDE81040C9E7401C38BF68
:103F70005FEA4202CAD1C3E7BDE810404FEA4103FD
:103F800013F5001F38BF7047A1F1C04100F0CEBA51
:103F90009EEA445F08D011EA5E0FBDE8104004BFFE
:103FA00001F0004100207047BDE8104070B500F0FE
:103FB0006FFA00BF64FBBE3E0000E0FF02494FF015
:103FC000000000F0B2BF00BF0000F87F491058BFEA
:103FD000C1F140415B1058BFC3F140438B42EFF346
:103FE000008070472DE9C04130B4DFF8A0C23CEA40
:103FF000111418BF3CEA131400F0EC8081EA0305A9
:104000001CEA111444EAD57418BF1CEA131500F019
:10401000C780A4EB05044FF0004545EAC12145EAFD
:10402000C32341EA505143EA525304F17F74994249
:1040300004F500344FEAC0204FEAC22208BF904284
:1040400000F09C804FEA13650FF24016765D4FEA50
:10405000134506FB05F7C7F1807706FB07F74FEA24
:10406000D737A7FB03687642C8F58038A7FB06CE92
:1040700038BFA8F1010807FB08E64FF0000EA6FBC9
:10408000028CE6FB03CEDCF1000CCEF1004E38BF13
:10409000AEF1010EA6FB0C584FF000074FF00005E3
:1040A000E6FB0E87A1FB08C6A0FB07CE16EB0E06AB
:1040B00045F10005E1FB076515F1E04E7EBFA4F573
:1040C00080345FEA46066D4116F1800745F1000530
:1040D0004FEA17274FEA066647EA0567A6F1DE466C
:1040E000B6F1805F4FEA15251FD9384624F0010C40
:1040F00005EBC471BCF1FE6F01EB0C1102D8F0BCF2
:10410000BDE8008124425CBF01F5801E9EEAC47FA9
:1041100002D4F0BCBDE80081244238D4F0BCA1F147
:10412000C041BDE8004100F001BA4FEAD22242EAA4
:1041300043524FEAD323A7FB02864FEAD02040EA3E
:10414000415007FB03661EEA0E0F4FEAD12105FB23
:10415000026658BFA6EB0056B6EB00564FEA520E69
:104160004EEAC37E18EB0E0E56EB530EBDD518EB80
:1041700002085E417F1C55F10005B6E74FF480153B
:104180004FF000074FF000064FF00008ADE7F0BC1D
:104190004FF0000001F1C04101F00041BDE8008195
:1041A00011EA0C1F0CEA131500D00CE013EA0C1FE7
:1041B00000F025804FF00000F0BC81EA030101F01F
:1041C0000041BDE80081F0BCBDE8004181EA030187
:1041D00000F0ACB9F0BCBDE8004170B500F058F992
:1041E000097EFC3E00F007B881EA03014FF00000B1
:1041F00001F00041704781EA030100F097B9F0BC7B
:10420000BDE800414FF0000021497047FFFDFBF978
:10421000F7F5F4F2F0EEEDEBE9E8E6E4E3E1E0DEF9
:10422000DDDBDAD8D7D5D4D3D1D0CFCDCCCBCAC86B
:10423000C7C6C5C4C2C1C0BFBEBDBCBBBAB9B8B792
:10424000B6B5B4B3B2B1B0AFAEADACABAAA9A8A885
:10425000A7A6A5A4A3A3A2A1A09F9F9E9D9C9C9B53
:104260009A999998979796959594939392919190FE
:104270008F8F8E8E8D8C8C8B8B8A8989888887878F
:104280008685858484838382828181800000FF0704
:104290000000F87F51EA030C17D41CF5801F58BFAB
:1042A000BCF5801F00F10680994218BF704708BF17
:1042B0009042704707D711F5801F58BF13F5801F34
:1042C00019D499427047894270471CF5801F08D560
:1042D000BCF5801FF7D58B4218BF704708BF8242DC
:1042E00070474FF4001C1CEB410F38BF1CEB430F11
:1042F00001D28B42704770B500F0CAF89224490091
:104300004FF000514FF08053FFF760BE10F00042B5
:1043100048BF4042B0FA80F310FA03F10AD0C3F16B
:104320001D0303F580634FEA415002EB035202EB99
:10433000D12170474FF0000070470000DFF848C1FE
:1043400070B51CEA111E1EBF1CEA13159EEA0C0F65
:1043500095EA0C0F00F06F8081EA030423EA4C1306
:104360004EEAD47E21EA4C1141F4801143F48013CB
:10437000AE44A1FB024CA0FB0365AEF17F7E361973
:1043800055EB0C05A1FB034C4CF10003A0FB021CF8
:1043900016EB0C06654153F10003094218BF46F0C5
:1043A000010613F4007F0BD14FEA03314FEA0530C9
:1043B000340341EA155140EA16506FF003020AE057
:1043C0004FEAC3214FEAC520F40241EA555140EAC1
:1043D00056506FF0020202EB2E4201EB025585EAC5
:1043E000CE710AD05FEA440C18BF24F0004450F1AB
:1043F000000041F1000120EAD47040F2FE7C6245E9
:1044000000D270BDA84214BF4FF080444FF040442A
:10441000002E08BF0024BEF1806FA8BFA1F1C041EB
:10442000BDE8704080F282804FF0000001F1C04191
:1044300001F0004170479EEA0C0F0CEA131518BFFB
:1044400095EA0C0F06D04FF0000081EA030E0EF043
:10445000004170BD00F01CF88900013E00F007B873
:1044600000F009B84FEA430C5FEA5C5C08D081EACF
:10447000030100F05BB84FEA410C5FEA5C5CF6D1E7
:104480004FF00000014970470000FF070000F87F6F
:104490000EF1020E2EF0030E5EF8046B364205D4C8
:1044A000012A43EB030515F5001F12D8012841EB43
:1044B000010C1CF5001F0CD80ED14FEAD17C15F56C
:1044C000001F0CEB4C0C0CF1020C08BF4CEBD37C26
:1044D00004E04FF0080C01E04FEAD37C0CEB4C05F4
:1044E00026FA05F606F00706B6F1040C06D20EEB26
:1044F000860CBDE870404CF0010C6047DFE80CF022
:10450000090B02024FF000414FF00000A1F500211D
:1045100070BD19461046012851EB010418BFD4F5AF
:10452000001484BF002001F0004170BD0808A0F510
:1045300000114FEA3101704791EA030F10B581F085
:1045400000413FF59BAC83F0004300F009B8000048
:1045500010B591EA030F48BF83F000433FF58EACDE
:10456000841A71EB030C07D212198CF0004C43EB48
:104570000C03001B61EB0C01DFF8A4E14FEA1154BE
:10458000A4EB135C1EEA430F18BF9EEA445F00F0E1
:10459000B08023EA6E03524221EA0451C3EB6E035A
:1045A00038BF5B1EDCF1200E25D322FA0CFE10EB87
:1045B0000E0043FA0CFE41EB0E01CCF1200E03FA83
:1045C0000EFE10EB0E0051F10001CCF1200E29D4AB
:1045D00012FA0EF201EB0451BDE8104058BF7047CB
:1045E000401C1CBFB2F1004F704700280CBF491C93
:1045F00020F00100704712EB020E43EB030218BFDC
:104600004FF0010E4EEA4202ACF1200CDCF11E0E1E
:1046100054D943FA0CFE10EB0E0051F1FF31CCF1EE
:104620001E0ED5D50EF1010E12FA0EFE404141EBE1
:10463000010101EB445C5FEA5C5C10D910EBDE70B9
:1046400001EB045138BFBEF1004FBDE8104018BF68
:10465000704700280CBF491C20F00100704730D281
:104660004FEAD42C11F5001124F400641BD0B1FAE8
:1046700081F20B3AA41AA41ED2F12003914030FA21
:1046800003F31943904001EBCC71002C01EB045172
:10469000BDE81040A8BF704701F1C0414FF00000D5
:1046A00001F000417047B0FA80F310FA03F100D135
:1046B00010BDE41A173C4805C90AE4E701EB0451B0
:1046C00010BD491001EB0451BDE810404FEA300025
:1046D00002E04FF0000170474A0008BF0042F8D0E6
:1046E000B2F5001F28BF704701F000414FF00000F5
:1046F00070479EEA445F07D011EA5E0FBDE81040A4
:1047000004BF002100207047BDE8104070B5FFF7DE
:10471000BFFE00BF40DFF63E83F000411046704709
:104720000000E0FF43004FEAD30C4FEA3C0C43404B
:104730001FBF40070CF1605113F0FE4F70471CF093
:10474000006F03D100200CF0004170470CF00043D3
:1047500043EA507010B540EACC0000F062FA00BFA6
:10476000000000924FEA0001FFF7E0BE4FF0004169
:104770004FF00000A1F500217047000090EA010F02
:1047800048BF81F0004100F16283421A3CBF801AA9
:1047900089184FEAD0524FF07F4C1CEA410FA2EB30
:1047A000D15318BF9CEA026F00F03B804FF0004CE1
:1047B0004CEA00204CEA012121FA03FC10EB0C0C1E
:1047C0001ED202F1FF325FEA1C2040EBC25038BF1C
:1047D00070471CF07F0F4FEA400C18BFBCF17F4FB1
:1047E00038BF7047C3F12003994008BF20F0010093
:1047F000BCF17F4F38BF7047A0F1C04000F057BAFE
:104800004FEA3C00000A40EBC25028BF1CF0FF0FEB
:104810004FEA400CE6D018BFBCF17F4F38BF70475D
:10482000EAE79CEA026F05D010EA5C0F08BF00F0CF
:104830000040704710B500F0F4F900BF64FBBE3EC5
:10484000014800F072BB00BF0000C07F401058BF9D
:10485000C0F14040491058BFC1F140418142EFF3DF
:10486000008070474FF47F0C1CEAD0121EBF1CEA78
:10487000D11392EA0C0F93EA0C0F00F0858090EAB6
:10488000010F48BF42F4807240F4000C41F4000074
:104890002CF07F4120F07F4000B58142A2EB030263
:1048A0000FF2081CACEB504EC0F100009EF800E087
:1048B0004FEA4E0E00FB0EFC38BF49004FEA2C1C9D
:1048C00002F5FA020CFB0EF34FEACE1E4FEA112C52
:1048D0004FEAC1210EEB635E42EB22420EFB0CFC61
:1048E0004FEA1C5300FB03114FEA112C4FEA013130
:1048F0000EFB0CFC4FEADC4C00FB0C11C14228BF44
:1049000009184CEB03335DF804EB10EB410143EB6A
:10491000C250B2F57C0F38BF704729D512F0F00FA6
:104920001CBF00F1C04000F000407047008182834E
:104930008485868788898B8C8D8E8F9192939596AE
:1049400097999A9C9D9FA0A2A3A5A7A8AAACAEB038
:10495000B2B3B5B7B9BCBEC0C2C5C7C9CCCED1D43D
:10496000D7D9DCDFE2E6E9ECF0F3F7FAFE0000006D
:104970004FEA400C0CF1807CBCF17E4F28BF7047A1
:10498000B0F1C04000F093B990EA010F0CEAD113E6
:1049900048BF42F48072624538BF634507D213F4C2
:1049A0007F0F16D080EA010000F00040704710B57C
:1049B00000F037F9097EFC3E00F005B880EA0100FE
:1049C00000F00040704780EA010000F0004000F075
:1049D0006EB912F47F0F04BF0248704780EA0100ED
:1049E00000F065B90000C07F41000B0ED3F19E02BC
:1049F00008D950F400034FEA032323FA02F048BF1A
:104A00004042704710B500F00CF900BF4992248075
:104A1000002070476FF0004282EA200070470000DB
:104A2000C10DD1F19E0206DB4FEA002343F00043A3
:104A300023FA02F07047004207D54FEA4001B1F176
:104A4000FE4F02D24FF00000704710B500F0E9F8B9
:104A500049922480002070476FEA200070470000D0
:104A600010F0004148BF4042B0FA80F310FA03F260
:104A7000C3F19D030BD051EAC35101EB1220530641
:104A800038BF704700F1010008BF20F001007047F7
:104A9000B0FA80F310FA03F2C3F19D030AD0D905EE
:104AA00001EB1220530638BF704700F1010008BF28
:104AB00020F001007047000050EA010C00F1138063
:104AC0001CF5000F58BFBCF5000F01D48842704799
:104AD00007D710F5000F58BF11F5000F15D4884205
:104AE0007047894270471CF5000F04D5BCF5000FD4
:104AF000F7D5814270474FF0807C1CEB400F38BFE8
:104B00001CEB410F01D28142704710B500F089F8CB
:104B1000922449004FF000504FF08051FFF796BEAD
:104B20004FF47F0C1CEAD0121EBF1CEAD11392EA8C
:104B30000C0F93EA0C0F00F0478090EA010F48BF7A
:104B400042F480724FF0004C4CEA00204CEA012104
:104B500002EB0302A0FB0113A2F50002002918BF1B
:104B600043F001035B0028BF4FEA330342EB2242CC
:104B70005FEA132C4CEBC2502EBFBCEB436FB2F577
:104B80007C0F70474FEA036CBCF1004F08BF20F068
:104B90000100B2F57C0F38BF70470BD582F0FF02E1
:104BA00012F5803FC8BF704700F1C040D8BF00F089
:104BB0000040704700F5000C5FEA4C0C48BF70479E
:104BC000B0F1C04000F073B890EA010F0CEAD113C5
:104BD00048BF42F48072624538BF634504D280EA20
:104BE000010000F00040704710B500F01AF800BF57
:104BF0008900013E00F007B800F009B85FEA410CF7
:104C00005FEA1C6C08D080EA010000F050B85FEA4F
:104C1000400C5FEA1C6CF6D14FF00040A0F580001C
:104C200070470EF1020E2EF0030E5EF8044B244284
:104C300004D44FEA4102B2F17F4F11D84FEA40034A
:104C4000B3F17F4F0CD80ED14FEAD07CB2F17F4F39
:104C50000CEB4C0C0CF1020C08BF4CEBD17C04E0CB
:104C60004FF0080C01E04FEAD17C0CEB4C0324FA26
:104C700003F404F00704B4F1040C06D20EEB840C28
:104C8000BDE810404CF0010C6047DFE80CF007086D
:104C900002024FF00040A0F5800010BD084642001F
:104CA00018BFD2F1807288BF00F0004010BDFF2114
:104CB00041EAD050C005704751EA000C00F1138062
:104CC0001CF5000F58BFBCF5000F01D4814270479E
:104CD00007D711F5000F58BF10F5000F15D481420A
:104CE0007047894270471CF5000F04D5BCF5000FD2
:104CF000F7D5884270474FF0807C1CEB410F38BFDE
:104D00001CEB400F01D28842704780EA010081EA23
:104D1000000180EA0100FFF7F8BE80F0004090EA51
:104D2000010F7FF532AD81F0004100F090B8000036
:104D30004FEAD051002988BFD1F1FF0240F27580BF
:104D400001F17D014FEA002070B5490840F00040B4
:104D500038BF40080EA2430E040CD25C02FB02F3E3
:104D600004FB03F3C3F14043A3FB0254ED0D45EAFA
:104D7000442202FB02F3A0FB03546D42C4F1404401
:104D800038BF641EA2FB05350023E2FB0453EA0B87
:104D900042EA4342A0FB023212F14004A2F1210395
:104DA000E40903F07F031F2B32D904EBC15070BD1F
:104DB000FEFAF7F3F0ECE9E6E4E1DEDCD9D7D4D291
:104DC000D0CECCCAC8C6C4C2C1BFBDBCBAB9B7B6C2
:104DD000B4B3B2B0AFAEACABAAA9A8A7A6A4A3A225
:104DE000A1A09F9E9E9D9C9B9A999897979695941B
:104DF0009393929190908F8E8E8D8C8C8B8A8A89D2
:104E0000898887878686858484838382828181805E
:104E100004FB04F6B6EB004603D5E64248BF641C2B
:104E2000C3E7A64258BF641CBFE711F0FF0F02D1D1
:104E300000F00040704710B5FFF7F3FE7FDBFFBEC8
:104E400090EA010F48BF81F000413FF59EAC421A45
:104E500004D882F00042A0EB020011444FEAD05285
:104E60004FF07F4C1CEA410FA2EBD15318BF9CEAD4
:104E7000026F4AD04FF0004C4CEA00204CEA01216E
:104E800021FA03FCB0EB0C0C0FD412F0FE0F36D05D
:104E90005FEA4C001DD5001240EBC25038BF70478E
:104EA0001CF03F0F18BF70470BE0A2F101025FEA50
:104EB0001C2040EBC25038BF70471CF07F0F18BF5A
:104EC0007047C3F12003994014BF401E20F0010039
:104ED000704780084FEA122308BF7047B0FA80FC81
:104EE000A2EB0C02CCF1280C60FA0CF093EA122F22
:104EF00004BF00EBC25070474FEAC3707047130AFB
:104F00005FEADC1008BF7047F6E79CEA026F04D046
:104F100010EA5C0F08BF0020704710B5FFF781FE54
:104F200040DFF63E81F0004070470CF00F03092B84
:104F300008BF082000F07F800A2B0BD0082B18BF79
:104F4000704708BF1CF0400F0AD04FF000004FF030
:104F5000000170471CF0400F18BF4FF00040704731
:104F60001CF0100F08D020F0704300F07F4242EA9E
:104F7000D3014FEA4370704700F0604021F07F4258
:104F800042EA000201F07F4040EA727070474FF041
:104F9000FF0C4CF4E06C1CEA11531CBF9CEA030CA0
:104FA0009445C2BFDA4201EB02517047002B0DD08D
:104FB000BCF1000F0FD0002A01F00041A4BF41F066
:104FC000E04141F07F614FF00000704701F0004187
:104FD0004FF00000704750EA01334FF09B0C18BFB0
:104FE0004CF0806C7EF4EAAF70474FF0FF0212EA9B
:104FF000D0521CBF92F0FF038B42C2BFD14200EBE4
:10500000C1507047002A0AD0002B0BD0002900F0B5
:105010000040A4BF40F0FE4040F40000704700F0A4
:105020000040704743024FF00B0C18BF4CF0806CEF
:105030007FF406AC70471CF4801F11D01CF4E02FE5
:1050400003D06FEACC31490070474FF04050EFF386
:10505000008222F0704242EA000282F30088704728
:105060004FF000007047000000000000000000004A
:10507000000000000000000000F800000000000038
:1050800000333000000000100C06100C0600000079
:1050900000000000000040C07840C0784000043F9D
:1050A00004043F040400007088FC0830000000186D
:1050B00020FF211E0000F008F000E0180000002191
:1050C0001C031E211E0000F00888700000001E2135
:1050D00023241927211010160E00000000000000E4
:1050E000000000000000000000E0180402000000C2
:1050F00000071820400000020418E00000000040F3
:10510000201807000000404080F08040400002026C
:10511000010F01020200000000F000000000010188
:10512000011F01010100000000000000000080B02C
:1051300070000000000000000000000000000001FE
:105140000101010101010000000000000000003029
:1051500030000000000000000000806018040060C3
:1051600018060100000000E010080810E000000F21
:10517000102020100F00001010F800000000002088
:10518000203F2020000000700808088870000030D0
:105190002824222130000030088888483000001878
:1051A000202020110E000000C02010F80000000791
:1051B0000424243F240000F8088888080800001907
:1051C000212020110E0000E0108888180000000F38
:1051D000112020110E0000380808C838080000000F
:1051E000003F000000000070880808887000001C64
:1051F000222121221C0000E010080810E00000001D
:10520000312222110F00000000C0C0000000000089
:1052100000303000000000000080000000000000AE
:1052200080600000000000008040201008000001A5
:105230000204081020004040404040404000040468
:105240000404040404000008102040800000002032
:10525000100804020100007048080808F00000006F
:10526000003036010000C030C828E810E000071800
:10527000272423140B000000C038E0000000203C6D
:1052800023020227382008F8888888700000203F11
:10529000202020110E00C030080808083800071828
:1052A00020202010080008F808080810E000203F1F
:1052B000202020100F0008F88888E8081000203F00
:1052C00020202320180008F88888E8081000203FD4
:1052D000200003000000C03008080838000007184C
:1052E0002020221E020008F808000008F808203FCD
:1052F000210101213F20000808F8080800000020D3
:10530000203F2020000000000808F8080800C080A6
:1053100080807F00000008F888C028180800203F1F
:1053200020012638200008F8080000000000203F77
:1053300020202020300008F8F800F8F80800203F6E
:10534000003F003F200008F830C00008F808203F68
:10535000200007183F00E01008080810E0000F10B8
:10536000202020100F0008F808080808F000203F4F
:10537000210101010000E01008080810E0000F18EA
:10538000242438504F0008F8888888887000203F0F
:105390002000030C3020007088080808380000380E
:1053A000202121221C00180808F808081800000015
:1053B000203F2000000008F808000008F808001F3F
:1053C000202020201F000878880000C8380800002E
:1053D00007380E010000F80800F80008F800033C48
:1053E0000700073C03000818688080681808203010
:1053F0002C03032C30200838C800C83808000000EF
:10540000203F2000000010080808C8380800203895
:10541000262120201800000000FE020202000000E9
:10542000007F40404000000C30C000000000000041
:1054300000010638C00000020202FE000000004029
:1054400040407F000000000004020202040000004F
:10545000000000000000000000000000000080804C
:105460008080808080800002020400000000000034
:105470000000000000000000808080800000001913
:10548000242222223F2008F8008080000000003FF4
:10549000112020110E000000008080800000000E0E
:1054A000112020201100000000808088F800000EEC
:1054B000112020103F200000808080800000001F0D
:1054C000222222221300008080F088888818002081
:1054D000203F202000000000808080808000006B42
:1054E00094949493600008F8008080800000203F2E
:1054F000210000203F20008098980000000000203C
:10550000203F20200000000000809898000000C08C
:105510008080807F000008F8000080808000203FAD
:1055200024022D302000000808F8000000000020B0
:10553000203F202000008080808080808000203FED
:1055400020003F20003F8080008080800000203FBE
:10555000210000203F200000808080800000001F8C
:10556000202020201F00808000808000000080FF1D
:10557000A12020110E000000008080808000000E1D
:10558000112020A0FF80808080008080800020206B
:105590003F212000010000008080808080000033D7
:1055A000242424241900008080E080800000000072
:1055B000001F202000008080000000808000001F6D
:1055C000202020103F20808080000080808000010B
:1055D0000E300806010080800080008080800F303F
:1055E0000C030C300F0000808000808080000020C1
:1055F000312E0E31200080808000008080808081EC
:105600008E7018060100008080808080800000215C
:10561000302C2221300000000000807C02020000BB
:105620000000003F404000000000FF0000000000BC
:105630000000FF0000000002027C8000000000402B
:10564000403F0000000000060101020204040000C7
:105650000000000000000000200001000200001017
:1056600000080140000C0140000C0140000C01400A
:105670006B0019071A061B181C000102020304051F
:10568000060708090A0B0C0D0E0F10100000000091
:1056900000000000010203040607080900000000E2
:1056A000010203040000000004FA97999999D93F78
:1056B000AF788E1DC571CC3F9FC678D0099AC33F85
:1056C000935555555555E53F599322942449D23F5A
:1056D000DE03CB966446C73F44523EDF12F1C23F21
:1056E0000000000000000000085700080000002033
:1056F00060000000280100086857000860000020D2
:105700004008000044010008000000000000000004
:105710000000000000000000000000000000000089
:105720000000000000000000000000005A0000001F
:105730000000000000000000000000000000000069
:105740000000000000000000000000000000000059
:105750000000F0415A0000000100000010000000AD
:085760000000000000127A00B5
:04000005080000ED02
:00000001FF
