:020000040800F2
:10000000C8070020890100084B1E0008E7180008F7
:10001000491E0008F5030008B52100080000000093
:100020000000000000000000000000002F20000879
:100030002F040008000000002D20000831200008D7
:10004000A3010008A3010008A3010008A301000800
:10005000A3010008A3010008310400083F040008C0
:10006000A3010008A3010008A3010008F903000888
:10007000A3010008A3010008A3010008A3010008D0
:10008000A3010008A3010008A3010008A3010008C0
:10009000A3010008A3010008A3010008450400080B
:1000A000A3010008A3010008A3010008A3010008A0
:1000B000A3010008A3010008A3010008A301000890
:1000C000A3010008A3010008A3010008A301000880
:1000D000A3010008A3010008A3010008A301000870
:1000E00037040008A3010008A301000800F002F88B
:1000F00000F03AF80AA090E8000C82448344AAF188
:100100000107DA4501D100F02FF8AFF2090EBAE885
:100110000F0013F0010F18BFFB1A43F0010318473B
:10012000403A0000603A0000103A24BF78C878C115
:10013000FAD8520724BF30C830C144BF04680C60ED
:10014000704700000023002400250026103A28BF35
:1001500078C1FBD8520728BF30C148BF0B60704739
:100160001FB51FBD10B510BD00F06CF81146FFF7AC
:10017000F7FF02F045FA00F08AF803B4FFF7F2FF48
:1001800003BC00F08DF8000009488047094800478B
:10019000FEE7FEE7FEE7FEE7FEE7FEE7FEE7FEE737
:1001A000FEE7FEE704480549054A064B7047000094
:1001B000AD200008ED000008C8010020C80700209D
:1001C000C8030020C80300204FF0000200B513460A
:1001D00094469646203922BFA0E80C50A0E80C5067
:1001E000B1F12001BFF4F7AF090728BFA0E80C5018
:1001F00048BF0CC05DF804EB890028BF40F8042B11
:1002000008BF704748BF20F8022B11F0804F18BF7D
:1002100000F8012B704770477047704710B500F029
:1002200009F8006810BD10B5044600F003F804603A
:1002300010BD00000048704764010020004870476E
:10024000640100207546FFF7F9FFAE4605006946D8
:10025000534620F00700854618B020B5FFF7A2FFEF
:10026000BDE820404FF000064FF000074FF00008B7
:100270004FF0000B21F00701AC46ACE8C009ACE838
:10028000C009ACE8C009ACE8C0098D46704710B59C
:100290000446AFF300802046BDE81040FFF76DBF75
:1002A00001491820ABBEFEE726000200704700009F
:1002B00070B5044600688168C943C90717D18168D1
:1002C00021F00101816000F009FD05460AE000BF50
:1002D00000F004FD401B022804D920688068C04358
:1002E000C00706D020688068C043C007F0D0002057
:1002F00070BDA06A40F01000A062E06A40F001000A
:10030000E062012070BD10B50146406A826A12F0B9
:10031000500F05D0006A026BBDE810400846104738
:10032000816A41F40071816201688968C1F34241C8
:1003300007290CD1017B51B9816A21F48071816256
:10034000816AC90403D4816A41F00101816200F02D
:100350000BF910BD10B5406A816A41F0400181621D
:10036000C16A41F00401C16200F00FF910BD10B57F
:10037000406A00F009F910BDF8B500260446009661
:1003800000688168C943C9072DD0816841F0010127
:100390008160164816490068B0FBF1F000E0401E8D
:1003A00000900028FBD100F099FC054616E000BF44
:1003B00000F094FC401B022810D920688068C043DC
:1003C000C0070BD0A06A40F01000A062E06A40F0C5
:1003D0000100E06284F824600120F8BD2068806894
:1003E000C043C007E4D10020F8BD00002000002079
:1003F00040420F00FEE70000014800F023BA000071
:100400008400002030B590F840500124AC40C56B0A
:100410006C60046863604368102B036803D09960C4
:100420000068C26030BD9A600068C16030BD70472E
:10043000012000F051BB4FF4805000F04DBB022072
:1004400000F04ABB202000F047BB00000448002118
:100450000180418001713C21024801F0FDB900009A
:10046000000000201C01002072B6FEE7F8B5002451
:10047000009490F824202546012A12D0012280F809
:1004800024204A681F23072A0DD20668776B521E64
:1004900002EB820293409F430B6893401F437763B4
:1004A00019E00220F8BD06680D2A0AD2376BD21F68
:1004B00002EB820293409F430B6893401F433763D4
:1004C00009E0F76A0D3A02EB820293409F430B6802
:1004D00093401F43F7620A68072306680A2A0AD373
:1004E000F7680A3A02EB420293409F438B689340BD
:1004F0001F43F76008E0376902EB420293409F43D5
:100500008B6893401F4337610A68102A01D0112A73
:1005100020D1124B02689A4217D193681B0219D45A
:10052000936843F4000393600968102912D10C49C1
:100530000C4A0968B1FBF2F101EB8101490000E0CE
:10054000491E00910029FBD104E0816A41F020019D
:100550008162012480F824502046F8BD0024014027
:100560002000002040420F0000680549884205D164
:100570000448011F02880A80808848807047000074
:10058000002401400C000020704770472DE9F04125
:100590004FF0000704003D467ED0A06A002628B92F
:1005A000E66284F82460204600F07EF82046FFF7DB
:1005B0007FFEA16AC90600D420B1A06A40F01000F5
:1005C000A06269E0A16A21F4885141F00201A162B0
:1005D0006268E169237B0A4347EA43010A43A16851
:1005E0004FF48077B94209D0012907D05FF00001AC
:1005F00094F814C0BCF1010F02D00AE03946F7E7C5
:10060000F3B1A36A43F02003A362E36A43F001035A
:10061000E3622368D3F804C02CF4694C4CEA010C63
:10062000C3F804C021688B68DFF870C003EA0C03CC
:1006300013438B60A168B9420BD0012909D00CE0AB
:10064000DFF85CC0A3690CEB43330B4343F4006158
:10065000DFE7218A0D05A5F580152168CB6A23F413
:1006600070032B43CB62216889680E4B194091427D
:1006700008D1E662A16A21F0020141F00101A16204
:10068000BDE8F081A06A20F0020040F01000A062F6
:10069000E06A40F00100E0620120F1E7FDF7E1FFD0
:1006A00000E0FFFFFE0E1FFF70B586B00026054676
:1006B000009601960296039600681A4988422ED148
:1006C0001949886940F400708861886900F40070F5
:1006D0000490886940F0040088618869694600F0E8
:1006E00004000490032000900190104800F000FAEC
:1006F000104C0F48C4E900068020C4E90260800065
:100700002061800060612020A0610002E06120463D
:1007100000F042F908B1FFF7A7FE2C62656206B04F
:1007200070BD00000024014000100240000801409C
:1007300008000240840000202DE9F0478946044665
:100740003B4900683B4F0E1D9046884201D0B8429D
:1007500007D1306810F4702F03D001252846BDE87A
:10076000F08794F8240001280CD0012084F824009C
:100770002046FFF701FE05004FF0000004D084F88A
:100780002400EBE70220EAE7A16A40F60162914308
:1007900041F48071A1622168B94218D1326812F423
:1007A000702F14D0A16A41F48011A162316849050B
:1007B00005D5A16A21F4005141F48051A162A16ADA
:1007C000C9040AD5E16A21F00601E16206E0A26AE5
:1007D00022F48012A2624968E9E7E06284F824000A
:1007E000216A15488862216A1448C862216A14483F
:1007F000086321686FF0020008602068816841F496
:1008000080718160216843464A464C31206A00F07D
:10081000F1F820688168C1F342410729816803D05B
:1008200041F48011816099E741F4A001FAE70000EA
:100830000024014000280140070300086F0300085E
:10084000550300082DE9F05FC16B0C6801680B6867
:10085000D0F840C0042202FA0CF2494DDFF824A17E
:10086000494E4A4FDFF828B1DFF828E122422CD068
:100870005A072AD50A68920603D40A6822F00402AD
:100880000A600168A94201D1042219E0514501D151
:10089000402215E0B14202D14FF4806210E0B9422B
:1008A00002D14FF480420BE0594502D14FF480222F
:1008B00006E0714502D14FF4800201E04FF0806202
:1008C0002F4908394A60C16A3BE04FF0020808FA34
:1008D0000CF818EA040F4FF000094FF0010235D070
:1008E0005FEA837832D50B689B0605D40B6823F04A
:1008F0000A030B6080F821200168A94201D102227D
:1009000019E0514501D1202215E0B14202D14FF446
:10091000007210E0B94202D14FF400520BE0594589
:1009200002D14FF4003206E0714502D14FF40012BB
:1009300001E04FF00072124908394A6080F82090B7
:10094000816A00291AD0BDE8F05F0847082505FA3A
:100950000CF5254212D01B0710D50B6823F00E03AF
:100960000B6090F84010C36B02FA01F1596082638A
:1009700080F8212080F82090016BE2E7BDE8F09F2D
:10098000080002401C0002403000024044000240C7
:10099000580002406C00024030B528B308C8134923
:1009A00014221944B1FBF2F18900C163104981633B
:1009B000022141771A6843F6F0718A43D0E90014A6
:1009C0002143D0E902452C43214304692143446972
:1009D00021438469214311431960002141630122AD
:1009E00042770177084630BD012030BDF8FFFDBFDA
:1009F0000000024070B5044690F820000025012850
:100A00000CD0012084F8200094F821600020012EF1
:100A100006D084F820000225284670BD022070BD53
:100A2000022684F82160A0632068066826F001068B
:100A300006602046FFF7E6FCE06A002820680168AF
:100A400002D041F00E0106E021F0040101602068AF
:100A5000016841F00A0101602068016841F001016C
:100A60000160D9E770B5044600F038F90546601C0E
:100A700002D004480078044400F030F9401BA04242
:100A8000FAD370BD1400002070B5124C0125202847
:100A90000DD0012810D0022814D0B0F5805F05D108
:100AA00000F01CF9A06204F8245F257270BD00F00C
:100AB00015F960602570F8E700F010F920612573E2
:100AC000257570BD00F00AF9E061257684F82050A4
:100AD00070BD000024000020044910B50A680242DD
:100AE00002D00860FFF7D0FF10BD000014040140E1
:100AF0002DE9F84FDFF8B8910024A9F1040B234643
:100B00000F2709F1040AABF1040EC9E00125A54045
:100B10002A40AA427DD1674ED1F804C0ACEB06084A
:100B2000B44532D014DCBCF1030F3AD009DCBCF17F
:100B3000000F2AD0BCF1010F1CD0BCF1020F31D143
:100B40001DE0BCF1110F17D0BCF1120F2AD119E032
:100B5000B8F5881F19D006DCB8F5803F15D0B8F578
:100B6000801F1FD111E0B8F5001F0ED0B8F5041F8B
:100B700018D10AE0CB6815E0CB681B1D12E0CB68EA
:100B800008330FE0CB680C330CE08B682BB1012BE2
:100B90004FF0080303D0456104E0042302E005613F
:100BA00000E00023FF2A01D8064601E000F1040618
:100BB0004FEA840501D9A5F12005D6F8008007FA8F
:100BC00005FC28EA0C0803FA05F548EA0508C6F80A
:100BD00000804D68ED0062D5374DAE6946F00106E4
:100BE000AE61AD6924F0030605F001050095334DB3
:100BF00006EB050CDCF80850A607360F07FA06F8D6
:100C000025EA0805DFF8B880404503D14FF0000819
:100C100017E044E0DFF8AC80404502D14FF0010816
:100C20000FE0DFF8A480404502D14FF0020808E051
:100C3000DFF89880404502D14FF0030801E04FF003
:100C4000040808FA06F848EA0508CCF808804D6858
:100C5000D9F80060ED024D4601D5164300E09643F9
:100C60002E604D68DAF80060AD02554601D5164396
:100C700000E096432E604D68DBF80060AD035D46F2
:100C800001D5164300E096432E604D68DEF8006003
:100C9000ED03754601D5164300E096432E60641CB3
:100CA0000D682A46E5407FF431AFBDE8F88F0000BB
:100CB0000804014000001110001002400000014033
:100CC00000080140000C01400010014000140140E8
:100CD0000AB1016170470904FBE700000148806820
:100CE000704700001400002070B5040025D094F86F
:100CF0003D00002520B984F83C50204600F04EF914
:100D0000242084F83D002068016821F00101016081
:100D10002068016841F4004101602068016821F405
:100D20000041016000F00CFB4D4A6168914201D81E
:100D30004C4900E04C49884201D2012070BD4B492A
:100D40002368B0FBF1F15E6826F03F060E435E605B
:100D50006368934206D94FF4967359434FF47A73FC
:100D6000B1FBF3F12368491C1E6A26F03F063143AC
:100D700019626168914210D84900401EB0FBF1F23F
:100D8000521CC2F30B02042A01D2042022E0B0FB61
:100D9000F1F0401CC0F30B001CE0A268F2B301EBC1
:100DA000C10303EB0116431EB3FBF6F35B1C43F4D4
:100DB00080431B0549D092B301EBC10202EB011144
:100DC000401EB0FBF1F0401CC0F30B0040F480402B
:100DD00040F400402168CA694CF6FF739A431043FF
:100DE000C861D4E9071001432068026822F0C002FC
:100DF00011430160D4E9030101432068826848F28D
:100E0000FF339A4311438160D4E905010843216807
:100E1000CA6822F0FF021043C86001E00EE016E04D
:100E20002068016841F0010101602564202084F8F8
:100E30003D00256384F83E50002070BD01EB410663
:100E4000431EB3FBF6F35B1CB3E70120C2E701EBE3
:100E50004101401EB0FBF1F0401CC0F30B00B7E7AE
:100E6000A086010080841E0000093D0040420F0062
:100E70002DE9F84F1F4690468A460446DDF8289033
:100E8000FFF72CFF054694F83D0020287FD1192359
:100E9000012240492046009500F0B8FD002876D197
:100EA00094F83C00012872D0012084F83C002068AE
:100EB0000168C90703D1016841F0010101602068A0
:100EC000016821F400610160212084F83D001020B8
:100ED00084F83E0000262664C4F824806785608D6F
:100EE00020852D48E0622B464A465146204600F0B8
:100EF00013FD90B9206841698069009036E02A4668
:100F00004946204600F028FE50B1206C042804D148
:100F10002068016841F4007101600120BDE8F88F8C
:100F2000606A216800780861606A401C6062618DB7
:100F3000491E6185218D491E89B221852268536928
:100F4000DB435B070BD451B100781061606A401C31
:100F50006062608D401E6085208D401E20852A467F
:100F60004946204600F026FD0028CED1208D0028DD
:100F7000C5D154F83D0B016841F400710160202097
:100F800004F81E09E67766770020C7E7FFE702202E
:100F9000C4E70000020010000000FFFF10B586B09B
:100FA0000021009101910291039100680F4988424C
:100FB0001AD10F4CA06940F00800A061A0696946F1
:100FC00000F008000490C02000901220019003203F
:100FD00003900848FFF78CFDE06940F40010E061E1
:100FE000E06900F40010049006B010BD0054004009
:100FF00000100240000C0140024881680278114450
:101000008160704714000020074810B5016841F066
:1010100010010160032000F075F8012000F006F8CF
:1010200000F024F8002010BD0020024070B50D4DE6
:1010300004464FF47A712878B1FBF0F00A49096848
:10104000B1FBF0F000F042FB48B9102C07D20022AF
:101050002146501E00F036F800206C6070BD012063
:1010600070BD000014000020200000200C4808B5CE
:10107000816941F001018161816901F00101009103
:10108000C16941F08051C161C06900F08050009099
:101090000448416821F0E06141F00071416008BD01
:1010A0000010024000000140002809DB00F01F0290
:1010B000012191404009800000F1E020C0F80011BA
:1010C00070470000F0B40E4B1B680C46C3F30223BC
:1010D000C3F10705042D00D90425191D072901D2E4
:1010E000002300E0DB1E012606FA05F1491E21401F
:1010F00099409E40761E16403143F0BC01F05BB82B
:101100000CED00E0064900F0070208684FF6FF0307
:10111000184040EA0220034A10430860704700006C
:101120000CED00E00000FA052DE9F84305460078D3
:10113000354CC00754D0E0690026C00008D4E069EF
:1011400040F08050E061E069012600F0805000909E
:101150002E480168C90512D40168804641F48071A7
:101160000160FFF7BBFD074605E000BFFFF7B6FDD6
:10117000C01B642823D8D8F80000C005F6D5206A23
:1011800010F4407021D0A98801F4407181421CD034
:10119000206A1F49012220F440700A6000220A6080
:1011A0002062C00711D0FFF799FD074641F2883849
:1011B00008E000BFFFF792FDC11B414502D90320A3
:1011C000BDE8F883206A8007F4D5206A696820F4B6
:1011D0004070084320621EB1E06920F08050E06159
:1011E0002878800705D56068A96820F44040084346
:1011F00060602878C00605D56068E96820F4800042
:10120000084360600020DBE70010024000700040EF
:10121000400442422DE9F0470F46050061D0434E9D
:10122000306800F00700B84209D2306820F00700AB
:1012300038433060306800F00700B84251D1286868
:101240003B4C810712D5400703D5606840F4E0604D
:1012500060602878000703D5606840F460506060E3
:101260006068A96820F0F000084360602878C00733
:1012700028D06868012810D02168022810D089077A
:1012800000292EDA616821F0030101436160FFF754
:1012900025FD804641F288390DE021688903EFE79A
:1012A0008901EDE7FFF71AFDA0EB0801494502D9D6
:1012B0000320BDE8F0876068696800F00C00B0EBBF
:1012C000810FEFD1306800F00700B8420BD93068C9
:1012D00020F0070038433060306800F00700B84263
:1012E00001D00120E5E72878400705D56068E96866
:1012F00020F4E060084360602878000706D5606845
:10130000296920F4605040EAC100606000F028F8CC
:101310006168084AC1F30311515CC840064908607E
:1013200006480068FFF782FE0020C2E70020024066
:1013300000100240083B0008200000201800002098
:101340000448054900684968044AC1F30221515C18
:10135000C84070472000002000100240183B0008E1
:101360000E4A51680E4801F00C03042B11D0082BD3
:101370000FD10C48C1F38343C903C05C0AD551683F
:10138000084AC1F34041921E515C054A5043B0FBEC
:10139000F1F07047044948437047000000100240D4
:1013A00000127A00F83A000800093D002DE9F84FD4
:1013B000040070D02078C04DC00749D06868C0F3E1
:1013C0008100012807D06868C0F38100022809D194
:1013D0006868C00306D52868800339D5606800288E
:1013E000E7D035E06068B0F5803F0BD010B1B0F5C4
:1013F000A02F11D0286820F480302860286820F4BD
:10140000802002E0286840F480302860606890B155
:10141000FFF764FC06460AE0286840F48020286054
:10142000F0E700BFFFF75AFC801B642873D82868D8
:101430008003F7D50CE0FFF751FC064605E000BF3E
:10144000FFF74CFC801B6428F0D828688003F7D491
:1014500020789A4E80074FF001094FF0000839D5E7
:10146000686810F00C0F07D06868C0F3810002288C
:1014700009D16868C00306D42868800714D520699C
:10148000012808D110E02069B0B1C6F80090FFF73C
:1014900025FC074605E00AE1FFF720FCC01B0228F7
:1014A000C4D828688007F7D52868616920F0F8005B
:1014B00040EAC10028600DE0C6F80080FFF70EFC8E
:1014C000074604E0FFF70AFCC01B022823D828685F
:1014D0008007F7D4207800072CD57948A169D9B1C5
:1014E000C0F80090FFF7FAFB074604E0FFF7F6FBB1
:1014F000C01B02280FD8686A8007F7D571484FF4DF
:10150000FA510068B0FBF1F0009000BF0098411E56
:101510000091FAD20EE080E0C0F80080FFF7DEFB19
:10152000074604E0FFF7DAFBC01B022875D8686A9B
:101530008007F7D42078400760D5E8690027C0000D
:1015400008D4E86940F08050E861E869012700F0BC
:10155000805000905C480168C90513D40168834637
:1015600041F480710160FFF7B9FB824606E000BFDD
:10157000FFF7B4FBA0EB0A0064284ED8DBF80000AC
:10158000C005F5D5E06801280AD008B1052813D0B8
:10159000286A20F001002862286A20F0040002E096
:1015A000286A40F001002862E06841F2883B98B167
:1015B000FFF794FB82460BE0286A40F004002862A3
:1015C000EEE700BFFFF78AFBA0EB0A0159455AD8A6
:1015D000286A8007F6D50CE0FFF780FB824605E01D
:1015E000FFF77CFBA0EB0A0159454CD8286A80071D
:1015F000F6D41FB1E86920F08050E861E06988B353
:101600006968C1F38101022944D00228C6F86080CC
:1016100004D0FFF763FB044638E034E0FFF75EFBDD
:10162000074604E0FFF75AFBC01B02282BD82868A6
:101630008001F7D4206AB0F5803F05D16868A168C1
:1016400020F4003008436860D4E908010843696861
:1016500021F4741108436860C6F86090FFF73EFB00
:10166000044606E025E000BFFFF738FB001B022818
:1016700009D828688001F7D51BE000BFFFF72EFBD3
:10168000001B022802D90320BDE8F88F28688001DA
:10169000F4D40EE00128F7D06868226A00F48031A3
:1016A000914204D1616A00F47010884201D0012097
:1016B000EAE70020E8E70000001002400000424294
:1016C00080044242200000200070004010B5401EFF
:1016D000B0F1807F01D3012010BD4FF0E0246061A4
:1016E0000F21601700F067FD0020A0610720206136
:1016F000002010BD70B590F83C20012A26D00124AE
:1017000080F83C40022280F83D2003685A689D68BA
:1017100022F070060A6832435A600D4B02689A4202
:1017200008D0B2F1804F05D00A4B9A4202D00A4B42
:101730009A4204D1496825F080031943916080F8EA
:101740003D40002180F83C10084670BD022070BD6D
:10175000002C014000040040000800402DE9F04149
:101760000D46040003D094F83D0018B108E00120B4
:10177000BDE8F081002084F83C00204600F040F8ED
:10178000022084F83D002068816844F207029143FA
:101790008160211D206800F08BFC226890689169AF
:1017A000166A2B68AF69034340F20330814341EA74
:1017B0000721A868EF6908434FF6FC418843E968B0
:1017C00040EA0720014328692F6A000140EA0730F8
:1017D000084369686D6926F0220646EA0515294323
:1017E00093602268906154F8460B0162012004F86E
:1017F0001F09E0752076E0762077A0750020B7E716
:1018000000B585B00021009101910291039100681B
:101810000E49884218D10E48C16941F00201C161E8
:10182000C16901F002010491816941F00401816103
:101830008069694600F004000490C02000900120F7
:1018400002900448FFF754F905B000BD00040040C1
:10185000001002400008014070B590F83E60044658
:1018600090F83F5090F8423090F84320022021B188
:1018700004290ED0012E1BD114E0012E18D1012B0A
:1018800016D184F83E0084F842000122002120682D
:1018900020E0012D0CD1012A0AD184F83F0084F800
:1018A000430014E0012D03D1012B01D1012A01D005
:1018B000012070BD84F83E0084F83F0084F84200A7
:1018C00084F8430001220021206800F02DFC012251
:1018D0000421206800F028FC2068016841F0010123
:1018E0000160002070BDFEE701684A69D2435205DD
:1018F0000FD46FF480624A61002140F8301F20222B
:1019000042738173026942F0040202610173012093
:101910007047002070470000F8B50446C06A1E46B4
:101920000D461746082807D0012805D010F5803F3E
:1019300002D0206B122804D12068016841F4807124
:101940000160134600224FF001112046009600F07E
:101950005DF840B120680068C00502D54FF4007002
:1019600020640320F8BD2069B0F5804F0ED006201A
:10197000216800EAD51040F0F000086133463A468D
:101980000B49204600F08AF878B902E005F0FE0025
:1019900000E0E8B221680861054933463A46891FEC
:1019A000204600F07BF80028DCD00120F8BD0000C4
:1019B0000800010070B516460D4604461EE020469C
:1019C000FFF792FF08B1012070BD681C16D0FFF729
:1019D00085F9801BA84200D885B920684069C043BA
:1019E00040070BD5002044F8300F20216173A0730D
:1019F000216941F0200121612073E4E720684069FA
:101A0000C0434007DBD4002070BD00002DE9F04743
:101A1000984617460D460446C1F30746DDF8209068
:101A20002AE000BFB8F1FF3F26D0FFF757F9A0EB3F
:101A30000901414502D8B8F1000F1DD12068012EDF
:101A400016D0806925EA00000004000C12D00020A6
:101A5000B84211D1002044F8300F20216173A073E7
:101A6000216941F02001216120730120BDE8F08748
:101A70004069E7E70120EBE72068012E0AD0806982
:101A800025EA00000004000C06D00020B842C9D0AE
:101A90000020EBE74069F3E70120F7E72DE9F04785
:101AA000984616460D4604464FF000094FF0200AAE
:101AB000C1F3074723E020684069C043400515D4BF
:101AC0002068016841F40071016021686FF4806052
:101AD0004861C4F8309084F83DA084F83E90216CB1
:101AE00041F00401216484F83C9021E0701C06D090
:101AF000FFF7F4F8A0EB0800B04203D816B1012FAD
:101B00001FD021E02068012F15D0806925EA000050
:101B10000004000C18D000BF44F8309F84F80DA0DA
:101B200084F80E90216941F02001216184F80C9025
:101B30000120BDE8F087406925EA00000004000CA0
:101B4000EAD12068406901E02068806925EA000048
:101B50000004000CAFD1ECE770B516460D46044604
:101B60001EE02046FFF7C0FE08B1012070BD681CD2
:101B700016D0FFF7B3F8801BA84200D885B92068BB
:101B80004069C04300060BD5002044F8300F2021E7
:101B90006173A073216941F0200121612073E4E7A2
:101BA00020684069C0430006DBD4002070BD0000FF
:101BB0000C480088A0F2E931B1F5F97F01D8022084
:101BC0007047A0F2DD5140F2DB52914201D2012078
:101BD000704740F6B831884201D900207047032091
:101BE0007047000008000020054864210088484331
:101BF00040F6FF71B0FBF1F0C0F16400C0B2704775
:101C000008000020FEB500241848009401941649ED
:101C1000029401608915816001250573047502260F
:101C200006614FF460214460C161FEF7AFFC08B16A
:101C3000FEF71AFC07200094CDE9015069460B48D5
:101C4000FEF714FC08B1FEF70FFCCDE9005669461B
:101C50000648FEF70BFC08B1FEF706FC0222044919
:101C60000248FEF769FDFEBD00240140540000203B
:101C70000C000020094808B5416941F001014161AB
:101C80004069002200F00100009011460B20FFF790
:101C900019FABDE808400B20FFF706BA0010024011
:101CA000F0B585B00025394800950195029503955A
:101CB000816941F010018161816901F01001049195
:101CC000816941F020018161816901F02001049165
:101CD000816941F004018161816901F0040104918D
:101CE000816941F0080181618069294F00F0080095
:101CF0000490012241F604613846FEF7E9FF042012
:101D000001248DE83100694638460394FEF7F0FE61
:101D1000204E2020CDE90006694602943846FEF7A1
:101D2000E7FE41F20300CDE90006694602941A4835
:101D3000FEF7DEFE4FF4F0508DE8310003200390F3
:101D400069463846FEF7D4FE002202210620FFF73E
:101D5000B9F90620FFF7A8F9002202210720FFF7B2
:101D6000B1F90720FFF7A0F9002202211720FFF7A1
:101D7000A9F91720FFF798F9002202212820FFF780
:101D8000A1F92820FFF790F905B0F0BD001002403E
:101D90000008014000002110000C01400D4810B562
:101DA0000B4901600C49416000214FF48042816081
:101DB000C0E9031241618161C1610162FEF794FFD4
:101DC000002803D0BDE81040FEF74EBB10BD000058
:101DD00000540040C8000020A086010010B58CB05F
:101DE00024216846FEF7F0F90024164809941449A6
:101DF0000A94C0E900144FF6FF71C0E90241046182
:101E000084610120CDE90004CDE902040F21049191
:101E1000CDE90540CDE9074169460A48FFF79EFC38
:101E200008B1FEF721FB099409A906480A94FFF7B7
:101E300061FC002801D0FEF717FB0CB010BD0000BC
:101E4000000400401C010020FEE7FEE770B50024FE
:101E50000021204600F05EF80025002000F0D2F8B6
:101E60006D1CEDB2802DF8D3641CE4B2082CEFD3C6
:101E700070BD10B5AE2000F0B5F8D52000F0B2F876
:101E8000802000F0AFF8A82000F0ACF83F2000F070
:101E9000A9F8D32000F0A6F8002000F0A3F8402015
:101EA00000F0A0F8A12000F09DF8C82000F09AF8FA
:101EB000DA2000F097F8122000F094F8812000F06A
:101EC00091F8CF2000F08EF8D92000F08BF8F120A7
:101ED00000F088F8DB2000F085F8302000F082F870
:101EE000A42000F07FF8A62000F07CF88D2000F000
:101EF00079F8142000F076F8AF2000F073F8BDE810
:101F00001040FFF7A3BF0246012000E05043491EE6
:101F1000FCD2704710B50C4640F0B00000F062F8FB
:101F2000102040EA141000F05DF804F00F00BDE846
:101F3000104000F057B800002DE9F0410746CE00F0
:101F40004000083E801E15464FF0FF38F1B2C0B287
:101F5000FFF7E0FF1148002400EB05152819A0F554
:101F6000805090F8000E00F04DF8641CE4B2082C8C
:101F7000F4D308EB4700F1B2C0B2FFF7CBFF002467
:101F80002819A0F5805090F8080E00F03BF8641C6A
:101F9000E4B2082CF4D3BDE8F08100000635000857
:101FA0002DE9F04700241D461646884681460A273B
:101FB00013E0291B0A20491EFFF7A5FFB6FBF0F02E
:101FC000B0FBF7F107FB110208EB0400C1B2484671
:101FD0003032FFF7B1FF641CE4B2AC42E9D3BDE894
:101FE000F08700001CB5002101918DF80500481E06
:101FF0000090022301AA78210148FEF739FF1CBD99
:10200000C80000201CB507A10223096801918DF8C2
:1020100005004FF0FF30009001AA78210248FEF73A
:1020200027FF1CBD40000000C8000020704770471B
:10203000FEF7E2BF30B593B028216846FEF7C4F83A
:1020400014210AA8FEF7C0F8002501200F9510956D
:102050001195010412958DE8230004904FF4E010CF
:10206000CDE90810022407946846FFF79FF908B1EC
:1020700072B6FEE70AA90F2081E831004FF48060B4
:10208000CDE90D0502210AA8FFF7C4F808B172B620
:10209000FEE74FF4004011900F940FA8FFF744F8AB
:1020A000002801D072B6FEE713B030BD70470000C3
:1020B000F0B50268194B1A4C1A4D4FF08047984200
:1020C00005D0B84203D0A04201D0A84203D122F0EB
:1020D00070064A683243984205D0B84203D0A04205
:1020E00001D0A84203D122F44074CA6822434C694B
:1020F00022F08002224302608A68C2620A68826219
:10210000984201D109690163012141610169C9074F
:1021100003D0016921F001010161F0BD002C0140F3
:10212000000400400008004010B501F01F03012129
:10213000046A99408C430462016A9A401143016227
:1021400010BD000070B51548008801F091F80146F7
:10215000134800F0ABFF4FF07E54214601F0E6F843
:10216000104D0146284600F0A1FF294600F09EFFD1
:1021700000F00EFF00F096F800F07CFA0A4900F03B
:1021800095FF0A4900F030FF0146204600F08EFF1F
:10219000BDE87040064901F0C9B800000A000020FF
:1021A00000F07F4500401C4600E076450FCF5B3BCA
:1021B00033938843FEE70907090E002804DB00F18A
:1021C000E02080F80014704700F00F0000F1E020DC
:1021D00080F8141D70472DE9F0414F1E00EBC70138
:1021E0000446D1E9000115461E4637F006020DD01F
:1021F0002A46334600F0D8FC7F1E04EBC703D3E920
:10220000002300F069FA37F00602F1D1022F25D041
:10221000042F13D0062F18BFBDE8F0812A4633469D
:1022200000F0C2FCD4E90A2300F056FA2A463346ED
:1022300000F0BAFCD4E9082300F04EFA2A463346EF
:1022400000F0B2FCD4E9062300F046FA2A463346F1
:1022500000F0AAFCD4E9042300F03EFA2A463346F3
:1022600000F0A2FCD4E9022300F036FA2A463346F5
:1022700000F09AFCD4E90023BDE8F04100F02CBA4C
:10228000002213461046014900F0E2BA0000F03F78
:10229000012201F0F2B8002213461046114600F068
:1022A000D7BA00002DE9F04DC84A002490B0914201
:1022B00005DA21F00043934201D805D120B110B0D6
:1022C000BDE8F04DFFF7E4BFB1F5801F1BDA53EA1C
:1022D000000209D0002911DA0120FDF7A4FF10B097
:1022E000BDE8F04DFFF7D7BF0220FDF79CFFFFF7D9
:1022F000C7FF10B081F00041BDE8F08D6FF03504EC
:10230000362201F0BAF804EB2152C1F31308B049A8
:10231000A2F2FF33414401F4801282F07F6103EBAB
:10232000225281F04051009241EA08010022A94B5B
:1023300000F044FD044608F10200A74EC0F313006C
:102340000D467E44032867D2D6E90023204600F0DC
:10235000D7FB1ED10098002802BFD6E9000110B0BB
:10236000BDE8F08D00F008FC07460C469B4A9C4BEC
:1023700000F01AFC06460D469A4A9B4B3846214609
:1023800000F012FC10B032462B46BDE8F04D00F0D4
:10239000A3B94FF05532954B2046294600F004FC76
:1023A0000022934B00F0FEFC06460F4622462B46C9
:1023B0001046194600F0F8FB32463B4600F0F4FBAD
:1023C000064600980F46F0B100F0D6FB80468A46DC
:1023D000824A834B00F0E8FB32463B4600F0E2FCC9
:1023E00022462B4600F0EAFC05460C467D4A7E4B11
:1023F0004046514600F0D8FB10B02A462346BDE8BF
:10240000F04D00F0DBBC0B4610B0324620462946AA
:10241000BDE8F04D00F0D2BC00224FF080432046D2
:1024200000F05AF902460B462046294600F010FA01
:1024300006460F46009800F09FFBCDE904013246A6
:102440003B461046394600F0AFFB0C9069480C9AA9
:102450004044019009910B46104600F0A5FB8246CE
:10246000024665488B46C8F151080B4608F5D72847
:1024700003217844FFF7AFFE52465B4600F094FB21
:102480000A905E480D9152465B4604217844FFF75E
:10249000A2FE099B0C9A00F087FB844601980D9BD5
:1024A00040EA080860460A9A00F016F98346089147
:1024B000B8F1000F4EDD4FF0FF322046294600F004
:1024C000DCFF22462B4600F06FFB804600988A46D0
:1024D00060B3DDE90401414A414B00F065FB09911D
:1024E00000905A4640465146089B00F0F5F83246A7
:1024F0003B4600F059FB099B009A00F0EDF842467C
:10250000534600F04FFC22462B4600F057FC044691
:102510000D46DDE90401334A334B00F045FB10B0B2
:1025200022462B46BDE8F04D00F048BC5A464046D6
:10253000089B00F0D1F832463B4600F035FB42469E
:10254000534600F02FFC10B022462B46BDE8F04D5C
:1025500000F028BC009840B3DDE904011F4A204B7D
:1025600000F022FB80468A465A4620462946089BB0
:1025700000F024FC32463B4600F016FB4246534630
:1025800000F01CFC22462B4600F018FC04460D46C9
:10259000DDE90401134A144B00F006FB10B022469B
:1025A0002B46BDE8F04D00F009BC0B465A462046CC
:1025B000294600F003FC32463B4600F0F5FA10B025
:1025C00022462B46BDE8F04D00F0ECBB0000F07F4A
:1025D000645F09000000F03F12180000763C793576
:1025E000EF39EA3D0000E0FE422EE63F5555D53F6B
:1025F0000000E03F86EBF9FFAA160000A8160000D5
:10260000FEF702FDFFF716FDFFF74AFBFFF732FB6F
:10261000FFF7C4FBFFF7E2FBFFF7F4FAFFF729FC33
:10262000FDF714FFFFF712FC104C114D4FF4FA7632
:10263000FFF7DAFA0121042322880846FFF7B0FCED
:1026400004232A8801210320FFF7AAFCFFF77AFD63
:1026500000F0EEFD0246042301210220FFF7A0FC5A
:10266000FFF7A6FA3046FEF7FDF9E1E70800002083
:102670000A00002021F00042A2F16052B2F5801F52
:1026800001F0004328BFD2F17F6C0BD95FEA001C38
:1026900043EAC20242EB507018BF704728BF20F0D7
:1026A00001007047B2F5801FBCBF184670474FEA63
:1026B000410C1CF5001F02D2084600F032BE70B576
:1026C00000F01CFB00000089FFF7F6BF4FF0004050
:1026D000A0F580007047000010B591EA030F48BFD5
:1026E00083F0004300F17283841A71EB030C05D26E
:1026F000121943EB0C03001B61EB0C01DFF824E122
:102700004FEA1154A4EB135C1EEA430F18BF9EEA74
:10271000445F73D023EA0E03DCF1200E21EA04515A
:1027200043F4801332D322FA0CFE10EB0E0023FA8E
:102730000CFE41EB0E01CCF1200E03FA0EFE10EB65
:102740000E0051F10001B1F5801FCCF1200E32D204
:1027500001EB045112FA0EF2BDE8104058BF704769
:10276000401C38BF5FEA420218BF7047002814BF00
:1027700020F0010041F100014FEA410313F5001F71
:1027800038BF7047A1F1C04100F006BB012A43EBFE
:102790000302ACF1200CDCF11F0E32BF4FF0000E33
:1027A00023FA0CF310EB030041EB0451B4EB115F7F
:1027B000D0D0A1EB045101F5801149085FEA300047
:1027C00001EB04510ED350F1000038BF12FA0EFE97
:1027D00008D1BDE81040C9E7401C38BF5FEA42029B
:1027E000CAD1C3E7BDE810404FEA410313F5001F0B
:1027F00038BF7047A1F1C04100F0CEBA9EEA445FF5
:1028000008D011EA5E0FBDE8104004BF01F000419E
:1028100000207047BDE8104070B500F06FFA00BFAF
:1028200064FBBE3E0000E0FF02494FF0000000F0F4
:10283000F2BD00BF0000F87F491058BFC1F1404110
:102840005B1058BFC3F140438B42EFF300807047E9
:102850002DE9C04130B4DFF8A0C23CEA111418BF22
:102860003CEA131400F0EC8081EA03051CEA111421
:1028700044EAD57418BF1CEA131500F0C780A4EB16
:1028800005044FF0004545EAC12145EAC32341EA6A
:10289000505143EA525304F17F74994204F50034D5
:1028A0004FEAC0204FEAC22208BF904200F09C804D
:1028B0004FEA13650FF24016765D4FEA134506FBAB
:1028C00005F7C7F1807706FB07F74FEAD737A7FB75
:1028D00003687642C8F58038A7FB06CE38BFA8F15A
:1028E000010807FB08E64FF0000EA6FB028CE6FB92
:1028F00003CEDCF1000CCEF1004E38BFAEF1010E7C
:10290000A6FB0C584FF000074FF00005E6FB0E87C2
:10291000A1FB08C6A0FB07CE16EB0E0645F100058D
:10292000E1FB076515F1E04E7EBFA4F580345FEA58
:1029300046066D4116F1800745F100054FEA17275D
:102940004FEA066647EA0567A6F1DE46B6F1805F04
:102950004FEA15251FD9384624F0010C05EBC47148
:10296000BCF1FE6F01EB0C1102D8F0BCBDE8008198
:1029700024425CBF01F5801E9EEAC47F02D4F0BCF5
:10298000BDE80081244238D4F0BCA1F1C041BDE8CB
:10299000004100F001BA4FEAD22242EA43524FEA24
:1029A000D323A7FB02864FEAD02040EA415007FB21
:1029B00003661EEA0E0F4FEAD12105FB026658BFDF
:1029C000A6EB0056B6EB00564FEA520E4EEAC37E17
:1029D00018EB0E0E56EB530EBDD518EB02085E41F8
:1029E0007F1C55F10005B6E74FF480154FF0000746
:1029F0004FF000064FF00008ADE7F0BC4FF00000CC
:102A000001F1C04101F00041BDE8008111EA0C1F55
:102A10000CEA131500D00CE013EA0C1F00F025801F
:102A20004FF00000F0BC81EA030101F00041BDE875
:102A30000081F0BCBDE8004181EA030100F0ACB9BF
:102A4000F0BCBDE8004170B500F058F9097EFC3ECD
:102A500000F007B881EA03014FF0000001F00041E7
:102A6000704781EA030100F097B9F0BCBDE800416E
:102A70004FF0000021497047FFFDFBF9F7F5F4F234
:102A8000F0EEEDEBE9E8E6E4E3E1E0DEDDDBDAD809
:102A9000D7D5D4D3D1D0CFCDCCCBCAC8C7C6C5C467
:102AA000C2C1C0BFBEBDBCBBBAB9B8B7B6B5B4B37E
:102AB000B2B1B0AFAEADACABAAA9A8A8A7A6A5A469
:102AC000A3A3A2A1A09F9F9E9D9C9C9B9A9999982D
:102AD0009797969595949393929191908F8F8E8ED0
:102AE0008D8C8C8B8B8A898988888787868585845D
:102AF00084838382828181800000FF070000F87F49
:102B000051EA030C17D41CF5801F58BFBCF5801F79
:102B100000F10680994218BF704708BF9042704785
:102B200007D711F5801F58BF13F5801F19D499429C
:102B30007047894270471CF5801F08D5BCF5801F7F
:102B4000F7D58B4218BF704708BF824270474FF4D9
:102B5000001C1CEB410F38BF1CEB430F01D28B4212
:102B6000704770B500F0CAF8922449004FF0005148
:102B70004FF08053FFF760BE10F0004248BF404264
:102B8000B0FA80F310FA03F10AD0C3F11D0303F584
:102B900080634FEA415002EB035202EBD1217047B0
:102BA0004FF0000070470000DFF848C170B51CEA24
:102BB000111E1EBF1CEA13159EEA0C0F95EA0C0F9E
:102BC00000F06F8081EA030423EA4C134EEAD47EBE
:102BD00021EA4C1141F4801143F48013AE44A1FB6F
:102BE000024CA0FB0365AEF17F7E361955EB0C0558
:102BF000A1FB034C4CF10003A0FB021C16EB0C06DE
:102C0000654153F10003094218BF46F0010613F471
:102C1000007F0BD14FEA03314FEA0530340341EA1C
:102C2000155140EA16506FF003020AE04FEAC32143
:102C30004FEAC520F40241EA555140EA56506FF080
:102C4000020202EB2E4201EB025585EACE710AD058
:102C50005FEA440C18BF24F0004450F1000041F139
:102C6000000120EAD47040F2FE7C624500D270BDC3
:102C7000A84214BF4FF080444FF04044002E08BFDC
:102C80000024BEF1806FA8BFA1F1C041BDE8704033
:102C900080F282804FF0000001F1C04101F000415C
:102CA00070479EEA0C0F0CEA131518BF95EA0C0F3B
:102CB00006D04FF0000081EA030E0EF0004170BD17
:102CC00000F01CF88900013E00F007B800F009B8D8
:102CD0004FEA430C5FEA5C5C08D081EA030100F034
:102CE0005BB84FEA410C5FEA5C5CF6D14FF0000044
:102CF000014970470000FF070000F87F0EF1020E47
:102D00002EF0030E5EF8046B364205D4012A43EB25
:102D1000030515F5001F12D8012841EB010C1CF525
:102D2000001F0CD80ED14FEAD17C15F5001F0CEB1B
:102D30004C0C0CF1020C08BF4CEBD37C04E04FF0C0
:102D4000080C01E04FEAD37C0CEB4C0526FA05F6A3
:102D500006F00706B6F1040C06D20EEB860CBDE8B1
:102D600070404CF0010C6047DFE80CF0090B0202E8
:102D70004FF000414FF00000A1F5002170BD194651
:102D80001046012851EB010418BFD4F5001484BF8C
:102D9000002001F0004170BD0808A0F500114FEAC5
:102DA0003101704791EA030F10B581F000413FF502
:102DB0009BAC83F0004300F009B8000010B591EA25
:102DC000030F48BF83F000433FF58EAC841A71EBCC
:102DD000030C07D212198CF0004C43EB0C03001BC0
:102DE00061EB0C01DFF8A4E14FEA1154A4EB135C92
:102DF0001EEA430F18BF9EEA445F00F0B08023EA4A
:102E00006E03524221EA0451C3EB6E0338BF5B1ECE
:102E1000DCF1200E25D322FA0CFE10EB0E0043FA53
:102E20000CFE41EB0E01CCF1200E03FA0EFE10EB6E
:102E30000E0051F10001CCF1200E29D412FA0EF24D
:102E400001EB0451BDE8104058BF7047401C1CBF47
:102E5000B2F1004F704700280CBF491C20F0010060
:102E6000704712EB020E43EB030218BF4FF0010E46
:102E70004EEA4202ACF1200CDCF11E0E54D943FAAA
:102E80000CFE10EB0E0051F1FF31CCF11E0ED5D52A
:102E90000EF1010E12FA0EFE404141EB010101EB71
:102EA000445C5FEA5C5C10D910EBDE7001EB04510E
:102EB00038BFBEF1004FBDE8104018BF7047002872
:102EC0000CBF491C20F00100704730D24FEAD42CCF
:102ED00011F5001124F400641BD0B1FA81F20B3A11
:102EE000A41AA41ED2F12003914030FA03F319432F
:102EF000904001EBCC71002C01EB0451BDE8104077
:102F0000A8BF704701F1C0414FF0000001F000413F
:102F10007047B0FA80F310FA03F100D110BDE41A43
:102F2000173C4805C90AE4E701EB045110BD4910FC
:102F300001EB0451BDE810404FEA300002E04FF0D1
:102F4000000170474A0008BF0042F8D0B2F5001FE8
:102F500028BF704701F000414FF0000070479EEA23
:102F6000445F07D011EA5E0FBDE8104004BF0021A6
:102F700000207047BDE8104070B5FFF7BFFE00BFEE
:102F800040DFF63E83F00041104670470000E0FF4E
:102F900043004FEAD30C4FEA3C0C43401FBF4007AD
:102FA0000CF1605113F0FE4F70471CF0006F03D11D
:102FB00000200CF0004170470CF0004343EA5070D1
:102FC00010B540EACC0000F066F900BF00000092A6
:102FD0004FEA0001FFF7E0BE4FF000414FF0000064
:102FE000A1F500217047000090EA010F48BF81F071
:102FF000004100F1A281421A3CBF801A89184FEAB1
:10300000D0524FF07F4C1CEA410FA2EBD15318BFB6
:103010009CEA026F00F03B804FF0004C4CEA00202D
:103020004CEA012121FA03FC10EB0C0C1ED202F138
:10303000FF325FEA1C2040EBC25038BF70471CF0E3
:103040007F0F4FEA400C18BFBCF17F4F38BF70476D
:10305000C3F12003994008BF20F00100BCF17F4F6D
:1030600038BF7047A0F1C04000F05BB94FEA3C00A8
:10307000000A40EBC25028BF1CF0FF0F4FEA400C83
:10308000E6D018BFBCF17F4F38BF7047EAE79CEA33
:10309000026F05D010EA5C0F08BF00F000407047D7
:1030A00010B500F0F8F800BF64FBBE3E4FF47F0C93
:1030B0001CEAD0121EBF1CEAD11392EA0C0F93EA4D
:1030C0000C0F00F0858090EA010F48BF42F4807237
:1030D00040F4000C41F400002CF07F4120F07F40D0
:1030E00000B58142A2EB03020FF2081CACEB504E7C
:1030F000C0F100009EF800E04FEA4E0E00FB0EFC0F
:1031000038BF49004FEA2C1C02F5FA020CFB0EF303
:103110004FEACE1E4FEA112C4FEAC1210EEB635E3F
:1031200042EB22420EFB0CFC4FEA1C5300FB031146
:103130004FEA112C4FEA01310EFB0CFC4FEADC4C3C
:1031400000FB0C11C14228BF09184CEB03335DF89A
:1031500004EB10EB410143EBC250B2F57C0F38BFDA
:10316000704729D512F0F00F1CBF00F1C04000F0ED
:1031700000407047008182838485868788898B8C94
:103180008D8E8F919293959697999A9C9D9FA0A2D0
:10319000A3A5A7A8AAACAEB0B2B3B5B7B9BCBEC020
:1031A000C2C5C7C9CCCED1D4D7D9DCDFE2E6E9ECC1
:1031B000F0F3F7FAFE0000004FEA400C0CF1807CBF
:1031C000BCF17E4F28BF7047B0F1C04000F0A9B8F5
:1031D00090EA010F0CEAD11348BF42F480726245B5
:1031E00038BF634507D213F47F0F16D080EA010081
:1031F00000F00040704710B500F04DF8097EFC3E2D
:1032000000F005B880EA010000F00040704780EA55
:10321000010000F0004000F084B812F47F0F04BFFA
:103220000248704780EA010000F07BB80000C07FD0
:10323000C10DD1F19E0206DB4FEA002343F00043AB
:1032400023FA02F07047004207D54FEA4001B1F17E
:10325000FE4F02D24FF00000704710B500F01BF88F
:1032600049922480002070476FEA200070470000D8
:10327000B0FA80F310FA03F2C3F19D030AD0D90526
:1032800001EB1220530638BF704700F1010008BF60
:1032900020F0010070470EF1020E2EF0030E5EF8D2
:1032A000044B244204D44FEA4102B2F17F4F11D8BB
:1032B0004FEA4003B3F17F4F0CD80ED14FEAD07CD8
:1032C000B2F17F4F0CEB4C0C0CF1020C08BF4CEB35
:1032D000D17C04E04FF0080C01E04FEAD17C0CEB0C
:1032E0004C0324FA03F404F00704B4F1040C06D2EE
:1032F0000EEB840CBDE810404CF0010C6047DFE899
:103300000CF0070802024FF00040A0F5800010BD4D
:103310000846420018BFD2F1807288BF00F000401A
:1033200010BDFF2141EAD050C005704790EA010F5F
:1033300048BF81F000413FF55EAE421A04D882F0EA
:103340000042A0EB020011444FEAD0524FF07F4CF4
:103350001CEA410FA2EBD15318BF9CEA026F4AD07E
:103360004FF0004C4CEA00204CEA012121FA03FC0A
:10337000B0EB0C0C0FD412F0FE0F36D05FEA4C000D
:103380001DD5001240EBC25038BF70471CF03F0FF4
:1033900018BF70470BE0A2F101025FEA1C2040EB6E
:1033A000C25038BF70471CF07F0F18BF7047C3F181
:1033B0002003994014BF401E20F001007047800890
:1033C0004FEA122308BF7047B0FA80FCA2EB0C0250
:1033D000CCF1280C60FA0CF093EA122F04BF00EB3A
:1033E000C25070474FEAC3707047130A5FEADC109F
:1033F00008BF7047F6E79CEA026F04D010EA5C0F42
:1034000008BF0020704710B5FFF745FF40DFF63ECC
:1034100081F0004070470CF00F03092B08BF082013
:1034200000F059800A2B0BD0082B18BF704708BF3B
:103430001CF0400F0AD04FF000004FF00001704721
:103440001CF0400F18BF4FF0004070471CF0100FE9
:1034500008D020F0704300F07F4242EAD3014FEAE7
:103460004370704700F0604021F07F4242EA000262
:1034700001F07F4040EA727070474FF0FF0C4CF44F
:10348000E06C1CEA11531CBF9CEA030C9445C2BFBC
:10349000DA4201EB02517047002B0DD0BCF1000F56
:1034A0000FD0002A01F00041A4BF41F0E04141F0FB
:1034B0007F614FF00000704701F000414FF00000C5
:1034C000704750EA01334FF09B0C18BF4CF0806CF2
:1034D0007FF4AAA970471CF4801F11D01CF4E02FC0
:1034E00003D06FEACC31490070474FF04050EFF302
:1034F000008222F0704242EA000282F300887047A4
:103500004FF00000704700000000000000000000C5
:10351000000000000000000000F8000000000000B3
:1035200000333000000000100C06100C06000000F4
:1035300000000000000040C07840C0784000043F18
:1035400004043F040400007088FC083000000018E8
:1035500020FF211E0000F008F000E018000000210C
:103560001C031E211E0000F00888700000001E21B0
:1035700023241927211010160E000000000000005F
:10358000000000000000000000E01804020000003D
:1035900000071820400000020418E000000000406E
:1035A000201807000000404080F0804040000202E8
:1035B000010F01020200000000F000000000010104
:1035C000011F01010100000000000000000080B0A8
:1035D000700000000000000000000000000000017A
:1035E00001010101010100000000000000000030A5
:1035F000300000000000000000008060180400603F
:1036000018060100000000E010080810E000000F9C
:10361000102020100F00001010F800000000002003
:10362000203F20200000007008080888700000304B
:1036300028242221300000300888884830000018F3
:10364000202020110E000000C02010F8000000070C
:103650000424243F240000F8088888080800001982
:10366000212020110E0000E0108888180000000FB3
:10367000112020110E0000380808C838080000008A
:10368000003F000000000070880808887000001CDF
:10369000222121221C0000E010080810E000000098
:1036A000312222110F00000000C0C0000000000005
:1036B000003030000000000000800000000000002A
:1036C0008060000000000000804020100800000121
:1036D00002040810200040404040404040000404E4
:1036E00004040404040000081020408000000020AE
:1036F000100804020100007048080808F0000000EB
:10370000003036010000C030C828E810E00007187B
:10371000272423140B000000C038E0000000203CE8
:1037200023020227382008F8888888700000203F8C
:10373000202020110E00C0300808080838000718A3
:1037400020202010080008F808080810E000203F9A
:10375000202020100F0008F88888E8081000203F7B
:1037600020202320180008F88888E8081000203F4F
:10377000200003000000C0300808083800000718C7
:103780002020221E020008F808000008F808203F48
:10379000210101213F20000808F80808000000204E
:1037A000203F2020000000000808F8080800C08022
:1037B00080807F00000008F888C028180800203F9B
:1037C00020012638200008F8080000000000203FF3
:1037D00020202020300008F8F800F8F80800203FEA
:1037E000003F003F200008F830C00008F808203FE4
:1037F000200007183F00E01008080810E0000F1034
:10380000202020100F0008F808080808F000203FCA
:10381000210101010000E01008080810E0000F1865
:10382000242438504F0008F8888888887000203F8A
:103830002000030C30200070880808083800003889
:10384000202121221C00180808F808081800000090
:10385000203F2000000008F808000008F808001FBA
:10386000202020201F000878880000C838080000A9
:1038700007380E010000F80800F80008F800033CC3
:103880000700073C0300081868808068180820308B
:103890002C03032C30200838C800C838080000006A
:1038A000203F2000000010080808C8380800203811
:1038B000262120201800000000FE02020200000065
:1038C000007F40404000000C30C0000000000000BD
:1038D00000010638C00000020202FE0000000040A5
:1038E00040407F00000000000402020204000000CB
:1038F00000000000000000000000000000008080C8
:1039000080808080808000020204000000000000AF
:10391000000000000000000080808080000000198E
:10392000242222223F2008F8008080000000003F6F
:10393000112020110E000000008080800000000E89
:10394000112020201100000000808088F800000E67
:10395000112020103F200000808080800000001F88
:10396000222222221300008080F0888888180020FC
:10397000203F202000000000808080808000006BBD
:1039800094949493600008F8008080800000203FA9
:10399000210000203F2000809898000000000020B7
:1039A000203F20200000000000809898000000C008
:1039B0008080807F000008F8000080808000203F29
:1039C00024022D302000000808F80000000000202C
:1039D000203F202000008080808080808000203F69
:1039E00020003F20003F8080008080800000203F3A
:1039F000210000203F200000808080800000001F08
:103A0000202020201F00808000808000000080FF98
:103A1000A12020110E000000008080808000000E98
:103A2000112020A0FF8080808000808080002020E6
:103A30003F21200001000000808080808000003352
:103A4000242424241900008080E0808000000000ED
:103A5000001F202000008080000000808000001FE8
:103A6000202020103F208080800000808080000186
:103A70000E300806010080800080008080800F30BA
:103A80000C030C300F00008080008080800000203C
:103A9000312E0E3120008080800000808080808167
:103AA0008E701806010000808080808080000021D8
:103AB000302C2221300000000000807C0202000037
:103AC0000000003F404000000000FF000000000038
:103AD0000000FF0000000002027C800000000040A7
:103AE000403F000000000006010102020404000043
:103AF0000000000000000102020304050607080997
:103B00000A0B0C0D0E0F101000000000000000004A
:103B10000102030406070809000000000102030473
:103B200004FA97999999D93FAF788E1DC571CC3F0A
:103B30009FC678D0099AC33F935555555555E53FD3
:103B4000599322942449D23FDE03CB966446C73F63
:103B500044523EDF12F1C23F0000000000000000AE
:103B6000803B00080000002024000000280100081D
:103B7000A43B000824000020A40700004401000822
:103B80000000000000000000000000000000000035
:103B90000000000001000000100000000000000014
:043BA00000127A0095
:04000005080000ED02
:00000001FF
