:020000040800F2
:10000000F806002089010008FF120008F90E000818
:10001000FD1200088F0200086D15000800000000A6
:1000200000000000000000000000000007150008AC
:10003000410300080000000005150008091500082C
:10004000A3010008A3010008A3010008A301000800
:10005000A3010008A301000843030008510300089E
:10006000A3010008A3010008A3010008A3010008E0
:10007000A3010008A3010008A3010008A3010008D0
:10008000A3010008A3010008A3010008A3010008C0
:10009000A3010008A3010008A301000857030008FA
:1000A000A3010008A3010008A3010008A3010008A0
:1000B000A3010008A3010008A3010008A301000890
:1000C000A3010008A3010008A3010008A301000880
:1000D000A3010008A3010008A3010008A301000870
:1000E00049030008A3010008A301000800F002F87A
:1000F00000F03AF80AA090E8000C82448344AAF188
:100100000107DA4501D100F02FF8AFF2090EBAE885
:100110000F0013F0010F18BFFB1A43F0010318473B
:100120003C1B00005C1B0000103A24BF78C878C15B
:10013000FAD8520724BF30C830C144BF04680C60ED
:10014000704700000023002400250026103A28BF35
:1001500078C1FBD8520728BF30C148BF0B60704739
:100160001FB51FBD10B510BD00F058F81146FFF7C0
:10017000F7FF01F00DFA00F076F803B4FFF7F2FF95
:1001800003BC00F07DF8000009488047094800479B
:10019000FEE7FEE7FEE7FEE7FEE7FEE7FEE7FEE737
:1001A000FEE7FEE704480549054A064B7047000094
:1001B0006B150008ED000008F8000020F80600208C
:1001C000F8020020F80200204FF0000200B51346AC
:1001D00094469646203922BFA0E80C50A0E80C5067
:1001E000B1F12001BFF4F7AF090728BFA0E80C5018
:1001F00048BF0CC05DF804EB890028BF40F8042B11
:1002000008BF704748BF20F8022B11F0804F18BF7D
:1002100000F8012B7047704770477047754600F033
:100220002BF8AE4605006946534620F00700854688
:1002300018B020B5FFF7B6FFBDE820404FF000062C
:100240004FF000074FF000084FF0000B21F00701BE
:10025000AC46ACE8C009ACE8C009ACE8C009ACE801
:10026000C0098D46704710B50446AFF300802046A4
:10027000BDE81040FFF781BF00487047980000209C
:1002800001491820ABBEFEE7260002007047FEE7DA
:10029000042801D300207047024900EB400011F808
:1002A00020007047680000202DE9F04100F08EF931
:1002B000064620480168711A142924D31E4F1F4D89
:1002C000002407F10808066037F8141058F82400D5
:1002D00000F06AF9002804EB440105EB8100027A82
:1002E00013D062B14268B21A142A06D315F821203D
:1002F000032A02D0022205F8212000210172641C89
:10030000E4B2042CE0D3BDE8F08162B115F82120FD
:10031000012AF4D14068301AB0F5FA6FEFD3032008
:1003200005F82100EBE701220272466005F8212062
:10033000E5E7000000000020181C0008680000200D
:100340007047012000F034B84FF4805000F030B80E
:10035000022000F02DB8202000F02AB872B6FEE787
:1003600070B5124C012520280DD0012810D002288C
:1003700014D0B0F5805F05D100F028F9A06204F830
:10038000245F257270BD00F021F960602570F8E7E8
:1003900000F01CF920612573257570BD00F016F979
:1003A000E061257684F8205070BD000068000020D0
:1003B000044910B50A68024202D00860FFF7D0FF76
:1003C00010BD0000140401402DE9F84FDFF8B8918A
:1003D0000024A9F1040B23460F2709F1040AABF10D
:1003E000040EC9E00125A5402A40AA427DD1674EEE
:1003F000D1F804C0ACEB0608B44532D014DCBCF133
:10040000030F3AD009DCBCF1000F2AD0BCF1010F78
:100410001CD0BCF1020F31D11DE0BCF1110F17D07F
:10042000BCF1120F2AD119E0B8F5881F19D006DCEB
:10043000B8F5803F15D0B8F5801F1FD111E0B8F591
:10044000001F0ED0B8F5041F18D10AE0CB6815E0E4
:10045000CB681B1D12E0CB6808330FE0CB680C3370
:100460000CE08B682BB1012B4FF0080303D04561E2
:1004700004E0042302E0056100E00023FF2A01D824
:10048000064601E000F104064FEA840501D9A5F112
:100490002005D6F8008007FA05FC28EA0C0803FAC4
:1004A00005F548EA0508C6F800804D68ED0062D5FC
:1004B000374DAE6946F00106AE61AD6924F0030622
:1004C00005F001050095334D06EB050CDCF80850EE
:1004D000A607360F07FA06F825EA0805DFF8B88000
:1004E000404503D14FF0000817E044E0DFF8AC804E
:1004F000404502D14FF001080FE0DFF8A4804045ED
:1005000002D14FF0020808E0DFF89880404502D1A0
:100510004FF0030801E04FF0040808FA06F848EA33
:100520000508CCF808804D68D9F80060ED024D460A
:1005300001D5164300E096432E604D68DAF800605E
:10054000AD02554601D5164300E096432E604D6836
:10055000DBF80060AD035D4601D5164300E096432D
:100560002E604D68DEF80060ED03754601D5164338
:1005700000E096432E60641C0D682A46E5407FF437
:1005800031AFBDE8F88F00000804014000001110F1
:10059000001002400000014000080140000C014032
:1005A00000100140001401408068084000D0012084
:1005B0007047C26821EA02030A4043EA024101612E
:1005C00070470AB1016170470904FBE70148806880
:1005D000704700000400002070B5040025D094F896
:1005E0003D00002520B984F83C50204600F04EF92B
:1005F000242084F83D002068016821F00101016099
:100600002068016841F4004101602068016821F41C
:100610000041016000F096FA4D4A6168914201D8AC
:100620004C4900E04C49884201D2012070BD4B4941
:100630002368B0FBF1F15E6826F03F060E435E6072
:100640006368934206D94FF4967359434FF47A7313
:10065000B1FBF3F12368491C1E6A26F03F063143C3
:1006600019626168914210D84900401EB0FBF1F256
:10067000521CC2F30B02042A01D2042022E0B0FB78
:10068000F1F0401CC0F30B001CE0A268F2B301EBD8
:10069000C10303EB0116431EB3FBF6F35B1C43F4EB
:1006A00080431B0549D092B301EBC10202EB01115B
:1006B000401EB0FBF1F0401CC0F30B0040F4804042
:1006C00040F400402168CA694CF6FF739A43104316
:1006D000C861D4E9071001432068026822F0C00213
:1006E00011430160D4E9030101432068826848F2A4
:1006F000FF339A4311438160D4E90501084321681F
:10070000CA6822F0FF021043C86001E00EE016E064
:100710002068016841F0010101602564202084F80F
:100720003D00256384F83E50002070BD01EB41067A
:10073000431EB3FBF6F35B1CB3E70120C2E701EBFA
:100740004101401EB0FBF1F0401CC0F30B00B7E7C5
:10075000A086010080841E0000093D0040420F0079
:100760002DE9F84F1F4690468A460446DDF828904A
:10077000FFF72CFF054694F83D0020287FD1192370
:10078000012240492046009500F048FC002876D11F
:1007900094F83C00012872D0012084F83C002068C5
:1007A0000168C90703D1016841F0010101602068B7
:1007B000016821F400610160212084F83D001020CF
:1007C00084F83E0000262664C4F824806785608D86
:1007D00020852D48E0622B464A465146204600F0CF
:1007E000A3FB90B9206841698069009036E02A46F1
:1007F0004946204600F0B8FC50B1206C042804D1D2
:100800002068016841F4007101600120BDE8F88FA3
:10081000606A216800780861606A401C6062618DCE
:10082000491E6185218D491E89B22185226853693F
:10083000DB435B070BD451B100781061606A401C48
:100840006062608D401E6085208D401E20852A4696
:100850004946204600F0B6FB0028CED1208D002866
:10086000C5D154F83D0B016841F4007101602020AE
:1008700004F81E09E67766770020C7E7FFE7022045
:10088000C4E70000020010000000FFFF10B586B0B2
:100890000021009101910291039100680F49884263
:1008A0001AD10F4CA06940F00800A061A069694608
:1008B00000F008000490C020009012200190032056
:1008C00003900848FFF780FDE06940F40010E06104
:1008D000E06900F40010049006B010BD0054004020
:1008E00000100240000C0140024881680278114467
:1008F0008160704704000020074810B5016841F08E
:1009000010010160032000F075F8012000F006F8E6
:1009100000F024F8002010BD0020024070B50D4DFD
:1009200004464FF47A712878B1FBF0F00A4909685F
:10093000B1FBF0F000F0CCFA48B9102C07D200223D
:100940002146501E00F036F800206C6070BD01207A
:1009500070BD000004000020100000200C4808B505
:10096000816941F001018161816901F0010100911A
:10097000C16941F08051C161C06900F080500090B0
:100980000448416821F0E06141F00071416008BD18
:100990000010024000000140002809DB00F01F02A7
:1009A000012191404009800000F1E020C0F80011D1
:1009B00070470000F0B40E4B1B680C46C3F30223D3
:1009C000C3F10705042D00D90425191D072901D2FB
:1009D000002300E0DB1E012606FA05F1491E214036
:1009E00099409E40761E16403143F0BC00F0BFBDDA
:1009F0000CED00E0064900F0070208684FF6FF031F
:100A0000184040EA0220034A104308607047000083
:100A10000CED00E00000FA052DE9F0470F46050057
:100A200061D0434E306800F00700B84209D2306808
:100A300020F0070038433060306800F00700B8420B
:100A400051D128683B4C810712D5400703D5606817
:100A500040F4E06060602878000703D5606840F4E7
:100A6000605060606068A96820F0F0000843606032
:100A70002878C00728D06868012810D0216802288B
:100A800010D0890700292EDA616821F003010143A3
:100A90006160FFF79BFD804641F288390DE02168D7
:100AA0008903EFE78901EDE7FFF790FDA0EB08016F
:100AB000494502D90320BDE8F0876068696800F005
:100AC0000C00B0EB810FEFD1306800F00700B842A6
:100AD0000BD9306820F0070038433060306800F0F0
:100AE0000700B84201D00120E5E72878400705D586
:100AF0006068E96820F4E0600843606028780007D7
:100B000006D56068296920F4605040EAC100606041
:100B100000F028F86168084AC1F30311515CC8402D
:100B20000649086006480068FFF7F8FE0020C2E7A3
:100B30000020024000100240421C0008100000206B
:100B4000080000200448054900684968044AC1F3C8
:100B50000221515CC8407047100000200010024084
:100B6000521C00080E4A51680E4801F00C03042B79
:100B700011D0082B0FD10C48C1F38343C903C05CCB
:100B80000AD55168084AC1F34041921E515C054A9A
:100B90005043B0FBF1F070470449484370470000F0
:100BA0000010024000127A00321C000800093D00CB
:100BB0002DE9F84F040070D02078C04DC00749D00F
:100BC0006868C0F38100012807D06868C0F381001D
:100BD000022809D16868C00306D52868800339D582
:100BE00060680028E7D035E06068B0F5803F0BD042
:100BF00010B1B0F5A02F11D0286820F48030286003
:100C0000286820F4802002E0286840F480302860C2
:100C1000606890B1FFF7DAFC06460AE0286840F405
:100C200080202860F0E700BFFFF7D0FC801B64281D
:100C300073D828688003F7D50CE0FFF7C7FC064699
:100C400005E000BFFFF7C2FC801B6428F0D82868CD
:100C50008003F7D420789A4E80074FF001094FF0B7
:100C6000000839D5686810F00C0F07D06868C0F329
:100C70008100022809D16868C00306D4286880076B
:100C800014D52069012808D110E02069B0B1C6F858
:100C90000090FFF79BFC074605E00AE1FFF796FC92
:100CA000C01B0228C4D828688007F7D52868616966
:100CB00020F0F80040EAC10028600DE0C6F800808E
:100CC000FFF784FC074604E0FFF780FCC01B022806
:100CD00023D828688007F7D4207800072CD57948D6
:100CE000A169D9B1C0F80090FFF770FC074604E095
:100CF000FFF76CFCC01B02280FD8686A8007F7D585
:100D000071484FF4FA510068B0FBF1F0009000BF59
:100D10000098411E0091FAD20EE080E0C0F80080F9
:100D2000FFF754FC074604E0FFF750FCC01B022805
:100D300075D8686A8007F7D42078400760D5E869DD
:100D40000027C00008D4E86940F08050E861E869F5
:100D5000012700F0805000905C480168C90513D459
:100D60000168834641F480710160FFF72FFC8246E1
:100D700006E000BFFFF72AFCA0EB0A0064284ED86B
:100D8000DBF80000C005F5D5E06801280AD008B1FD
:100D9000052813D0286A20F001002862286A20F074
:100DA000040002E0286A40F001002862E06841F295
:100DB000883B98B1FFF70AFC82460BE0286A40F0B6
:100DC00004002862EEE700BFFFF700FCA0EB0A0179
:100DD00059455AD8286A8007F6D50CE0FFF7F6FB8C
:100DE000824605E0FFF7F2FBA0EB0A0159454CD81B
:100DF000286A8007F6D41FB1E86920F08050E861C6
:100E0000E06988B36968C1F38101022944D00228EE
:100E1000C6F8608004D0FFF7D9FB044638E034E020
:100E2000FFF7D4FB074604E0FFF7D0FBC01B022806
:100E30002BD828688001F7D4206AB0F5803F05D10F
:100E40006868A16820F4003008436860D4E90801AC
:100E50000843696821F4741108436860C6F860901B
:100E6000FFF7B4FB044606E025E000BFFFF7AEFB4A
:100E7000001B022809D828688001F7D51BE000BFB5
:100E8000FFF7A4FB001B022802D90320BDE8F88F5E
:100E900028688001F4D40EE00128F7D06868226A3F
:100EA00000F48031914204D1616A00F470108842EC
:100EB00001D00120EAE70020E8E70000001002402E
:100EC00000004242800442421000002000700040B6
:100ED00010B5401EB0F1807F01D3012010BD4FF04E
:100EE000E02460610F21601700F041FB0020A06149
:100EF00007202061002010BDFEE701684A69D24347
:100F000052050FD46FF480624A61002140F8301F0F
:100F1000202242738173026942F00402026101736C
:100F20000120704700207047F8B50446C06A1E468D
:100F30000D461746082807D0012805D010F5803F38
:100F400002D0206B122804D12068016841F480711E
:100F50000160134600224FF001112046009600F078
:100F60005DF840B120680068C00502D54FF40070FC
:100F700020640320F8BD2069B0F5804F0ED0062014
:100F8000216800EAD51040F0F000086133463A4687
:100F90000B49204600F08AF878B902E005F0FE001F
:100FA00000E0E8B221680861054933463A46891FE6
:100FB000204600F07BF80028DCD00120F8BD0000BE
:100FC0000800010070B516460D4604461EE0204696
:100FD000FFF793FF08B1012070BD681C16D0FFF722
:100FE000F5FA801BA84200D885B920684069C04343
:100FF00040070BD5002044F8300F20216173A07307
:10100000216941F0200121612073E4E720684069F3
:10101000C0434007DBD4002070BD00002DE9F0473D
:10102000984617460D460446C1F30746DDF8209062
:101030002AE000BFB8F1FF3F26D0FFF7C7FAA0EBC8
:101040000901414502D8B8F1000F1DD12068012ED9
:1010500016D0806925EA00000004000C12D00020A0
:10106000B84211D1002044F8300F20216173A073E1
:10107000216941F02001216120730120BDE8F08742
:101080004069E7E70120EBE72068012E0AD080697C
:1010900025EA00000004000C06D00020B842C9D0A8
:1010A0000020EBE74069F3E70120F7E72DE9F0477F
:1010B000984616460D4604464FF000094FF0200AA8
:1010C000C1F3074723E020684069C043400515D4B9
:1010D0002068016841F40071016021686FF480604C
:1010E0004861C4F8309084F83DA084F83E90216CAB
:1010F00041F00401216484F83C9021E0701C06D08A
:10110000FFF764FAA0EB0800B04203D816B1012F34
:101110001FD021E02068012F15D0806925EA00004A
:101120000004000C18D000BF44F8309F84F80DA0D4
:1011300084F80E90216941F02001216184F80C901F
:101140000120BDE8F087406925EA00000004000C9A
:10115000EAD12068406901E02068806925EA000042
:101160000004000CAFD1ECE770B516460D460446FE
:101170001EE02046FFF7C1FE08B1012070BD681CCB
:1011800016D0FFF723FA801BA84200D885B9206843
:101190004069C04300060BD5002044F8300F2021E1
:1011A0006173A073216941F0200121612073E4E79C
:1011B00020684069C0430006DBD4002070BD0000F9
:1011C000F0B585B000253948009501950295039545
:1011D000816941F010018161816901F01001049180
:1011E000816941F020018161816901F02001049150
:1011F000816941F004018161816901F00401049178
:10120000816941F0080181618069294F00F008007F
:101210000490012241F604613846FFF7D2F9042018
:1012200001248DE83100694638460394FFF7CCF875
:10123000204E2020CDE90006694602943846FFF78B
:10124000C3F841F20300CDE90006694602941A484A
:10125000FFF7BAF84FF4F0508DE831000320039007
:1012600069463846FFF7B0F8002202210620FFF752
:10127000A1FB0620FFF790FB002202210720FFF7C9
:1012800099FB0720FFF788FB002202211720FFF7B8
:1012900091FB1720FFF780FB002202212820FFF797
:1012A00089FB2820FFF778FB05B0F0BD0010024055
:1012B0000008014000002110000C01400D4810B54D
:1012C0000B4901600C49416000214FF4804281606C
:1012D000C0E9031241618161C1610162FFF77CF9DC
:1012E000002803D0BDE81040FFF738B810BD00005B
:1012F0000054004014000020A0860100FEE7FEE735
:1013000070B500240021204600F05EF80025002082
:1013100000F0E4F86D1CEDB2802DF8D3641CE4B24B
:10132000082CEFD370BD10B5AE2000F0C7F8D52063
:1013300000F0C4F8802000F0C1F8A82000F0BEF84A
:101340003F2000F0BBF8D32000F0B8F8002000F0F8
:10135000B5F8402000F0B2F8A12000F0AFF8C820A6
:1013600000F0ACF8DA2000F0A9F8122000F0A6F89E
:10137000812000F0A3F8CF2000F0A0F8D92000F0E1
:101380009DF8F12000F09AF8DB2000F097F830206B
:1013900000F094F8A42000F091F8A62000F08EF858
:1013A0008D2000F08BF8142000F088F8AF2000F0BA
:1013B00085F8BDE81040FFF7A3BF0246012000E01A
:1013C0005043491EFCD2704710B50C4640F0B000A7
:1013D00000F074F8102040EA141000F06FF804F0E8
:1013E0000F00BDE8104000F069B800002DE9F041A1
:1013F0000746CE004000083E801E15464FF0FF38DD
:10140000F1B2C0B2FFF7E0FF1148002400EB051570
:101410002819A0F5805090F8000E00F05FF8641CC9
:10142000E4B2082CF4D308EB4700F1B2C0B2FFF7E6
:10143000CBFF00242819A0F5805090F8080E00F08A
:101440004DF8641CE4B2082CF4D3BDE8F081000030
:10145000281600082DE9F04700241D461646884648
:1014600081460A2713E0291B0A20491EFFF7A5FF22
:10147000B6FBF0F0B0FBF7F107FB110208EB04003C
:10148000C1B248463032FFF7B1FF641CE4B2AC424F
:10149000E9D3BDE8F0872DE9F04115460E46074631
:1014A000002406E03019C1B23846FFF79FFF641CE4
:1014B000E4B22A5D002AF5D1BDE8F0811CB5002117
:1014C00001918DF80500481E0090022301AA7821A1
:1014D0000148FFF745F91CBD140000201CB507A109
:1014E0000223096801918DF805004FF0FF3000904C
:1014F00001AA78210248FFF733F91CBD4000000023
:101500001400002070477047FFF7EEB930B58FB078
:1015100028216846FEF758FE14210AA8FEF754FE5B
:1015200001210804CDE90010002402940225049151
:10153000CDE907504FF4E01009906846FFF738FBFB
:1015400008B172B6FEE70F20CDE90A054FF48060BE
:10155000CDE90C4002210AA80E94FFF75DFA00289D
:1015600001D072B6FEE70FB030BD7047FEE7090745
:10157000090E002804DB00F1E02080F80014704719
:1015800000F00F0000F1E02080F8141D704700000B
:10159000FFF7B2F9FFF7BAFFFFF712FEFFF78EFE73
:1015A000FFF7C1FEDFF8709043F2390801211BA25A
:1015B0000846FFF770FF0523424601210220FFF78E
:1015C00049FFFEF771FE0020FEF762FE074601208C
:1015D000FEF75EFE06460220FEF75AFE0546032091
:1015E000FEF756FE0446022F03D139024846FEF7A5
:1015F000E0FF022E03D171024846FEF7DAFF022D0A
:1016000003D1A9024846FEF7D4FF022CCED1E10255
:101610004846FEF7CEFFC9E70008014062746E201D
:1016200074657374000000000000000000000000FA
:101630000000000000000000000000F800000000B2
:10164000000000333000000000100C06100C0600F3
:10165000000000000000000040C07840C07840005A
:10166000043F04043F040400007088FC08300000BC
:10167000001820FF211E0000F008F000E018000014
:1016800000211C031E211E0000F0088870000000CD
:101690001E2123241927211010160E00000000001F
:1016A0000000000000000000000000E0180402003C
:1016B000000000071820400000020418E0000000AD
:1016C0000040201807000000404080F080404000AB
:1016D0000202010F01020200000000F00000000001
:1016E0000101011F010101000000000000000000D5
:1016F00080B070000000000000000000000000004A
:1017000000010101010101010000000000000000D2
:10171000003030000000000000000000806018046D
:10172000006018060100000000E010080810E0004A
:10173000000F102020100F00001010F80000000013
:101740000020203F2020000000700808088870005A
:1017500000302824222130000030088888483000DA
:101760000018202020110E000000C02010F80000FA
:1017700000070424243F240000F808888808080093
:101780000019212020110E0000E0108888180000A8
:10179000000F112020110E0000380808C83808007A
:1017A0000000003F000000000070880808887000FA
:1017B000001C222121221C0000E010080810E0007B
:1017C0000000312222110F00000000C0C000000004
:1017D0000000003030000000000000800000000029
:1017E0000000806000000000000080402010080021
:1017F00000010204081020004040404040404000EA
:1018000004040404040404000008102040800000C4
:101810000020100804020100007048080808F000C9
:101820000000003036010000C030C828E810E00099
:101830000718272423140B000000C038E000000024
:10184000203C23020227382008F88888887000008E
:10185000203F202020110E00C03008080808380062
:10186000071820202010080008F808080810E000D9
:10187000203F202020100F0008F88888E80810007A
:10188000203F20202320180008F88888E80810004E
:10189000203F200003000000C03008080838000086
:1018A00007182020221E020008F808000008F80887
:1018B000203F210101213F20000808F8080800000E
:1018C0000020203F2020000000000808F808080041
:1018D000C08080807F00000008F888C028180800B9
:1018E000203F20012638200008F8080000000000F2
:1018F000203F20202020300008F8F800F8F80800E9
:10190000203F003F003F200008F830C00008F808E2
:10191000203F200007183F00E01008080810E000F2
:101920000F10202020100F0008F808080808F00009
:10193000203F210101010000E01008080810E0002C
:101940000F18242438504F0008F8888888887000C1
:10195000203F2000030C3020007088080808380061
:101960000038202121221C00180808F80808180057
:101970000000203F2000000008F808000008F808D8
:10198000001F202020201F000878880000C8380889
:10199000000007380E010000F80800F80008F80001
:1019A000033C0700073C030008186880806818089B
:1019B00020302C03032C30200838C800C838080019
:1019C0000000203F2000000010080808C838080068
:1019D0002038262120201800000000FE020202000C
:1019E0000000007F40404000000C30C000000000BC
:1019F000000000010638C00000020202FE000000E4
:101A0000004040407F000000000004020202040089
:101A100000000000000000000000000000000000C6
:101A200080808080808080800002020400000000AE
:101A300000000000000000000000808080800000A6
:101A40000019242222223F2008F800808000000094
:101A5000003F112020110E00000000808080000057
:101A6000000E112020201100000000808088F80066
:101A7000000E112020103F20000080808080000098
:101A8000001F222222221300008080F088888818FC
:101A90000020203F20200000000080808080800007
:101AA000006B94949493600008F80080808000009C
:101AB000203F210000203F20008098980000000077
:101AC0000020203F202000000000008098980000A7
:101AD00000C08080807F000008F8000080808000C7
:101AE000203F24022D302000000808F800000000EC
:101AF0000020203F202000008080808080808000A7
:101B0000203F20003F20003F808000808080000038
:101B1000203F210000203F200000808080800000C6
:101B2000001F202020201F008080008080000000F7
:101B300080FFA12020110E00000000808080800026
:101B4000000E112020A0FF80808080008080800017
:101B500020203F2120000100000080808080800044
:101B60000033242424241900008080E080800000B9
:101B70000000001F20200000808000000080800006
:101B8000001F202020103F20808080000080808067
:101B900000010E30080601008080008000808080F7
:101BA0000F300C030C300F0000808000808080001C
:101BB0000020312E0E312000808080000080808047
:101BC00080818E70180601000080808080808000F7
:101BD0000021302C2221300000000000807C020215
:101BE00000000000003F404000000000FF00000037
:101BF00000000000FF0000000002027C80000000E6
:101C00000040403F00000000000601010202040401
:101C10000000000000000000200001000200001091
:101C200000080140000C0140000C0140000C014084
:101C3000010202030405060708090A0B0C0D0E0F2A
:101C4000101000000000000000000102030406075D
:101C50000809000000000102030400007C1C0008C9
:101C6000000000201400000028010008901C00085B
:101C700014000020E40600004401000800000000F9
:101C800001000000100000000000000000127A00B7
:04000005080000ED02
:00000001FF
